{
	"FD-SBT-003.sol": {
		"FDSBT003": {
			"abi": [
				{
					"inputs": [
						{
							"internalType": "address",
							"name": "manager",
							"type": "address"
						},
						{
							"internalType": "address",
							"name": "_minter",
							"type": "address"
						},
						{
							"internalType": "uint256",
							"name": "_totalSupply",
							"type": "uint256"
						},
						{
							"internalType": "string",
							"name": "_logo",
							"type": "string"
						}
					],
					"stateMutability": "nonpayable",
					"type": "constructor"
				},
				{
					"anonymous": false,
					"inputs": [
						{
							"indexed": true,
							"internalType": "address",
							"name": "Admin",
							"type": "address"
						},
						{
							"indexed": true,
							"internalType": "address",
							"name": "newAdmin",
							"type": "address"
						}
					],
					"name": "AdminChange",
					"type": "event"
				},
				{
					"anonymous": false,
					"inputs": [
						{
							"indexed": true,
							"internalType": "address",
							"name": "owner",
							"type": "address"
						},
						{
							"indexed": true,
							"internalType": "address",
							"name": "spender",
							"type": "address"
						},
						{
							"indexed": false,
							"internalType": "uint256",
							"name": "value",
							"type": "uint256"
						}
					],
					"name": "Approval",
					"type": "event"
				},
				{
					"anonymous": false,
					"inputs": [
						{
							"indexed": true,
							"internalType": "address",
							"name": "delegate",
							"type": "address"
						},
						{
							"indexed": false,
							"internalType": "uint256",
							"name": "previousBalance",
							"type": "uint256"
						},
						{
							"indexed": false,
							"internalType": "uint256",
							"name": "newBalance",
							"type": "uint256"
						}
					],
					"name": "DelegateVotesChanged",
					"type": "event"
				},
				{
					"anonymous": false,
					"inputs": [
						{
							"indexed": true,
							"internalType": "address",
							"name": "previousOwner",
							"type": "address"
						},
						{
							"indexed": true,
							"internalType": "address",
							"name": "newOwner",
							"type": "address"
						}
					],
					"name": "OwnershipTransferred",
					"type": "event"
				},
				{
					"anonymous": false,
					"inputs": [
						{
							"indexed": true,
							"internalType": "address",
							"name": "from",
							"type": "address"
						},
						{
							"indexed": true,
							"internalType": "address",
							"name": "to",
							"type": "address"
						},
						{
							"indexed": false,
							"internalType": "uint256",
							"name": "value",
							"type": "uint256"
						}
					],
					"name": "Transfer",
					"type": "event"
				},
				{
					"inputs": [],
					"name": "admin",
					"outputs": [
						{
							"internalType": "address",
							"name": "",
							"type": "address"
						}
					],
					"stateMutability": "view",
					"type": "function"
				},
				{
					"inputs": [
						{
							"internalType": "address",
							"name": "owner",
							"type": "address"
						},
						{
							"internalType": "address",
							"name": "spender",
							"type": "address"
						}
					],
					"name": "allowance",
					"outputs": [
						{
							"internalType": "uint256",
							"name": "",
							"type": "uint256"
						}
					],
					"stateMutability": "view",
					"type": "function"
				},
				{
					"inputs": [
						{
							"internalType": "address",
							"name": "spender",
							"type": "address"
						},
						{
							"internalType": "uint256",
							"name": "amount",
							"type": "uint256"
						}
					],
					"name": "approve",
					"outputs": [
						{
							"internalType": "bool",
							"name": "",
							"type": "bool"
						}
					],
					"stateMutability": "nonpayable",
					"type": "function"
				},
				{
					"inputs": [
						{
							"internalType": "address",
							"name": "account",
							"type": "address"
						}
					],
					"name": "balanceOf",
					"outputs": [
						{
							"internalType": "uint256",
							"name": "",
							"type": "uint256"
						}
					],
					"stateMutability": "view",
					"type": "function"
				},
				{
					"inputs": [
						{
							"internalType": "address",
							"name": "account",
							"type": "address"
						},
						{
							"internalType": "uint256",
							"name": "amount",
							"type": "uint256"
						}
					],
					"name": "burn",
					"outputs": [],
					"stateMutability": "nonpayable",
					"type": "function"
				},
				{
					"inputs": [
						{
							"internalType": "address",
							"name": "",
							"type": "address"
						},
						{
							"internalType": "uint32",
							"name": "",
							"type": "uint32"
						}
					],
					"name": "checkpoints",
					"outputs": [
						{
							"internalType": "uint32",
							"name": "fromBlock",
							"type": "uint32"
						},
						{
							"internalType": "uint96",
							"name": "votes",
							"type": "uint96"
						}
					],
					"stateMutability": "view",
					"type": "function"
				},
				{
					"inputs": [],
					"name": "decimals",
					"outputs": [
						{
							"internalType": "uint8",
							"name": "",
							"type": "uint8"
						}
					],
					"stateMutability": "view",
					"type": "function"
				},
				{
					"inputs": [
						{
							"internalType": "address",
							"name": "spender",
							"type": "address"
						},
						{
							"internalType": "uint256",
							"name": "subtractedValue",
							"type": "uint256"
						}
					],
					"name": "decreaseAllowance",
					"outputs": [
						{
							"internalType": "bool",
							"name": "",
							"type": "bool"
						}
					],
					"stateMutability": "nonpayable",
					"type": "function"
				},
				{
					"inputs": [],
					"name": "fireSoul",
					"outputs": [
						{
							"internalType": "address",
							"name": "",
							"type": "address"
						}
					],
					"stateMutability": "view",
					"type": "function"
				},
				{
					"inputs": [
						{
							"internalType": "address",
							"name": "account",
							"type": "address"
						}
					],
					"name": "getCurrentVotes",
					"outputs": [
						{
							"internalType": "uint96",
							"name": "",
							"type": "uint96"
						}
					],
					"stateMutability": "view",
					"type": "function"
				},
				{
					"inputs": [
						{
							"internalType": "address",
							"name": "account",
							"type": "address"
						},
						{
							"internalType": "uint256",
							"name": "blockNumber",
							"type": "uint256"
						}
					],
					"name": "getPriorVotes",
					"outputs": [
						{
							"internalType": "uint96",
							"name": "",
							"type": "uint96"
						}
					],
					"stateMutability": "view",
					"type": "function"
				},
				{
					"inputs": [
						{
							"internalType": "address",
							"name": "spender",
							"type": "address"
						},
						{
							"internalType": "uint256",
							"name": "addedValue",
							"type": "uint256"
						}
					],
					"name": "increaseAllowance",
					"outputs": [
						{
							"internalType": "bool",
							"name": "",
							"type": "bool"
						}
					],
					"stateMutability": "nonpayable",
					"type": "function"
				},
				{
					"inputs": [],
					"name": "logo",
					"outputs": [
						{
							"internalType": "string",
							"name": "",
							"type": "string"
						}
					],
					"stateMutability": "view",
					"type": "function"
				},
				{
					"inputs": [
						{
							"internalType": "address",
							"name": "account",
							"type": "address"
						},
						{
							"internalType": "uint256",
							"name": "amount",
							"type": "uint256"
						}
					],
					"name": "mint",
					"outputs": [],
					"stateMutability": "nonpayable",
					"type": "function"
				},
				{
					"inputs": [],
					"name": "minter",
					"outputs": [
						{
							"internalType": "address",
							"name": "",
							"type": "address"
						}
					],
					"stateMutability": "view",
					"type": "function"
				},
				{
					"inputs": [],
					"name": "name",
					"outputs": [
						{
							"internalType": "string",
							"name": "",
							"type": "string"
						}
					],
					"stateMutability": "view",
					"type": "function"
				},
				{
					"inputs": [
						{
							"internalType": "address",
							"name": "",
							"type": "address"
						}
					],
					"name": "numCheckpoints",
					"outputs": [
						{
							"internalType": "uint32",
							"name": "",
							"type": "uint32"
						}
					],
					"stateMutability": "view",
					"type": "function"
				},
				{
					"inputs": [],
					"name": "owner",
					"outputs": [
						{
							"internalType": "address",
							"name": "",
							"type": "address"
						}
					],
					"stateMutability": "view",
					"type": "function"
				},
				{
					"inputs": [],
					"name": "renounceOwnership",
					"outputs": [],
					"stateMutability": "nonpayable",
					"type": "function"
				},
				{
					"inputs": [
						{
							"internalType": "address",
							"name": "_fireSoul",
							"type": "address"
						}
					],
					"name": "setFireSoulAddress",
					"outputs": [],
					"stateMutability": "nonpayable",
					"type": "function"
				},
				{
					"inputs": [],
					"name": "setStatus",
					"outputs": [],
					"stateMutability": "nonpayable",
					"type": "function"
				},
				{
					"inputs": [],
					"name": "status",
					"outputs": [
						{
							"internalType": "bool",
							"name": "",
							"type": "bool"
						}
					],
					"stateMutability": "view",
					"type": "function"
				},
				{
					"inputs": [],
					"name": "symbol",
					"outputs": [
						{
							"internalType": "string",
							"name": "",
							"type": "string"
						}
					],
					"stateMutability": "view",
					"type": "function"
				},
				{
					"inputs": [],
					"name": "totalSupply",
					"outputs": [
						{
							"internalType": "uint256",
							"name": "",
							"type": "uint256"
						}
					],
					"stateMutability": "view",
					"type": "function"
				},
				{
					"inputs": [
						{
							"internalType": "address",
							"name": "recipient",
							"type": "address"
						},
						{
							"internalType": "uint256",
							"name": "amount",
							"type": "uint256"
						}
					],
					"name": "transfer",
					"outputs": [
						{
							"internalType": "bool",
							"name": "",
							"type": "bool"
						}
					],
					"stateMutability": "nonpayable",
					"type": "function"
				},
				{
					"inputs": [
						{
							"internalType": "address",
							"name": "sender",
							"type": "address"
						},
						{
							"internalType": "address",
							"name": "recipient",
							"type": "address"
						},
						{
							"internalType": "uint256",
							"name": "amount",
							"type": "uint256"
						}
					],
					"name": "transferFrom",
					"outputs": [
						{
							"internalType": "bool",
							"name": "",
							"type": "bool"
						}
					],
					"stateMutability": "nonpayable",
					"type": "function"
				},
				{
					"inputs": [
						{
							"internalType": "address",
							"name": "newOwner",
							"type": "address"
						}
					],
					"name": "transferOwnership",
					"outputs": [],
					"stateMutability": "nonpayable",
					"type": "function"
				}
			],
			"devdoc": {
				"kind": "dev",
				"methods": {
					"allowance(address,address)": {
						"details": "See {IERC20-allowance}."
					},
					"approve(address,uint256)": {
						"details": "See {IERC20-approve}. NOTE: If `amount` is the maximum `uint256`, the allowance is not updated on `transferFrom`. This is semantically equivalent to an infinite approval. Requirements: - `spender` cannot be the zero address."
					},
					"balanceOf(address)": {
						"details": "See {IERC20-balanceOf}."
					},
					"decimals()": {
						"details": "Returns the number of decimals used to get its user representation. For example, if `decimals` equals `2`, a balance of `505` tokens should be displayed to a user as `5.05` (`505 / 10 ** 2`). Tokens usually opt for a value of 18, imitating the relationship between Ether and Wei. This is the value {ERC20} uses, unless this function is overridden; NOTE: This information is only used for _display_ purposes: it in no way affects any of the arithmetic of the contract, including {IERC20-balanceOf} and {IERC20-transfer}."
					},
					"decreaseAllowance(address,uint256)": {
						"details": "Atomically decreases the allowance granted to `spender` by the caller. This is an alternative to {approve} that can be used as a mitigation for problems described in {IERC20-approve}. Emits an {Approval} event indicating the updated allowance. Requirements: - `spender` cannot be the zero address. - `spender` must have allowance for the caller of at least `subtractedValue`."
					},
					"increaseAllowance(address,uint256)": {
						"details": "Atomically increases the allowance granted to `spender` by the caller. This is an alternative to {approve} that can be used as a mitigation for problems described in {IERC20-approve}. Emits an {Approval} event indicating the updated allowance. Requirements: - `spender` cannot be the zero address."
					},
					"name()": {
						"details": "Returns the name of the token."
					},
					"owner()": {
						"details": "Returns the address of the current owner."
					},
					"renounceOwnership()": {
						"details": "Leaves the contract without owner. It will not be possible to call `onlyOwner` functions anymore. Can only be called by the current owner. NOTE: Renouncing ownership will leave the contract without an owner, thereby removing any functionality that is only available to the owner."
					},
					"symbol()": {
						"details": "Returns the symbol of the token, usually a shorter version of the name."
					},
					"totalSupply()": {
						"details": "See {IERC20-totalSupply}."
					},
					"transferOwnership(address)": {
						"details": "Transfers ownership of the contract to a new account (`newOwner`). Can only be called by the current owner."
					}
				},
				"version": 1
			},
			"evm": {
				"assembly": "    /* \"FD-SBT-003.sol\":291:6582  contract FDSBT003 is ERC20,Ownable{... */\n  mstore(0x40, 0x80)\n    /* \"FD-SBT-003.sol\":474:500  bool public status = false */\n  0x07\n  dup1\n  sload\n  not(0xff)\n  and\n  swap1\n  sstore\n    /* \"FD-SBT-003.sol\":910:1257  constructor(address manager,address _minter,uint256 _totalSupply,string memory _logo)  ERC20(\"FDSBD003\",\"FDSBD003\"){... */\n  callvalue\n  dup1\n  iszero\n  tag_1\n  jumpi\n  0x00\n  dup1\n  revert\ntag_1:\n  pop\n  mload(0x40)\n  sub(codesize, bytecodeSize)\n  dup1\n  bytecodeSize\n  dup4\n  codecopy\n  dup2\n  add\n  0x40\n  dup2\n  swap1\n  mstore\n  tag_2\n  swap2\n  tag_3\n  jump\t// in\ntag_2:\n    /* \"@openzeppelin/contracts/token/ERC20/ERC20.sol\":1976:2089  constructor(string memory name_, string memory symbol_) {... */\n  0x40\n  dup1\n  mload\n  dup1\n  dup3\n  add\n  dup3\n  mstore\n  0x08\n  dup1\n  dup3\n  mstore\n  shl(0xc0, 0x4644534244303033)\n  0x20\n  dup1\n  dup5\n  add\n  dup3\n  swap1\n  mstore\n  dup5\n  mload\n  dup1\n  dup7\n  add\n  swap1\n  swap6\n  mstore\n  swap2\n  dup5\n  mstore\n  swap1\n  dup4\n  add\n  mstore\n  swap1\n    /* \"@openzeppelin/contracts/token/ERC20/ERC20.sol\":2042:2047  _name */\n  0x03\n    /* \"@openzeppelin/contracts/token/ERC20/ERC20.sol\":2042:2055  _name = name_ */\n  tag_8\n    /* \"@openzeppelin/contracts/token/ERC20/ERC20.sol\":1976:2089  constructor(string memory name_, string memory symbol_) {... */\n  dup4\n    /* \"@openzeppelin/contracts/token/ERC20/ERC20.sol\":2042:2047  _name */\n  dup3\n    /* \"@openzeppelin/contracts/token/ERC20/ERC20.sol\":2042:2055  _name = name_ */\n  tag_9\n  jump\t// in\ntag_8:\n  pop\n    /* \"@openzeppelin/contracts/token/ERC20/ERC20.sol\":2065:2072  _symbol */\n  0x04\n    /* \"@openzeppelin/contracts/token/ERC20/ERC20.sol\":2065:2082  _symbol = symbol_ */\n  tag_10\n    /* \"@openzeppelin/contracts/token/ERC20/ERC20.sol\":2075:2082  symbol_ */\n  dup3\n    /* \"@openzeppelin/contracts/token/ERC20/ERC20.sol\":2065:2072  _symbol */\n  dup3\n    /* \"@openzeppelin/contracts/token/ERC20/ERC20.sol\":2065:2082  _symbol = symbol_ */\n  tag_9\n  jump\t// in\ntag_10:\n  pop\n    /* \"@openzeppelin/contracts/token/ERC20/ERC20.sol\":1976:2089  constructor(string memory name_, string memory symbol_) {... */\n  pop\n  pop\n    /* \"@openzeppelin/contracts/access/Ownable.sol\":936:968  _transferOwnership(_msgSender()) */\n  tag_12\n    /* \"@openzeppelin/contracts/access/Ownable.sol\":955:967  _msgSender() */\n  tag_13\n    /* \"@openzeppelin/contracts/access/Ownable.sol\":955:965  _msgSender */\n  shl(0x20, tag_14)\n    /* \"@openzeppelin/contracts/access/Ownable.sol\":955:967  _msgSender() */\n  0x20\n  shr\n  jump\t// in\ntag_13:\n    /* \"@openzeppelin/contracts/access/Ownable.sol\":936:954  _transferOwnership */\n  tag_15\n    /* \"@openzeppelin/contracts/access/Ownable.sol\":936:968  _transferOwnership(_msgSender()) */\n  jump\t// in\ntag_12:\n    /* \"FD-SBT-003.sol\":1036:1040  logo */\n  0x06\n    /* \"FD-SBT-003.sol\":1036:1048  logo = _logo */\n  tag_17\n    /* \"FD-SBT-003.sol\":1043:1048  _logo */\n  dup3\n    /* \"FD-SBT-003.sol\":1036:1040  logo */\n  dup3\n    /* \"FD-SBT-003.sol\":1036:1048  logo = _logo */\n  tag_9\n  jump\t// in\ntag_17:\n  pop\n    /* \"FD-SBT-003.sol\":1059:1098  _mint(manager, _totalSupply * 10 ** 18) */\n  tag_18\n    /* \"FD-SBT-003.sol\":1065:1072  manager */\n  dup5\n    /* \"FD-SBT-003.sol\":1074:1097  _totalSupply * 10 ** 18 */\n  tag_19\n    /* \"FD-SBT-003.sol\":1074:1086  _totalSupply */\n  dup5\n    /* \"FD-SBT-003.sol\":1089:1097  10 ** 18 */\n  0x0de0b6b3a7640000\n    /* \"FD-SBT-003.sol\":1074:1097  _totalSupply * 10 ** 18 */\n  tag_20\n  jump\t// in\ntag_19:\n    /* \"FD-SBT-003.sol\":1059:1064  _mint */\n  tag_21\n    /* \"FD-SBT-003.sol\":1059:1098  _mint(manager, _totalSupply * 10 ** 18) */\n  jump\t// in\ntag_18:\n    /* \"FD-SBT-003.sol\":1109:1196  _addDelegates(manager, safe96(_totalSupply * 10 ** 18,\"erc20: vote amount underflows\")) */\n  tag_22\n    /* \"FD-SBT-003.sol\":1123:1130  manager */\n  dup5\n    /* \"FD-SBT-003.sol\":1132:1195  safe96(_totalSupply * 10 ** 18,\"erc20: vote amount underflows\") */\n  tag_23\n    /* \"FD-SBT-003.sol\":1139:1162  _totalSupply * 10 ** 18 */\n  tag_24\n    /* \"FD-SBT-003.sol\":1139:1151  _totalSupply */\n  dup6\n    /* \"FD-SBT-003.sol\":1154:1162  10 ** 18 */\n  0x0de0b6b3a7640000\n    /* \"FD-SBT-003.sol\":1139:1162  _totalSupply * 10 ** 18 */\n  tag_20\n  jump\t// in\ntag_24:\n    /* \"FD-SBT-003.sol\":1132:1195  safe96(_totalSupply * 10 ** 18,\"erc20: vote amount underflows\") */\n  0x40\n  dup1\n  mload\n  dup1\n  dup3\n  add\n  swap1\n  swap2\n  mstore\n  0x1d\n  dup2\n  mstore\n  0x65726332303a20766f746520616d6f756e7420756e646572666c6f7773000000\n  0x20\n  dup3\n  add\n  mstore\n    /* \"FD-SBT-003.sol\":1132:1138  safe96 */\n  tag_25\n    /* \"FD-SBT-003.sol\":1132:1195  safe96(_totalSupply * 10 ** 18,\"erc20: vote amount underflows\") */\n  jump\t// in\ntag_23:\n    /* \"FD-SBT-003.sol\":1109:1122  _addDelegates */\n  tag_26\n    /* \"FD-SBT-003.sol\":1109:1196  _addDelegates(manager, safe96(_totalSupply * 10 ** 18,\"erc20: vote amount underflows\")) */\n  jump\t// in\ntag_22:\n  pop\n  pop\n    /* \"FD-SBT-003.sol\":1207:1213  minter */\n  0x07\n    /* \"FD-SBT-003.sol\":1207:1223  minter = _minter */\n  dup1\n  sload\n  not(sub(shl(0xa8, 0x01), 0x0100))\n  and\n  0x0100\n  sub(shl(0xa0, 0x01), 0x01)\n  swap4\n  dup5\n  and\n  mul\n  or\n  swap1\n  sstore\n    /* \"FD-SBT-003.sol\":1234:1239  admin */\n  0x08\n    /* \"FD-SBT-003.sol\":1234:1249  admin = manager */\n  dup1\n  sload\n  not(sub(shl(0xa0, 0x01), 0x01))\n  and\n  swap3\n  swap1\n  swap2\n  and\n  swap2\n  swap1\n  swap2\n  or\n  swap1\n  sstore\n    /* \"FD-SBT-003.sol\":291:6582  contract FDSBT003 is ERC20,Ownable{... */\n  jump(tag_85)\n    /* \"@openzeppelin/contracts/utils/Context.sol\":640:736  function _msgSender() internal view virtual returns (address) {... */\ntag_14:\n    /* \"@openzeppelin/contracts/utils/Context.sol\":719:729  msg.sender */\n  caller\n  swap1\n    /* \"@openzeppelin/contracts/utils/Context.sol\":640:736  function _msgSender() internal view virtual returns (address) {... */\n  jump\t// out\n    /* \"@openzeppelin/contracts/access/Ownable.sol\":2433:2620  function _transferOwnership(address newOwner) internal virtual {... */\ntag_15:\n    /* \"@openzeppelin/contracts/access/Ownable.sol\":2525:2531  _owner */\n  0x05\n  dup1\n  sload\n  sub(shl(0xa0, 0x01), 0x01)\n    /* \"@openzeppelin/contracts/access/Ownable.sol\":2541:2558  _owner = newOwner */\n  dup4\n  dup2\n  and\n  not(sub(shl(0xa0, 0x01), 0x01))\n  dup4\n  and\n  dup2\n  or\n  swap1\n  swap4\n  sstore\n    /* \"@openzeppelin/contracts/access/Ownable.sol\":2573:2613  OwnershipTransferred(oldOwner, newOwner) */\n  mload(0x40)\n    /* \"@openzeppelin/contracts/access/Ownable.sol\":2525:2531  _owner */\n  swap2\n  and\n  swap2\n    /* \"@openzeppelin/contracts/access/Ownable.sol\":2541:2558  _owner = newOwner */\n  swap1\n    /* \"@openzeppelin/contracts/access/Ownable.sol\":2525:2531  _owner */\n  dup3\n  swap1\n    /* \"@openzeppelin/contracts/access/Ownable.sol\":2573:2613  OwnershipTransferred(oldOwner, newOwner) */\n  0x8be0079c531659141344cd1fd0a4f28419497f9722a3daafe3b4186f6b6457e0\n  swap1\n    /* \"@openzeppelin/contracts/access/Ownable.sol\":2506:2522  address oldOwner */\n  0x00\n  swap1\n    /* \"@openzeppelin/contracts/access/Ownable.sol\":2573:2613  OwnershipTransferred(oldOwner, newOwner) */\n  log3\n    /* \"@openzeppelin/contracts/access/Ownable.sol\":2496:2620  {... */\n  pop\n    /* \"@openzeppelin/contracts/access/Ownable.sol\":2433:2620  function _transferOwnership(address newOwner) internal virtual {... */\n  pop\n  jump\t// out\n    /* \"@openzeppelin/contracts/token/ERC20/ERC20.sol\":8567:9102  function _mint(address account, uint256 amount) internal virtual {... */\ntag_21:\n  sub(shl(0xa0, 0x01), 0x01)\n    /* \"@openzeppelin/contracts/token/ERC20/ERC20.sol\":8650:8671  account != address(0) */\n  dup3\n  and\n    /* \"@openzeppelin/contracts/token/ERC20/ERC20.sol\":8642:8707  require(account != address(0), \"ERC20: mint to the zero address\") */\n  tag_31\n  jumpi\n  mload(0x40)\n  shl(0xe5, 0x461bcd)\n  dup2\n  mstore\n    /* \"#utility.yul\":4813:4815   */\n  0x20\n    /* \"@openzeppelin/contracts/token/ERC20/ERC20.sol\":8642:8707  require(account != address(0), \"ERC20: mint to the zero address\") */\n  0x04\n  dup3\n  add\n    /* \"#utility.yul\":4795:4816   */\n  mstore\n    /* \"#utility.yul\":4852:4854   */\n  0x1f\n    /* \"#utility.yul\":4832:4850   */\n  0x24\n  dup3\n  add\n    /* \"#utility.yul\":4825:4855   */\n  mstore\n    /* \"#utility.yul\":4891:4924   */\n  0x45524332303a206d696e7420746f20746865207a65726f206164647265737300\n    /* \"#utility.yul\":4871:4889   */\n  0x44\n  dup3\n  add\n    /* \"#utility.yul\":4864:4925   */\n  mstore\n    /* \"#utility.yul\":4942:4960   */\n  0x64\n  add\n    /* \"@openzeppelin/contracts/token/ERC20/ERC20.sol\":8642:8707  require(account != address(0), \"ERC20: mint to the zero address\") */\ntag_32:\n  mload(0x40)\n  dup1\n  swap2\n  sub\n  swap1\n  revert\ntag_31:\n    /* \"@openzeppelin/contracts/token/ERC20/ERC20.sol\":8794:8800  amount */\n  dup1\n    /* \"@openzeppelin/contracts/token/ERC20/ERC20.sol\":8778:8790  _totalSupply */\n  0x02\n  0x00\n    /* \"@openzeppelin/contracts/token/ERC20/ERC20.sol\":8778:8800  _totalSupply += amount */\n  dup3\n  dup3\n  sload\n  tag_36\n  swap2\n  swap1\n  tag_37\n  jump\t// in\ntag_36:\n  swap1\n  swap2\n  sstore\n  pop\n  pop\n  sub(shl(0xa0, 0x01), 0x01)\n    /* \"@openzeppelin/contracts/token/ERC20/ERC20.sol\":8946:8964  _balances[account] */\n  dup3\n  and\n    /* \"@openzeppelin/contracts/token/ERC20/ERC20.sol\":8946:8955  _balances */\n  0x00\n    /* \"@openzeppelin/contracts/token/ERC20/ERC20.sol\":8946:8964  _balances[account] */\n  dup2\n  dup2\n  mstore\n  0x20\n  dup2\n  dup2\n  mstore\n  0x40\n  dup1\n  dup4\n  keccak256\n    /* \"@openzeppelin/contracts/token/ERC20/ERC20.sol\":8946:8974  _balances[account] += amount */\n  dup1\n  sload\n  dup7\n  add\n  swap1\n  sstore\n    /* \"@openzeppelin/contracts/token/ERC20/ERC20.sol\":8999:9036  Transfer(address(0), account, amount) */\n  mload\n    /* \"#utility.yul\":5247:5272   */\n  dup5\n  dup2\n  mstore\n    /* \"@openzeppelin/contracts/token/ERC20/ERC20.sol\":8999:9036  Transfer(address(0), account, amount) */\n  0xddf252ad1be2c89b69c2b068fc378daa952ba7f163c4a11628f55a4df523b3ef\n  swap2\n    /* \"#utility.yul\":5220:5238   */\n  add\n    /* \"@openzeppelin/contracts/token/ERC20/ERC20.sol\":8999:9036  Transfer(address(0), account, amount) */\n  mload(0x40)\n  dup1\n  swap2\n  sub\n  swap1\n  log3\n    /* \"@openzeppelin/contracts/token/ERC20/ERC20.sol\":8567:9102  function _mint(address account, uint256 amount) internal virtual {... */\n  pop\n  pop\n  jump\t// out\n    /* \"FD-SBT-003.sol\":6042:6206  function safe96(uint256 n, string memory errorMessage) internal pure returns (uint96) {... */\ntag_25:\n    /* \"FD-SBT-003.sol\":6120:6126  uint96 */\n  0x00\n    /* \"FD-SBT-003.sol\":6158:6170  errorMessage */\n  dup2\n    /* \"FD-SBT-003.sol\":6151:6156  2**96 */\n  0x01000000000000000000000000\n    /* \"FD-SBT-003.sol\":6147:6156  n < 2**96 */\n  dup5\n  lt\n    /* \"FD-SBT-003.sol\":6139:6171  require(n < 2**96, errorMessage) */\n  tag_43\n  jumpi\n  mload(0x40)\n  shl(0xe5, 0x461bcd)\n  dup2\n  mstore\n  0x04\n  add\n  tag_32\n  swap2\n  swap1\n  tag_45\n  jump\t// in\ntag_43:\n  pop\n    /* \"FD-SBT-003.sol\":6196:6197  n */\n  dup3\n    /* \"FD-SBT-003.sol\":6182:6198  return uint96(n) */\n  swap1\n  pop\n    /* \"FD-SBT-003.sol\":6042:6206  function safe96(uint256 n, string memory errorMessage) internal pure returns (uint96) {... */\ntag_42:\n  swap3\n  swap2\n  pop\n  pop\n  jump\t// out\n    /* \"FD-SBT-003.sol\":4438:4826  function _addDelegates(address dstRep, uint96 amount) internal {... */\ntag_26:\n  sub(shl(0xa0, 0x01), 0x01)\n    /* \"FD-SBT-003.sol\":4543:4565  numCheckpoints[dstRep] */\n  dup3\n  and\n    /* \"FD-SBT-003.sol\":4524:4540  uint32 dstRepNum */\n  0x00\n    /* \"FD-SBT-003.sol\":4543:4565  numCheckpoints[dstRep] */\n  swap1\n  dup2\n  mstore\n    /* \"FD-SBT-003.sol\":4543:4557  numCheckpoints */\n  0x0b\n    /* \"FD-SBT-003.sol\":4543:4565  numCheckpoints[dstRep] */\n  0x20\n  mstore\n  0x40\n  dup2\n  keccak256\n  sload\n  0xffffffff\n  and\n  swap1\n    /* \"FD-SBT-003.sol\":4595:4608  dstRepNum > 0 */\n  dup2\n    /* \"FD-SBT-003.sol\":4595:4655  dstRepNum > 0 ? checkpoints[dstRep][dstRepNum - 1].votes : 0 */\n  tag_47\n  jumpi\n    /* \"FD-SBT-003.sol\":4654:4655  0 */\n  0x00\n    /* \"FD-SBT-003.sol\":4595:4655  dstRepNum > 0 ? checkpoints[dstRep][dstRepNum - 1].votes : 0 */\n  jump(tag_48)\ntag_47:\n  sub(shl(0xa0, 0x01), 0x01)\n    /* \"FD-SBT-003.sol\":4611:4630  checkpoints[dstRep] */\n  dup5\n  and\n  0x00\n  swap1\n  dup2\n  mstore\n    /* \"FD-SBT-003.sol\":4611:4622  checkpoints */\n  0x0a\n    /* \"FD-SBT-003.sol\":4611:4630  checkpoints[dstRep] */\n  0x20\n  mstore\n  0x40\n  dup2\n  keccak256\n  swap1\n    /* \"FD-SBT-003.sol\":4631:4644  dstRepNum - 1 */\n  tag_49\n    /* \"FD-SBT-003.sol\":4643:4644  1 */\n  0x01\n    /* \"FD-SBT-003.sol\":4631:4640  dstRepNum */\n  dup6\n    /* \"FD-SBT-003.sol\":4631:4644  dstRepNum - 1 */\n  tag_50\n  jump\t// in\ntag_49:\n    /* \"FD-SBT-003.sol\":4611:4645  checkpoints[dstRep][dstRepNum - 1] */\n  0xffffffff\n  and\n  dup2\n  mstore\n  0x20\n  dup2\n  add\n  swap2\n  swap1\n  swap2\n  mstore\n  0x40\n  add\n  0x00\n  keccak256\n    /* \"FD-SBT-003.sol\":4611:4651  checkpoints[dstRep][dstRepNum - 1].votes */\n  sload\n  0x0100000000\n  swap1\n  div\n  sub(shl(0x60, 0x01), 0x01)\n  and\n    /* \"FD-SBT-003.sol\":4595:4655  dstRepNum > 0 ? checkpoints[dstRep][dstRepNum - 1].votes : 0 */\ntag_48:\n    /* \"FD-SBT-003.sol\":4576:4655  uint96 dstRepOld = dstRepNum > 0 ? checkpoints[dstRep][dstRepNum - 1].votes : 0 */\n  swap1\n  pop\n    /* \"FD-SBT-003.sol\":4666:4682  uint96 dstRepNew */\n  0x00\n    /* \"FD-SBT-003.sol\":4685:4740  add96(dstRepOld, amount, \"vote: vote amount overflows\") */\n  tag_51\n    /* \"FD-SBT-003.sol\":4691:4700  dstRepOld */\n  dup3\n    /* \"FD-SBT-003.sol\":4702:4708  amount */\n  dup6\n    /* \"FD-SBT-003.sol\":4685:4740  add96(dstRepOld, amount, \"vote: vote amount overflows\") */\n  mload(0x40)\n  dup1\n  0x40\n  add\n  0x40\n  mstore\n  dup1\n  0x1b\n  dup2\n  mstore\n  0x20\n  add\n  0x766f74653a20766f746520616d6f756e74206f766572666c6f77730000000000\n  dup2\n  mstore\n  pop\n    /* \"FD-SBT-003.sol\":4685:4690  add96 */\n  shl(0x20, tag_52)\n    /* \"FD-SBT-003.sol\":4685:4740  add96(dstRepOld, amount, \"vote: vote amount overflows\") */\n  0x20\n  shr\n  jump\t// in\ntag_51:\n    /* \"FD-SBT-003.sol\":4666:4740  uint96 dstRepNew = add96(dstRepOld, amount, \"vote: vote amount overflows\") */\n  swap1\n  pop\n    /* \"FD-SBT-003.sol\":4751:4808  _writeCheckpoint(dstRep, dstRepNum, dstRepOld, dstRepNew) */\n  tag_53\n    /* \"FD-SBT-003.sol\":4768:4774  dstRep */\n  dup6\n    /* \"FD-SBT-003.sol\":4776:4785  dstRepNum */\n  dup5\n    /* \"FD-SBT-003.sol\":4787:4796  dstRepOld */\n  dup5\n    /* \"FD-SBT-003.sol\":4666:4740  uint96 dstRepNew = add96(dstRepOld, amount, \"vote: vote amount overflows\") */\n  dup5\n    /* \"FD-SBT-003.sol\":4751:4767  _writeCheckpoint */\n  tag_54\n    /* \"FD-SBT-003.sol\":4751:4808  _writeCheckpoint(dstRep, dstRepNum, dstRepOld, dstRepNew) */\n  jump\t// in\ntag_53:\n    /* \"FD-SBT-003.sol\":4501:4826  {... */\n  pop\n  pop\n  pop\n    /* \"FD-SBT-003.sol\":4438:4826  function _addDelegates(address dstRep, uint96 amount) internal {... */\n  pop\n  pop\n  jump\t// out\n    /* \"@openzeppelin/contracts/token/ERC20/ERC20.sol\":12180:12301  function _beforeTokenTransfer(... */\ntag_35:\n  pop\n  pop\n  pop\n  jump\t// out\n    /* \"FD-SBT-003.sol\":6218:6406  function add96(uint96 a, uint96 b, string memory errorMessage) internal pure returns (uint96) {... */\ntag_52:\n    /* \"FD-SBT-003.sol\":6304:6310  uint96 */\n  0x00\n  dup1\n    /* \"FD-SBT-003.sol\":6334:6339  a + b */\n  tag_58\n    /* \"FD-SBT-003.sol\":6338:6339  b */\n  dup5\n    /* \"FD-SBT-003.sol\":6334:6335  a */\n  dup7\n    /* \"FD-SBT-003.sol\":6334:6339  a + b */\n  tag_59\n  jump\t// in\ntag_58:\n    /* \"FD-SBT-003.sol\":6323:6339  uint96 c = a + b */\n  swap1\n  pop\n    /* \"FD-SBT-003.sol\":6363:6364  a */\n  dup5\n  sub(shl(0x60, 0x01), 0x01)\n    /* \"FD-SBT-003.sol\":6358:6364  c >= a */\n  and\n    /* \"FD-SBT-003.sol\":6358:6359  c */\n  dup2\n  sub(shl(0x60, 0x01), 0x01)\n    /* \"FD-SBT-003.sol\":6358:6364  c >= a */\n  and\n  lt\n  iszero\n    /* \"FD-SBT-003.sol\":6366:6378  errorMessage */\n  dup4\n    /* \"FD-SBT-003.sol\":6350:6379  require(c >= a, errorMessage) */\n  swap1\n  tag_60\n  jumpi\n  mload(0x40)\n  shl(0xe5, 0x461bcd)\n  dup2\n  mstore\n  0x04\n  add\n  tag_32\n  swap2\n  swap1\n  tag_45\n  jump\t// in\ntag_60:\n  pop\n    /* \"FD-SBT-003.sol\":6397:6398  c */\n  swap5\n    /* \"FD-SBT-003.sol\":6218:6406  function add96(uint96 a, uint96 b, string memory errorMessage) internal pure returns (uint96) {... */\n  swap4\n  pop\n  pop\n  pop\n  pop\n  jump\t// out\n    /* \"FD-SBT-003.sol\":5229:5863  function _writeCheckpoint(address delegatee, uint32 nCheckpoints, uint96 oldVotes, uint96 newVotes) internal {... */\ntag_54:\n    /* \"FD-SBT-003.sol\":5349:5367  uint32 blockNumber */\n  0x00\n    /* \"FD-SBT-003.sol\":5370:5427  safe32(block.number, \"erc: block number exceeds 32 bits\") */\n  tag_63\n    /* \"FD-SBT-003.sol\":5377:5389  block.number */\n  number\n    /* \"FD-SBT-003.sol\":5370:5427  safe32(block.number, \"erc: block number exceeds 32 bits\") */\n  mload(0x40)\n  dup1\n  0x60\n  add\n  0x40\n  mstore\n  dup1\n  0x21\n  dup2\n  mstore\n  0x20\n  add\n  data_d207dafab44f9f11909c507995336bca10e93ce5c974e02263eee445d7833e2e\n  0x21\n  swap2\n  codecopy\n    /* \"FD-SBT-003.sol\":5370:5376  safe32 */\n  tag_64\n    /* \"FD-SBT-003.sol\":5370:5427  safe32(block.number, \"erc: block number exceeds 32 bits\") */\n  jump\t// in\ntag_63:\n    /* \"FD-SBT-003.sol\":5349:5427  uint32 blockNumber = safe32(block.number, \"erc: block number exceeds 32 bits\") */\n  swap1\n  pop\n    /* \"FD-SBT-003.sol\":5463:5464  0 */\n  0x00\n    /* \"FD-SBT-003.sol\":5448:5460  nCheckpoints */\n  dup5\n    /* \"FD-SBT-003.sol\":5448:5464  nCheckpoints > 0 */\n  0xffffffff\n  and\n  gt\n    /* \"FD-SBT-003.sol\":5448:5533  nCheckpoints > 0 && checkpoints[delegatee][nCheckpoints - 1].fromBlock == blockNumber */\n  dup1\n  iszero\n  tag_65\n  jumpi\n  pop\n  sub(shl(0xa0, 0x01), 0x01)\n    /* \"FD-SBT-003.sol\":5468:5490  checkpoints[delegatee] */\n  dup6\n  and\n  0x00\n  swap1\n  dup2\n  mstore\n    /* \"FD-SBT-003.sol\":5468:5479  checkpoints */\n  0x0a\n    /* \"FD-SBT-003.sol\":5468:5490  checkpoints[delegatee] */\n  0x20\n  mstore\n  0x40\n  dup2\n  keccak256\n    /* \"FD-SBT-003.sol\":5468:5533  checkpoints[delegatee][nCheckpoints - 1].fromBlock == blockNumber */\n  0xffffffff\n  dup4\n  and\n  swap2\n    /* \"FD-SBT-003.sol\":5491:5507  nCheckpoints - 1 */\n  tag_66\n    /* \"FD-SBT-003.sol\":5506:5507  1 */\n  0x01\n    /* \"FD-SBT-003.sol\":5491:5503  nCheckpoints */\n  dup9\n    /* \"FD-SBT-003.sol\":5491:5507  nCheckpoints - 1 */\n  tag_50\n  jump\t// in\ntag_66:\n    /* \"FD-SBT-003.sol\":5468:5508  checkpoints[delegatee][nCheckpoints - 1] */\n  0xffffffff\n  swap1\n  dup2\n  and\n  dup3\n  mstore\n  0x20\n  dup3\n  add\n  swap3\n  swap1\n  swap3\n  mstore\n  0x40\n  add\n  0x00\n  keccak256\n    /* \"FD-SBT-003.sol\":5468:5518  checkpoints[delegatee][nCheckpoints - 1].fromBlock */\n  sload\n  and\n    /* \"FD-SBT-003.sol\":5468:5533  checkpoints[delegatee][nCheckpoints - 1].fromBlock == blockNumber */\n  eq\n    /* \"FD-SBT-003.sol\":5448:5533  nCheckpoints > 0 && checkpoints[delegatee][nCheckpoints - 1].fromBlock == blockNumber */\ntag_65:\n    /* \"FD-SBT-003.sol\":5444:5783  if (nCheckpoints > 0 && checkpoints[delegatee][nCheckpoints - 1].fromBlock == blockNumber) {... */\n  iszero\n  tag_67\n  jumpi\n  sub(shl(0xa0, 0x01), 0x01)\n    /* \"FD-SBT-003.sol\":5550:5572  checkpoints[delegatee] */\n  dup6\n  and\n  0x00\n  swap1\n  dup2\n  mstore\n    /* \"FD-SBT-003.sol\":5550:5561  checkpoints */\n  0x0a\n    /* \"FD-SBT-003.sol\":5550:5572  checkpoints[delegatee] */\n  0x20\n  mstore\n  0x40\n  dup2\n  keccak256\n    /* \"FD-SBT-003.sol\":5599:5607  newVotes */\n  dup4\n  swap2\n    /* \"FD-SBT-003.sol\":5573:5589  nCheckpoints - 1 */\n  tag_68\n    /* \"FD-SBT-003.sol\":5588:5589  1 */\n  0x01\n    /* \"FD-SBT-003.sol\":5573:5585  nCheckpoints */\n  dup9\n    /* \"FD-SBT-003.sol\":5573:5589  nCheckpoints - 1 */\n  tag_50\n  jump\t// in\ntag_68:\n    /* \"FD-SBT-003.sol\":5550:5590  checkpoints[delegatee][nCheckpoints - 1] */\n  0xffffffff\n  and\n  dup2\n  mstore\n  0x20\n  dup2\n  add\n  swap2\n  swap1\n  swap2\n  mstore\n  0x40\n  add\n  0x00\n  keccak256\n    /* \"FD-SBT-003.sol\":5550:5607  checkpoints[delegatee][nCheckpoints - 1].votes = newVotes */\n  dup1\n  sload\n  sub(shl(0x60, 0x01), 0x01)\n  swap3\n  swap1\n  swap3\n  and\n  0x0100000000\n  mul\n  not(sub(shl(0x80, 0x01), shl(0x20, 0x01)))\n  swap1\n  swap3\n  and\n  swap2\n  swap1\n  swap2\n  or\n  swap1\n  sstore\n    /* \"FD-SBT-003.sol\":5444:5783  if (nCheckpoints > 0 && checkpoints[delegatee][nCheckpoints - 1].fromBlock == blockNumber) {... */\n  jump(tag_69)\ntag_67:\n    /* \"FD-SBT-003.sol\":5679:5712  Checkpoint(blockNumber, newVotes) */\n  0x40\n  dup1\n  mload\n  dup1\n  dup3\n  add\n  dup3\n  mstore\n  0xffffffff\n  dup1\n  dup5\n  and\n  dup3\n  mstore\n  sub(shl(0x60, 0x01), 0x01)\n  dup1\n  dup7\n  and\n  0x20\n  dup1\n  dup6\n  add\n  swap2\n  dup3\n  mstore\n  sub(shl(0xa0, 0x01), 0x01)\n    /* \"FD-SBT-003.sol\":5640:5662  checkpoints[delegatee] */\n  dup12\n  and\n  0x00\n  swap1\n  dup2\n  mstore\n    /* \"FD-SBT-003.sol\":5640:5651  checkpoints */\n  0x0a\n    /* \"FD-SBT-003.sol\":5640:5662  checkpoints[delegatee] */\n  dup3\n  mstore\n  dup7\n  dup2\n  keccak256\n    /* \"FD-SBT-003.sol\":5640:5676  checkpoints[delegatee][nCheckpoints] */\n  dup12\n  dup7\n  and\n  dup3\n  mstore\n  swap1\n  swap2\n  mstore\n  swap5\n  swap1\n  swap5\n  keccak256\n    /* \"FD-SBT-003.sol\":5640:5712  checkpoints[delegatee][nCheckpoints] = Checkpoint(blockNumber, newVotes) */\n  swap3\n  mload\n  dup4\n  sload\n  swap5\n  mload\n  swap1\n  swap2\n  and\n  0x0100000000\n  mul\n  not(sub(shl(0x80, 0x01), 0x01))\n  swap1\n  swap5\n  and\n  swap2\n  and\n  or\n  swap2\n  swap1\n  swap2\n  or\n  swap1\n  sstore\n    /* \"FD-SBT-003.sol\":5755:5771  nCheckpoints + 1 */\n  tag_70\n    /* \"FD-SBT-003.sol\":5663:5675  nCheckpoints */\n  dup5\n    /* \"FD-SBT-003.sol\":5640:5712  checkpoints[delegatee][nCheckpoints] = Checkpoint(blockNumber, newVotes) */\n  0x01\n    /* \"FD-SBT-003.sol\":5755:5771  nCheckpoints + 1 */\n  tag_71\n  jump\t// in\ntag_70:\n  sub(shl(0xa0, 0x01), 0x01)\n    /* \"FD-SBT-003.sol\":5727:5752  numCheckpoints[delegatee] */\n  dup7\n  and\n  0x00\n  swap1\n  dup2\n  mstore\n    /* \"FD-SBT-003.sol\":5727:5741  numCheckpoints */\n  0x0b\n    /* \"FD-SBT-003.sol\":5727:5752  numCheckpoints[delegatee] */\n  0x20\n  mstore\n  0x40\n  swap1\n  keccak256\n    /* \"FD-SBT-003.sol\":5727:5771  numCheckpoints[delegatee] = nCheckpoints + 1 */\n  dup1\n  sload\n  not(0xffffffff)\n  and\n  0xffffffff\n  swap3\n  swap1\n  swap3\n  and\n  swap2\n  swap1\n  swap2\n  or\n  swap1\n  sstore\n    /* \"FD-SBT-003.sol\":5444:5783  if (nCheckpoints > 0 && checkpoints[delegatee][nCheckpoints - 1].fromBlock == blockNumber) {... */\ntag_69:\n    /* \"FD-SBT-003.sol\":5804:5855  DelegateVotesChanged(delegatee, oldVotes, newVotes) */\n  0x40\n  dup1\n  mload\n  sub(shl(0x60, 0x01), 0x01)\n    /* \"#utility.yul\":6453:6468   */\n  dup1\n  dup7\n  and\n    /* \"#utility.yul\":6435:6469   */\n  dup3\n  mstore\n    /* \"#utility.yul\":6505:6520   */\n  dup5\n  and\n    /* \"#utility.yul\":6500:6502   */\n  0x20\n    /* \"#utility.yul\":6485:6503   */\n  dup3\n  add\n    /* \"#utility.yul\":6478:6521   */\n  mstore\n  sub(shl(0xa0, 0x01), 0x01)\n    /* \"FD-SBT-003.sol\":5804:5855  DelegateVotesChanged(delegatee, oldVotes, newVotes) */\n  dup8\n  and\n  swap2\n  0xdec2bacdd2f05b59de34da9b523dff8be42e5e38e818c82fdb0bae774387a724\n  swap2\n    /* \"#utility.yul\":6371:6389   */\n  add\n    /* \"FD-SBT-003.sol\":5804:5855  DelegateVotesChanged(delegatee, oldVotes, newVotes) */\n  mload(0x40)\n  dup1\n  swap2\n  sub\n  swap1\n  log2\n    /* \"FD-SBT-003.sol\":5338:5863  {... */\n  pop\n    /* \"FD-SBT-003.sol\":5229:5863  function _writeCheckpoint(address delegatee, uint32 nCheckpoints, uint96 oldVotes, uint96 newVotes) internal {... */\n  pop\n  pop\n  pop\n  pop\n  jump\t// out\n    /* \"FD-SBT-003.sol\":5869:6030  function safe32(uint n, string memory errorMessage) internal pure returns (uint32) {... */\ntag_64:\n    /* \"FD-SBT-003.sol\":5944:5950  uint32 */\n  0x00\n    /* \"FD-SBT-003.sol\":5982:5994  errorMessage */\n  dup2\n    /* \"FD-SBT-003.sol\":5975:5980  2**32 */\n  0x0100000000\n    /* \"FD-SBT-003.sol\":5971:5980  n < 2**32 */\n  dup5\n  lt\n    /* \"FD-SBT-003.sol\":5963:5995  require(n < 2**32, errorMessage) */\n  tag_43\n  jumpi\n  mload(0x40)\n  shl(0xe5, 0x461bcd)\n  dup2\n  mstore\n  0x04\n  add\n  tag_32\n  swap2\n  swap1\n  tag_45\n  jump\t// in\n    /* \"#utility.yul\":14:191   */\ntag_77:\n    /* \"#utility.yul\":93:106   */\n  dup1\n  mload\n  sub(shl(0xa0, 0x01), 0x01)\n    /* \"#utility.yul\":135:166   */\n  dup2\n  and\n    /* \"#utility.yul\":125:167   */\n  dup2\n  eq\n    /* \"#utility.yul\":115:185   */\n  tag_87\n  jumpi\n    /* \"#utility.yul\":181:182   */\n  0x00\n    /* \"#utility.yul\":178:179   */\n  dup1\n    /* \"#utility.yul\":171:183   */\n  revert\n    /* \"#utility.yul\":115:185   */\ntag_87:\n    /* \"#utility.yul\":14:191   */\n  swap2\n  swap1\n  pop\n  jump\t// out\n    /* \"#utility.yul\":196:323   */\ntag_78:\n    /* \"#utility.yul\":257:267   */\n  0x4e487b71\n    /* \"#utility.yul\":252:255   */\n  0xe0\n    /* \"#utility.yul\":248:268   */\n  shl\n    /* \"#utility.yul\":245:246   */\n  0x00\n    /* \"#utility.yul\":238:269   */\n  mstore\n    /* \"#utility.yul\":288:292   */\n  0x41\n    /* \"#utility.yul\":285:286   */\n  0x04\n    /* \"#utility.yul\":278:293   */\n  mstore\n    /* \"#utility.yul\":312:316   */\n  0x24\n    /* \"#utility.yul\":309:310   */\n  0x00\n    /* \"#utility.yul\":302:317   */\n  revert\n    /* \"#utility.yul\":328:578   */\ntag_79:\n    /* \"#utility.yul\":413:414   */\n  0x00\n    /* \"#utility.yul\":423:536   */\ntag_90:\n    /* \"#utility.yul\":437:443   */\n  dup4\n    /* \"#utility.yul\":434:435   */\n  dup2\n    /* \"#utility.yul\":431:444   */\n  lt\n    /* \"#utility.yul\":423:536   */\n  iszero\n  tag_92\n  jumpi\n    /* \"#utility.yul\":513:524   */\n  dup2\n  dup2\n  add\n    /* \"#utility.yul\":507:525   */\n  mload\n    /* \"#utility.yul\":494:505   */\n  dup4\n  dup3\n  add\n    /* \"#utility.yul\":487:526   */\n  mstore\n    /* \"#utility.yul\":459:461   */\n  0x20\n    /* \"#utility.yul\":452:462   */\n  add\n    /* \"#utility.yul\":423:536   */\n  jump(tag_90)\ntag_92:\n  pop\n  pop\n    /* \"#utility.yul\":570:571   */\n  0x00\n    /* \"#utility.yul\":552:568   */\n  swap2\n  add\n    /* \"#utility.yul\":545:572   */\n  mstore\n    /* \"#utility.yul\":328:578   */\n  jump\t// out\n    /* \"#utility.yul\":583:1712   */\ntag_3:\n    /* \"#utility.yul\":690:696   */\n  0x00\n    /* \"#utility.yul\":698:704   */\n  dup1\n    /* \"#utility.yul\":706:712   */\n  0x00\n    /* \"#utility.yul\":714:720   */\n  dup1\n    /* \"#utility.yul\":767:770   */\n  0x80\n    /* \"#utility.yul\":755:764   */\n  dup6\n    /* \"#utility.yul\":746:753   */\n  dup8\n    /* \"#utility.yul\":742:765   */\n  sub\n    /* \"#utility.yul\":738:771   */\n  slt\n    /* \"#utility.yul\":735:788   */\n  iszero\n  tag_94\n  jumpi\n    /* \"#utility.yul\":784:785   */\n  0x00\n    /* \"#utility.yul\":781:782   */\n  dup1\n    /* \"#utility.yul\":774:786   */\n  revert\n    /* \"#utility.yul\":735:788   */\ntag_94:\n    /* \"#utility.yul\":807:847   */\n  tag_95\n    /* \"#utility.yul\":837:846   */\n  dup6\n    /* \"#utility.yul\":807:847   */\n  tag_77\n  jump\t// in\ntag_95:\n    /* \"#utility.yul\":797:847   */\n  swap4\n  pop\n    /* \"#utility.yul\":866:915   */\n  tag_96\n    /* \"#utility.yul\":911:913   */\n  0x20\n    /* \"#utility.yul\":900:909   */\n  dup7\n    /* \"#utility.yul\":896:914   */\n  add\n    /* \"#utility.yul\":866:915   */\n  tag_77\n  jump\t// in\ntag_96:\n    /* \"#utility.yul\":955:957   */\n  0x40\n    /* \"#utility.yul\":940:958   */\n  dup7\n  add\n    /* \"#utility.yul\":934:959   */\n  mload\n    /* \"#utility.yul\":1003:1005   */\n  0x60\n    /* \"#utility.yul\":988:1006   */\n  dup8\n  add\n    /* \"#utility.yul\":982:1007   */\n  mload\n    /* \"#utility.yul\":856:915   */\n  swap2\n  swap5\n  pop\n    /* \"#utility.yul\":934:959   */\n  swap3\n  pop\n  sub(shl(0x40, 0x01), 0x01)\n    /* \"#utility.yul\":1056:1070   */\n  dup1\n  dup3\n  gt\n    /* \"#utility.yul\":1053:1087   */\n  iszero\n  tag_97\n  jumpi\n    /* \"#utility.yul\":1083:1084   */\n  0x00\n    /* \"#utility.yul\":1080:1081   */\n  dup1\n    /* \"#utility.yul\":1073:1085   */\n  revert\n    /* \"#utility.yul\":1053:1087   */\ntag_97:\n    /* \"#utility.yul\":1121:1127   */\n  dup2\n    /* \"#utility.yul\":1110:1119   */\n  dup8\n    /* \"#utility.yul\":1106:1128   */\n  add\n    /* \"#utility.yul\":1096:1128   */\n  swap2\n  pop\n    /* \"#utility.yul\":1166:1173   */\n  dup8\n    /* \"#utility.yul\":1159:1163   */\n  0x1f\n    /* \"#utility.yul\":1155:1157   */\n  dup4\n    /* \"#utility.yul\":1151:1164   */\n  add\n    /* \"#utility.yul\":1147:1174   */\n  slt\n    /* \"#utility.yul\":1137:1192   */\n  tag_98\n  jumpi\n    /* \"#utility.yul\":1188:1189   */\n  0x00\n    /* \"#utility.yul\":1185:1186   */\n  dup1\n    /* \"#utility.yul\":1178:1190   */\n  revert\n    /* \"#utility.yul\":1137:1192   */\ntag_98:\n    /* \"#utility.yul\":1217:1219   */\n  dup2\n    /* \"#utility.yul\":1211:1220   */\n  mload\n    /* \"#utility.yul\":1239:1241   */\n  dup2\n    /* \"#utility.yul\":1235:1237   */\n  dup2\n    /* \"#utility.yul\":1232:1242   */\n  gt\n    /* \"#utility.yul\":1229:1265   */\n  iszero\n  tag_100\n  jumpi\n    /* \"#utility.yul\":1245:1263   */\n  tag_100\n  tag_78\n  jump\t// in\ntag_100:\n    /* \"#utility.yul\":1320:1322   */\n  0x40\n    /* \"#utility.yul\":1314:1323   */\n  mload\n    /* \"#utility.yul\":1288:1290   */\n  0x1f\n    /* \"#utility.yul\":1374:1387   */\n  dup3\n  add\n  not(0x1f)\n    /* \"#utility.yul\":1370:1392   */\n  swap1\n  dup2\n  and\n    /* \"#utility.yul\":1394:1396   */\n  0x3f\n    /* \"#utility.yul\":1366:1397   */\n  add\n    /* \"#utility.yul\":1362:1402   */\n  and\n    /* \"#utility.yul\":1350:1403   */\n  dup2\n  add\n  swap1\n    /* \"#utility.yul\":1418:1436   */\n  dup4\n  dup3\n  gt\n    /* \"#utility.yul\":1438:1460   */\n  dup2\n  dup4\n  lt\n    /* \"#utility.yul\":1415:1461   */\n  or\n    /* \"#utility.yul\":1412:1484   */\n  iszero\n  tag_102\n  jumpi\n    /* \"#utility.yul\":1464:1482   */\n  tag_102\n  tag_78\n  jump\t// in\ntag_102:\n    /* \"#utility.yul\":1504:1514   */\n  dup2\n    /* \"#utility.yul\":1500:1502   */\n  0x40\n    /* \"#utility.yul\":1493:1515   */\n  mstore\n    /* \"#utility.yul\":1539:1541   */\n  dup3\n    /* \"#utility.yul\":1531:1537   */\n  dup2\n    /* \"#utility.yul\":1524:1542   */\n  mstore\n    /* \"#utility.yul\":1579:1586   */\n  dup11\n    /* \"#utility.yul\":1574:1576   */\n  0x20\n    /* \"#utility.yul\":1569:1571   */\n  dup5\n    /* \"#utility.yul\":1565:1567   */\n  dup8\n    /* \"#utility.yul\":1561:1572   */\n  add\n    /* \"#utility.yul\":1557:1577   */\n  add\n    /* \"#utility.yul\":1554:1587   */\n  gt\n    /* \"#utility.yul\":1551:1604   */\n  iszero\n  tag_103\n  jumpi\n    /* \"#utility.yul\":1600:1601   */\n  0x00\n    /* \"#utility.yul\":1597:1598   */\n  dup1\n    /* \"#utility.yul\":1590:1602   */\n  revert\n    /* \"#utility.yul\":1551:1604   */\ntag_103:\n    /* \"#utility.yul\":1613:1681   */\n  tag_104\n    /* \"#utility.yul\":1678:1680   */\n  dup4\n    /* \"#utility.yul\":1673:1675   */\n  0x20\n    /* \"#utility.yul\":1665:1671   */\n  dup4\n    /* \"#utility.yul\":1661:1676   */\n  add\n    /* \"#utility.yul\":1656:1658   */\n  0x20\n    /* \"#utility.yul\":1652:1654   */\n  dup9\n    /* \"#utility.yul\":1648:1659   */\n  add\n    /* \"#utility.yul\":1613:1681   */\n  tag_79\n  jump\t// in\ntag_104:\n    /* \"#utility.yul\":583:1712   */\n  swap8\n  swap11\n  swap7\n  swap10\n  pop\n  swap5\n  swap8\n  pop\n  pop\n  pop\n  pop\n  pop\n  pop\n  jump\t// out\n    /* \"#utility.yul\":1717:2097   */\ntag_80:\n    /* \"#utility.yul\":1796:1797   */\n  0x01\n    /* \"#utility.yul\":1792:1804   */\n  dup2\n  dup2\n  shr\n  swap1\n    /* \"#utility.yul\":1839:1851   */\n  dup3\n  and\n  dup1\n    /* \"#utility.yul\":1860:1921   */\n  tag_106\n  jumpi\n    /* \"#utility.yul\":1914:1918   */\n  0x7f\n    /* \"#utility.yul\":1906:1912   */\n  dup3\n    /* \"#utility.yul\":1902:1919   */\n  and\n    /* \"#utility.yul\":1892:1919   */\n  swap2\n  pop\n    /* \"#utility.yul\":1860:1921   */\ntag_106:\n    /* \"#utility.yul\":1967:1969   */\n  0x20\n    /* \"#utility.yul\":1959:1965   */\n  dup3\n    /* \"#utility.yul\":1956:1970   */\n  lt\n    /* \"#utility.yul\":1936:1954   */\n  dup2\n    /* \"#utility.yul\":1933:1971   */\n  sub\n    /* \"#utility.yul\":1930:2091   */\n  tag_107\n  jumpi\n    /* \"#utility.yul\":2013:2023   */\n  0x4e487b71\n    /* \"#utility.yul\":2008:2011   */\n  0xe0\n    /* \"#utility.yul\":2004:2024   */\n  shl\n    /* \"#utility.yul\":2001:2002   */\n  0x00\n    /* \"#utility.yul\":1994:2025   */\n  mstore\n    /* \"#utility.yul\":2048:2052   */\n  0x22\n    /* \"#utility.yul\":2045:2046   */\n  0x04\n    /* \"#utility.yul\":2038:2053   */\n  mstore\n    /* \"#utility.yul\":2076:2080   */\n  0x24\n    /* \"#utility.yul\":2073:2074   */\n  0x00\n    /* \"#utility.yul\":2066:2081   */\n  revert\n    /* \"#utility.yul\":1930:2091   */\ntag_107:\n  pop\n    /* \"#utility.yul\":1717:2097   */\n  swap2\n  swap1\n  pop\n  jump\t// out\n    /* \"#utility.yul\":2228:2773   */\ntag_82:\n    /* \"#utility.yul\":2330:2332   */\n  0x1f\n    /* \"#utility.yul\":2325:2328   */\n  dup3\n    /* \"#utility.yul\":2322:2333   */\n  gt\n    /* \"#utility.yul\":2319:2767   */\n  iszero\n  tag_35\n  jumpi\n    /* \"#utility.yul\":2366:2367   */\n  0x00\n    /* \"#utility.yul\":2391:2396   */\n  dup2\n    /* \"#utility.yul\":2387:2389   */\n  dup2\n    /* \"#utility.yul\":2380:2397   */\n  mstore\n    /* \"#utility.yul\":2436:2440   */\n  0x20\n    /* \"#utility.yul\":2432:2434   */\n  dup2\n    /* \"#utility.yul\":2422:2441   */\n  keccak256\n    /* \"#utility.yul\":2506:2508   */\n  0x1f\n    /* \"#utility.yul\":2494:2504   */\n  dup6\n    /* \"#utility.yul\":2490:2509   */\n  add\n    /* \"#utility.yul\":2487:2488   */\n  0x05\n    /* \"#utility.yul\":2483:2510   */\n  shr\n    /* \"#utility.yul\":2477:2481   */\n  dup2\n    /* \"#utility.yul\":2473:2511   */\n  add\n    /* \"#utility.yul\":2542:2546   */\n  0x20\n    /* \"#utility.yul\":2530:2540   */\n  dup7\n    /* \"#utility.yul\":2527:2547   */\n  lt\n    /* \"#utility.yul\":2524:2571   */\n  iszero\n  tag_111\n  jumpi\n  pop\n    /* \"#utility.yul\":2565:2569   */\n  dup1\n    /* \"#utility.yul\":2524:2571   */\ntag_111:\n    /* \"#utility.yul\":2620:2622   */\n  0x1f\n    /* \"#utility.yul\":2615:2618   */\n  dup6\n    /* \"#utility.yul\":2611:2623   */\n  add\n    /* \"#utility.yul\":2608:2609   */\n  0x05\n    /* \"#utility.yul\":2604:2624   */\n  shr\n    /* \"#utility.yul\":2598:2602   */\n  dup3\n    /* \"#utility.yul\":2594:2625   */\n  add\n    /* \"#utility.yul\":2584:2625   */\n  swap2\n  pop\n    /* \"#utility.yul\":2675:2757   */\ntag_112:\n    /* \"#utility.yul\":2693:2695   */\n  dup2\n    /* \"#utility.yul\":2686:2691   */\n  dup2\n    /* \"#utility.yul\":2683:2696   */\n  lt\n    /* \"#utility.yul\":2675:2757   */\n  iszero\n  tag_114\n  jumpi\n    /* \"#utility.yul\":2738:2755   */\n  dup3\n  dup2\n  sstore\n    /* \"#utility.yul\":2719:2720   */\n  0x01\n    /* \"#utility.yul\":2708:2721   */\n  add\n    /* \"#utility.yul\":2675:2757   */\n  jump(tag_112)\ntag_114:\n    /* \"#utility.yul\":2679:2682   */\n  pop\n  pop\n  pop\n    /* \"#utility.yul\":2228:2773   */\n  pop\n  pop\n  pop\n  jump\t// out\n    /* \"#utility.yul\":2949:4301   */\ntag_9:\n    /* \"#utility.yul\":3069:3079   */\n  dup2\n  mload\n  sub(shl(0x40, 0x01), 0x01)\n    /* \"#utility.yul\":3091:3121   */\n  dup2\n  gt\n    /* \"#utility.yul\":3088:3144   */\n  iszero\n  tag_118\n  jumpi\n    /* \"#utility.yul\":3124:3142   */\n  tag_118\n  tag_78\n  jump\t// in\ntag_118:\n    /* \"#utility.yul\":3153:3250   */\n  tag_119\n    /* \"#utility.yul\":3243:3249   */\n  dup2\n    /* \"#utility.yul\":3203:3241   */\n  tag_120\n    /* \"#utility.yul\":3235:3239   */\n  dup5\n    /* \"#utility.yul\":3229:3240   */\n  sload\n    /* \"#utility.yul\":3203:3241   */\n  tag_80\n  jump\t// in\ntag_120:\n    /* \"#utility.yul\":3197:3201   */\n  dup5\n    /* \"#utility.yul\":3153:3250   */\n  tag_82\n  jump\t// in\ntag_119:\n    /* \"#utility.yul\":3305:3309   */\n  0x20\n  dup1\n    /* \"#utility.yul\":3369:3371   */\n  0x1f\n    /* \"#utility.yul\":3358:3372   */\n  dup4\n  gt\n    /* \"#utility.yul\":3386:3387   */\n  0x01\n    /* \"#utility.yul\":3381:4044   */\n  dup2\n  eq\n  tag_122\n  jumpi\n    /* \"#utility.yul\":4088:4089   */\n  0x00\n    /* \"#utility.yul\":4105:4111   */\n  dup5\n    /* \"#utility.yul\":4102:4191   */\n  iszero\n  tag_123\n  jumpi\n  pop\n    /* \"#utility.yul\":4157:4176   */\n  dup6\n  dup4\n  add\n    /* \"#utility.yul\":4151:4177   */\n  mload\n    /* \"#utility.yul\":4102:4191   */\ntag_123:\n  not(0x00)\n    /* \"#utility.yul\":2906:2907   */\n  0x03\n    /* \"#utility.yul\":2902:2913   */\n  dup7\n  swap1\n  shl\n    /* \"#utility.yul\":2898:2922   */\n  shr\n    /* \"#utility.yul\":2894:2923   */\n  not\n    /* \"#utility.yul\":2884:2924   */\n  and\n    /* \"#utility.yul\":2930:2931   */\n  0x01\n    /* \"#utility.yul\":2926:2937   */\n  dup6\n  swap1\n  shl\n    /* \"#utility.yul\":2881:2938   */\n  or\n    /* \"#utility.yul\":4204:4285   */\n  dup6\n  sstore\n    /* \"#utility.yul\":3351:4295   */\n  jump(tag_114)\n    /* \"#utility.yul\":3381:4044   */\ntag_122:\n    /* \"#utility.yul\":2175:2176   */\n  0x00\n    /* \"#utility.yul\":2168:2182   */\n  dup6\n  dup2\n  mstore\n    /* \"#utility.yul\":2212:2216   */\n  0x20\n    /* \"#utility.yul\":2199:2217   */\n  dup2\n  keccak256\n  not(0x1f)\n    /* \"#utility.yul\":3417:3437   */\n  dup7\n  and\n  swap2\n    /* \"#utility.yul\":3535:3771   */\ntag_126:\n    /* \"#utility.yul\":3549:3556   */\n  dup3\n    /* \"#utility.yul\":3546:3547   */\n  dup2\n    /* \"#utility.yul\":3543:3557   */\n  lt\n    /* \"#utility.yul\":3535:3771   */\n  iszero\n  tag_128\n  jumpi\n    /* \"#utility.yul\":3638:3657   */\n  dup9\n  dup7\n  add\n    /* \"#utility.yul\":3632:3658   */\n  mload\n    /* \"#utility.yul\":3617:3659   */\n  dup3\n  sstore\n    /* \"#utility.yul\":3730:3757   */\n  swap5\n  dup5\n  add\n  swap5\n    /* \"#utility.yul\":3698:3699   */\n  0x01\n    /* \"#utility.yul\":3686:3700   */\n  swap1\n  swap2\n  add\n  swap1\n    /* \"#utility.yul\":3565:3584   */\n  dup5\n  add\n    /* \"#utility.yul\":3535:3771   */\n  jump(tag_126)\ntag_128:\n    /* \"#utility.yul\":3539:3542   */\n  pop\n    /* \"#utility.yul\":3799:3805   */\n  dup6\n    /* \"#utility.yul\":3790:3797   */\n  dup3\n    /* \"#utility.yul\":3787:3806   */\n  lt\n    /* \"#utility.yul\":3784:3985   */\n  iszero\n  tag_129\n  jumpi\n    /* \"#utility.yul\":3860:3879   */\n  dup8\n  dup6\n  add\n    /* \"#utility.yul\":3854:3880   */\n  mload\n  not(0x00)\n    /* \"#utility.yul\":3943:3944   */\n  0x03\n    /* \"#utility.yul\":3939:3953   */\n  dup9\n  swap1\n  shl\n    /* \"#utility.yul\":3955:3958   */\n  0xf8\n    /* \"#utility.yul\":3935:3959   */\n  and\n    /* \"#utility.yul\":3931:3968   */\n  shr\n    /* \"#utility.yul\":3927:3969   */\n  not\n    /* \"#utility.yul\":3912:3970   */\n  and\n    /* \"#utility.yul\":3897:3971   */\n  dup2\n  sstore\n    /* \"#utility.yul\":3784:3985   */\ntag_129:\n  pop\n  pop\n  pop\n  pop\n  pop\n    /* \"#utility.yul\":4031:4032   */\n  0x01\n    /* \"#utility.yul\":4015:4029   */\n  swap1\n  dup2\n  shl\n    /* \"#utility.yul\":4011:4033   */\n  add\n    /* \"#utility.yul\":3998:4034   */\n  swap1\n  sstore\n  pop\n    /* \"#utility.yul\":2949:4301   */\n  jump\t// out\n    /* \"#utility.yul\":4306:4433   */\ntag_84:\n    /* \"#utility.yul\":4367:4377   */\n  0x4e487b71\n    /* \"#utility.yul\":4362:4365   */\n  0xe0\n    /* \"#utility.yul\":4358:4378   */\n  shl\n    /* \"#utility.yul\":4355:4356   */\n  0x00\n    /* \"#utility.yul\":4348:4379   */\n  mstore\n    /* \"#utility.yul\":4398:4402   */\n  0x11\n    /* \"#utility.yul\":4395:4396   */\n  0x04\n    /* \"#utility.yul\":4388:4403   */\n  mstore\n    /* \"#utility.yul\":4422:4426   */\n  0x24\n    /* \"#utility.yul\":4419:4420   */\n  0x00\n    /* \"#utility.yul\":4412:4427   */\n  revert\n    /* \"#utility.yul\":4438:4606   */\ntag_20:\n    /* \"#utility.yul\":4511:4520   */\n  dup1\n  dup3\n  mul\n    /* \"#utility.yul\":4542:4551   */\n  dup2\n  iszero\n    /* \"#utility.yul\":4559:4574   */\n  dup3\n  dup3\n  div\n    /* \"#utility.yul\":4553:4575   */\n  dup5\n  eq\n    /* \"#utility.yul\":4539:4576   */\n  or\n    /* \"#utility.yul\":4529:4600   */\n  tag_42\n  jumpi\n    /* \"#utility.yul\":4580:4598   */\n  tag_42\n  tag_84\n  jump\t// in\n    /* \"#utility.yul\":4971:5096   */\ntag_37:\n    /* \"#utility.yul\":5036:5045   */\n  dup1\n  dup3\n  add\n    /* \"#utility.yul\":5057:5067   */\n  dup1\n  dup3\n  gt\n    /* \"#utility.yul\":5054:5090   */\n  iszero\n  tag_42\n  jumpi\n    /* \"#utility.yul\":5070:5088   */\n  tag_42\n  tag_84\n  jump\t// in\n    /* \"#utility.yul\":5283:5679   */\ntag_45:\n    /* \"#utility.yul\":5432:5434   */\n  0x20\n    /* \"#utility.yul\":5421:5430   */\n  dup2\n    /* \"#utility.yul\":5414:5435   */\n  mstore\n    /* \"#utility.yul\":5395:5399   */\n  0x00\n    /* \"#utility.yul\":5464:5470   */\n  dup3\n    /* \"#utility.yul\":5458:5471   */\n  mload\n    /* \"#utility.yul\":5507:5513   */\n  dup1\n    /* \"#utility.yul\":5502:5504   */\n  0x20\n    /* \"#utility.yul\":5491:5500   */\n  dup5\n    /* \"#utility.yul\":5487:5505   */\n  add\n    /* \"#utility.yul\":5480:5514   */\n  mstore\n    /* \"#utility.yul\":5523:5602   */\n  tag_140\n    /* \"#utility.yul\":5595:5601   */\n  dup2\n    /* \"#utility.yul\":5590:5592   */\n  0x40\n    /* \"#utility.yul\":5579:5588   */\n  dup6\n    /* \"#utility.yul\":5575:5593   */\n  add\n    /* \"#utility.yul\":5570:5572   */\n  0x20\n    /* \"#utility.yul\":5562:5568   */\n  dup8\n    /* \"#utility.yul\":5558:5573   */\n  add\n    /* \"#utility.yul\":5523:5602   */\n  tag_79\n  jump\t// in\ntag_140:\n    /* \"#utility.yul\":5663:5665   */\n  0x1f\n    /* \"#utility.yul\":5642:5657   */\n  add\n  not(0x1f)\n    /* \"#utility.yul\":5638:5667   */\n  and\n    /* \"#utility.yul\":5623:5668   */\n  swap2\n  swap1\n  swap2\n  add\n    /* \"#utility.yul\":5670:5672   */\n  0x40\n    /* \"#utility.yul\":5619:5673   */\n  add\n  swap3\n    /* \"#utility.yul\":5283:5679   */\n  swap2\n  pop\n  pop\n  jump\t// out\n    /* \"#utility.yul\":5684:5859   */\ntag_50:\n    /* \"#utility.yul\":5752:5762   */\n  0xffffffff\n    /* \"#utility.yul\":5795:5805   */\n  dup3\n  dup2\n  and\n    /* \"#utility.yul\":5783:5793   */\n  dup3\n  dup3\n  and\n    /* \"#utility.yul\":5779:5806   */\n  sub\n  swap1\n    /* \"#utility.yul\":5818:5830   */\n  dup1\n  dup3\n  gt\n    /* \"#utility.yul\":5815:5853   */\n  iszero\n  tag_143\n  jumpi\n    /* \"#utility.yul\":5833:5851   */\n  tag_143\n  tag_84\n  jump\t// in\ntag_143:\n    /* \"#utility.yul\":5815:5853   */\n  pop\n    /* \"#utility.yul\":5684:5859   */\n  swap3\n  swap2\n  pop\n  pop\n  jump\t// out\n    /* \"#utility.yul\":5864:6044   */\ntag_59:\n  sub(shl(0x60, 0x01), 0x01)\n    /* \"#utility.yul\":5969:5979   */\n  dup2\n  dup2\n  and\n    /* \"#utility.yul\":5981:5991   */\n  dup4\n  dup3\n  and\n    /* \"#utility.yul\":5965:5992   */\n  add\n  swap1\n    /* \"#utility.yul\":6004:6015   */\n  dup1\n  dup3\n  gt\n    /* \"#utility.yul\":6001:6038   */\n  iszero\n  tag_143\n  jumpi\n    /* \"#utility.yul\":6018:6036   */\n  tag_143\n  tag_84\n  jump\t// in\n    /* \"#utility.yul\":6049:6221   */\ntag_71:\n    /* \"#utility.yul\":6116:6126   */\n  0xffffffff\n    /* \"#utility.yul\":6146:6156   */\n  dup2\n  dup2\n  and\n    /* \"#utility.yul\":6158:6168   */\n  dup4\n  dup3\n  and\n    /* \"#utility.yul\":6142:6169   */\n  add\n  swap1\n    /* \"#utility.yul\":6181:6192   */\n  dup1\n  dup3\n  gt\n    /* \"#utility.yul\":6178:6215   */\n  iszero\n  tag_143\n  jumpi\n    /* \"#utility.yul\":6195:6213   */\n  tag_143\n  tag_84\n  jump\t// in\n    /* \"#utility.yul\":6226:6527   */\ntag_85:\n    /* \"FD-SBT-003.sol\":291:6582  contract FDSBT003 is ERC20,Ownable{... */\n  dataSize(sub_0)\n  dup1\n  dataOffset(sub_0)\n  0x00\n  codecopy\n  0x00\n  return\nstop\ndata_d207dafab44f9f11909c507995336bca10e93ce5c974e02263eee445d7833e2e 6572633a20626c6f636b206e756d62657220657863656564732033322062697473\n\nsub_0: assembly {\n        /* \"FD-SBT-003.sol\":291:6582  contract FDSBT003 is ERC20,Ownable{... */\n      mstore(0x40, 0x80)\n      callvalue\n      dup1\n      iszero\n      tag_1\n      jumpi\n      0x00\n      dup1\n      revert\n    tag_1:\n      pop\n      jumpi(tag_2, lt(calldatasize, 0x04))\n      shr(0xe0, calldataload(0x00))\n      dup1\n      0x782d6fe1\n      gt\n      tag_30\n      jumpi\n      dup1\n      0xb4b5ea57\n      gt\n      tag_31\n      jumpi\n      dup1\n      0xf1127ed8\n      gt\n      tag_32\n      jumpi\n      dup1\n      0xf1127ed8\n      eq\n      tag_26\n      jumpi\n      dup1\n      0xf2fde38b\n      eq\n      tag_27\n      jumpi\n      dup1\n      0xf851a440\n      eq\n      tag_28\n      jumpi\n      dup1\n      0xfb7f21eb\n      eq\n      tag_29\n      jumpi\n      0x00\n      dup1\n      revert\n    tag_32:\n      dup1\n      0xb4b5ea57\n      eq\n      tag_23\n      jumpi\n      dup1\n      0xc0336629\n      eq\n      tag_24\n      jumpi\n      dup1\n      0xdd62ed3e\n      eq\n      tag_25\n      jumpi\n      0x00\n      dup1\n      revert\n    tag_31:\n      dup1\n      0x95d89b41\n      gt\n      tag_33\n      jumpi\n      dup1\n      0x95d89b41\n      eq\n      tag_19\n      jumpi\n      dup1\n      0x9dc29fac\n      eq\n      tag_20\n      jumpi\n      dup1\n      0xa457c2d7\n      eq\n      tag_21\n      jumpi\n      dup1\n      0xa9059cbb\n      eq\n      tag_22\n      jumpi\n      0x00\n      dup1\n      revert\n    tag_33:\n      dup1\n      0x782d6fe1\n      eq\n      tag_16\n      jumpi\n      dup1\n      0x8da5cb5b\n      eq\n      tag_17\n      jumpi\n      dup1\n      0x9090c0f2\n      eq\n      tag_18\n      jumpi\n      0x00\n      dup1\n      revert\n    tag_30:\n      dup1\n      0x23b872dd\n      gt\n      tag_34\n      jumpi\n      dup1\n      0x40c10f19\n      gt\n      tag_35\n      jumpi\n      dup1\n      0x40c10f19\n      eq\n      tag_12\n      jumpi\n      dup1\n      0x6fcfff45\n      eq\n      tag_13\n      jumpi\n      dup1\n      0x70a08231\n      eq\n      tag_14\n      jumpi\n      dup1\n      0x715018a6\n      eq\n      tag_15\n      jumpi\n      0x00\n      dup1\n      revert\n    tag_35:\n      dup1\n      0x23b872dd\n      eq\n      tag_9\n      jumpi\n      dup1\n      0x313ce567\n      eq\n      tag_10\n      jumpi\n      dup1\n      0x39509351\n      eq\n      tag_11\n      jumpi\n      0x00\n      dup1\n      revert\n    tag_34:\n      dup1\n      0x06fdde03\n      eq\n      tag_3\n      jumpi\n      dup1\n      0x07546172\n      eq\n      tag_4\n      jumpi\n      dup1\n      0x095ea7b3\n      eq\n      tag_5\n      jumpi\n      dup1\n      0x18160ddd\n      eq\n      tag_6\n      jumpi\n      dup1\n      0x1a5ef71c\n      eq\n      tag_7\n      jumpi\n      dup1\n      0x200d2ed2\n      eq\n      tag_8\n      jumpi\n    tag_2:\n      0x00\n      dup1\n      revert\n        /* \"@openzeppelin/contracts/token/ERC20/ERC20.sol\":2154:2252  function name() public view virtual override returns (string memory) {... */\n    tag_3:\n      tag_36\n      tag_37\n      jump\t// in\n    tag_36:\n      mload(0x40)\n      tag_38\n      swap2\n      swap1\n      tag_39\n      jump\t// in\n    tag_38:\n      mload(0x40)\n      dup1\n      swap2\n      sub\n      swap1\n      return\n        /* \"FD-SBT-003.sol\":509:530  address public minter */\n    tag_4:\n      sload(0x07)\n      tag_40\n      swap1\n      0x0100\n      swap1\n      div\n      sub(shl(0xa0, 0x01), 0x01)\n      and\n      dup2\n      jump\n    tag_40:\n      mload(0x40)\n      sub(shl(0xa0, 0x01), 0x01)\n        /* \"#utility.yul\":731:763   */\n      swap1\n      swap2\n      and\n        /* \"#utility.yul\":713:764   */\n      dup2\n      mstore\n        /* \"#utility.yul\":701:703   */\n      0x20\n        /* \"#utility.yul\":686:704   */\n      add\n        /* \"FD-SBT-003.sol\":509:530  address public minter */\n      tag_38\n        /* \"#utility.yul\":567:770   */\n      jump\n        /* \"@openzeppelin/contracts/token/ERC20/ERC20.sol\":4431:4628  function approve(address spender, uint256 amount) public virtual override returns (bool) {... */\n    tag_5:\n      tag_44\n      tag_45\n      calldatasize\n      0x04\n      tag_46\n      jump\t// in\n    tag_45:\n      tag_47\n      jump\t// in\n    tag_44:\n      mload(0x40)\n        /* \"#utility.yul\":1377:1391   */\n      swap1\n      iszero\n        /* \"#utility.yul\":1370:1392   */\n      iszero\n        /* \"#utility.yul\":1352:1393   */\n      dup2\n      mstore\n        /* \"#utility.yul\":1340:1342   */\n      0x20\n        /* \"#utility.yul\":1325:1343   */\n      add\n        /* \"@openzeppelin/contracts/token/ERC20/ERC20.sol\":4431:4628  function approve(address spender, uint256 amount) public virtual override returns (bool) {... */\n      tag_38\n        /* \"#utility.yul\":1212:1399   */\n      jump\n        /* \"@openzeppelin/contracts/token/ERC20/ERC20.sol\":3242:3348  function totalSupply() public view virtual override returns (uint256) {... */\n    tag_6:\n        /* \"@openzeppelin/contracts/token/ERC20/ERC20.sol\":3329:3341  _totalSupply */\n      sload(0x02)\n        /* \"@openzeppelin/contracts/token/ERC20/ERC20.sol\":3242:3348  function totalSupply() public view virtual override returns (uint256) {... */\n    tag_50:\n      mload(0x40)\n        /* \"#utility.yul\":1550:1575   */\n      swap1\n      dup2\n      mstore\n        /* \"#utility.yul\":1538:1540   */\n      0x20\n        /* \"#utility.yul\":1523:1541   */\n      add\n        /* \"@openzeppelin/contracts/token/ERC20/ERC20.sol\":3242:3348  function totalSupply() public view virtual override returns (uint256) {... */\n      tag_38\n        /* \"#utility.yul\":1404:1581   */\n      jump\n        /* \"FD-SBT-003.sol\":564:587  address public fireSoul */\n    tag_7:\n      sload(0x09)\n      tag_40\n      swap1\n      sub(shl(0xa0, 0x01), 0x01)\n      and\n      dup2\n      jump\n        /* \"FD-SBT-003.sol\":474:500  bool public status = false */\n    tag_8:\n      sload(0x07)\n      tag_44\n      swap1\n      0xff\n      and\n      dup2\n      jump\n        /* \"FD-SBT-003.sol\":2231:2672  function transferFrom(address sender, address recipient, uint256 amount) public virtual override returns (bool) {... */\n    tag_9:\n      tag_44\n      tag_2\n      calldatasize\n      0x04\n      tag_62\n      jump\t// in\n        /* \"@openzeppelin/contracts/token/ERC20/ERC20.sol\":3091:3182  function decimals() public view virtual override returns (uint8) {... */\n    tag_10:\n      mload(0x40)\n        /* \"@openzeppelin/contracts/token/ERC20/ERC20.sol\":3173:3175  18 */\n      0x12\n        /* \"#utility.yul\":2061:2097   */\n      dup2\n      mstore\n        /* \"#utility.yul\":2049:2051   */\n      0x20\n        /* \"#utility.yul\":2034:2052   */\n      add\n        /* \"@openzeppelin/contracts/token/ERC20/ERC20.sol\":3091:3182  function decimals() public view virtual override returns (uint8) {... */\n      tag_38\n        /* \"#utility.yul\":1919:2103   */\n      jump\n        /* \"@openzeppelin/contracts/token/ERC20/ERC20.sol\":5871:6105  function increaseAllowance(address spender, uint256 addedValue) public virtual returns (bool) {... */\n    tag_11:\n      tag_44\n      tag_70\n      calldatasize\n      0x04\n      tag_46\n      jump\t// in\n    tag_70:\n      tag_71\n      jump\t// in\n        /* \"FD-SBT-003.sol\":1611:1815  function mint(address account, uint256 amount) external {... */\n    tag_12:\n      tag_73\n      tag_74\n      calldatasize\n      0x04\n      tag_46\n      jump\t// in\n    tag_74:\n      tag_75\n      jump\t// in\n    tag_73:\n      stop\n        /* \"FD-SBT-003.sol\":671:720  mapping (address => uint32) public numCheckpoints */\n    tag_13:\n      tag_76\n      tag_77\n      calldatasize\n      0x04\n      tag_78\n      jump\t// in\n    tag_77:\n      mstore(0x20, 0x0b)\n      0x00\n      swap1\n      dup2\n      mstore\n      0x40\n      swap1\n      keccak256\n      sload\n      0xffffffff\n      and\n      dup2\n      jump\n    tag_76:\n      mload(0x40)\n        /* \"#utility.yul\":2473:2483   */\n      0xffffffff\n        /* \"#utility.yul\":2461:2484   */\n      swap1\n      swap2\n      and\n        /* \"#utility.yul\":2443:2485   */\n      dup2\n      mstore\n        /* \"#utility.yul\":2431:2433   */\n      0x20\n        /* \"#utility.yul\":2416:2434   */\n      add\n        /* \"FD-SBT-003.sol\":671:720  mapping (address => uint32) public numCheckpoints */\n      tag_38\n        /* \"#utility.yul\":2299:2491   */\n      jump\n        /* \"@openzeppelin/contracts/token/ERC20/ERC20.sol\":3406:3531  function balanceOf(address account) public view virtual override returns (uint256) {... */\n    tag_14:\n      tag_50\n      tag_83\n      calldatasize\n      0x04\n      tag_78\n      jump\t// in\n    tag_83:\n      sub(shl(0xa0, 0x01), 0x01)\n        /* \"@openzeppelin/contracts/token/ERC20/ERC20.sol\":3506:3524  _balances[account] */\n      and\n        /* \"@openzeppelin/contracts/token/ERC20/ERC20.sol\":3480:3487  uint256 */\n      0x00\n        /* \"@openzeppelin/contracts/token/ERC20/ERC20.sol\":3506:3524  _balances[account] */\n      swap1\n      dup2\n      mstore\n      0x20\n      dup2\n      swap1\n      mstore\n      0x40\n      swap1\n      keccak256\n      sload\n      swap1\n        /* \"@openzeppelin/contracts/token/ERC20/ERC20.sol\":3406:3531  function balanceOf(address account) public view virtual override returns (uint256) {... */\n      jump\n        /* \"@openzeppelin/contracts/access/Ownable.sol\":1831:1932  function renounceOwnership() public virtual onlyOwner {... */\n    tag_15:\n      tag_73\n      tag_87\n      jump\t// in\n        /* \"FD-SBT-003.sol\":2965:4092  function getPriorVotes(address account, uint blockNumber) public view returns (uint96) {... */\n    tag_16:\n      tag_88\n      tag_89\n      calldatasize\n      0x04\n      tag_46\n      jump\t// in\n    tag_89:\n      tag_90\n      jump\t// in\n    tag_88:\n      mload(0x40)\n      sub(shl(0x60, 0x01), 0x01)\n        /* \"#utility.yul\":2658:2697   */\n      swap1\n      swap2\n      and\n        /* \"#utility.yul\":2640:2698   */\n      dup2\n      mstore\n        /* \"#utility.yul\":2628:2630   */\n      0x20\n        /* \"#utility.yul\":2613:2631   */\n      add\n        /* \"FD-SBT-003.sol\":2965:4092  function getPriorVotes(address account, uint blockNumber) public view returns (uint96) {... */\n      tag_38\n        /* \"#utility.yul\":2496:2704   */\n      jump\n        /* \"@openzeppelin/contracts/access/Ownable.sol\":1201:1286  function owner() public view virtual returns (address) {... */\n    tag_17:\n        /* \"@openzeppelin/contracts/access/Ownable.sol\":1273:1279  _owner */\n      and(sub(shl(0xa0, 0x01), 0x01), sload(0x05))\n        /* \"@openzeppelin/contracts/access/Ownable.sol\":1201:1286  function owner() public view virtual returns (address) {... */\n      jump(tag_40)\n        /* \"FD-SBT-003.sol\":1506:1603  function setFireSoulAddress(address _fireSoul) public onlyOwner {... */\n    tag_18:\n      tag_73\n      tag_97\n      calldatasize\n      0x04\n      tag_78\n      jump\t// in\n    tag_97:\n      tag_98\n      jump\t// in\n        /* \"@openzeppelin/contracts/token/ERC20/ERC20.sol\":2365:2467  function symbol() public view virtual override returns (string memory) {... */\n    tag_19:\n      tag_36\n      tag_100\n      jump\t// in\n        /* \"FD-SBT-003.sol\":1821:2011  function burn(address account, uint256 amount) external {... */\n    tag_20:\n      tag_73\n      tag_103\n      calldatasize\n      0x04\n      tag_46\n      jump\t// in\n    tag_103:\n      tag_104\n      jump\t// in\n        /* \"@openzeppelin/contracts/token/ERC20/ERC20.sol\":6592:7019  function decreaseAllowance(address spender, uint256 subtractedValue) public virtual returns (bool) {... */\n    tag_21:\n      tag_44\n      tag_106\n      calldatasize\n      0x04\n      tag_46\n      jump\t// in\n    tag_106:\n      tag_107\n      jump\t// in\n        /* \"FD-SBT-003.sol\":2019:2219  function transfer(address recipient, uint256 amount) public virtual override returns (bool) {... */\n    tag_22:\n      tag_44\n      tag_2\n      calldatasize\n      0x04\n      tag_46\n      jump\t// in\n        /* \"FD-SBT-003.sol\":2683:2953  function getCurrentVotes(address account) external view returns (uint96) {... */\n    tag_23:\n      tag_88\n      tag_114\n      calldatasize\n      0x04\n      tag_78\n      jump\t// in\n    tag_114:\n      tag_115\n      jump\t// in\n        /* \"FD-SBT-003.sol\":1437:1500  function setStatus() public {... */\n    tag_24:\n      tag_73\n        /* \"FD-SBT-003.sol\":1486:1492  status */\n      0x07\n      dup1\n      sload\n      not(0xff)\n        /* \"FD-SBT-003.sol\":1476:1492  status = !status */\n      dup2\n      and\n        /* \"FD-SBT-003.sol\":1486:1492  status */\n      0xff\n      swap1\n      swap2\n      and\n        /* \"FD-SBT-003.sol\":1485:1492  !status */\n      iszero\n        /* \"FD-SBT-003.sol\":1476:1492  status = !status */\n      or\n      swap1\n      sstore\n        /* \"FD-SBT-003.sol\":1437:1500  function setStatus() public {... */\n      jump\n        /* \"@openzeppelin/contracts/token/ERC20/ERC20.sol\":3974:4123  function allowance(address owner, address spender) public view virtual override returns (uint256) {... */\n    tag_25:\n      tag_50\n      tag_120\n      calldatasize\n      0x04\n      tag_121\n      jump\t// in\n    tag_120:\n      tag_122\n      jump\t// in\n        /* \"FD-SBT-003.sol\":594:664  mapping (address => mapping (uint32 => Checkpoint)) public checkpoints */\n    tag_26:\n      tag_124\n      tag_125\n      calldatasize\n      0x04\n      tag_126\n      jump\t// in\n    tag_125:\n      0x0a\n      0x20\n      swap1\n      dup2\n      mstore\n      0x00\n      swap3\n      dup4\n      mstore\n      0x40\n      dup1\n      dup5\n      keccak256\n      swap1\n      swap2\n      mstore\n      swap1\n      dup3\n      mstore\n      swap1\n      keccak256\n      sload\n      0xffffffff\n      dup2\n      and\n      swap1\n      0x0100000000\n      swap1\n      div\n      sub(shl(0x60, 0x01), 0x01)\n      and\n      dup3\n      jump\n    tag_124:\n      0x40\n      dup1\n      mload\n        /* \"#utility.yul\":3529:3539   */\n      0xffffffff\n        /* \"#utility.yul\":3517:3540   */\n      swap1\n      swap4\n      and\n        /* \"#utility.yul\":3499:3541   */\n      dup4\n      mstore\n      sub(shl(0x60, 0x01), 0x01)\n        /* \"#utility.yul\":3577:3616   */\n      swap1\n      swap2\n      and\n        /* \"#utility.yul\":3572:3574   */\n      0x20\n        /* \"#utility.yul\":3557:3575   */\n      dup4\n      add\n        /* \"#utility.yul\":3550:3617   */\n      mstore\n        /* \"#utility.yul\":3472:3490   */\n      add\n        /* \"FD-SBT-003.sol\":594:664  mapping (address => mapping (uint32 => Checkpoint)) public checkpoints */\n      tag_38\n        /* \"#utility.yul\":3329:3623   */\n      jump\n        /* \"@openzeppelin/contracts/access/Ownable.sol\":2081:2279  function transferOwnership(address newOwner) public virtual onlyOwner {... */\n    tag_27:\n      tag_73\n      tag_131\n      calldatasize\n      0x04\n      tag_78\n      jump\t// in\n    tag_131:\n      tag_132\n      jump\t// in\n        /* \"FD-SBT-003.sol\":537:557  address public admin */\n    tag_28:\n      sload(0x08)\n      tag_40\n      swap1\n      sub(shl(0xa0, 0x01), 0x01)\n      and\n      dup2\n      jump\n        /* \"FD-SBT-003.sol\":367:385  string public logo */\n    tag_29:\n      tag_36\n      tag_137\n      jump\t// in\n        /* \"@openzeppelin/contracts/token/ERC20/ERC20.sol\":2154:2252  function name() public view virtual override returns (string memory) {... */\n    tag_37:\n        /* \"@openzeppelin/contracts/token/ERC20/ERC20.sol\":2208:2221  string memory */\n      0x60\n        /* \"@openzeppelin/contracts/token/ERC20/ERC20.sol\":2240:2245  _name */\n      0x03\n        /* \"@openzeppelin/contracts/token/ERC20/ERC20.sol\":2233:2245  return _name */\n      dup1\n      sload\n      tag_140\n      swap1\n      tag_141\n      jump\t// in\n    tag_140:\n      dup1\n      0x1f\n      add\n      0x20\n      dup1\n      swap2\n      div\n      mul\n      0x20\n      add\n      mload(0x40)\n      swap1\n      dup2\n      add\n      0x40\n      mstore\n      dup1\n      swap3\n      swap2\n      swap1\n      dup2\n      dup2\n      mstore\n      0x20\n      add\n      dup3\n      dup1\n      sload\n      tag_142\n      swap1\n      tag_141\n      jump\t// in\n    tag_142:\n      dup1\n      iszero\n      tag_143\n      jumpi\n      dup1\n      0x1f\n      lt\n      tag_144\n      jumpi\n      0x0100\n      dup1\n      dup4\n      sload\n      div\n      mul\n      dup4\n      mstore\n      swap2\n      0x20\n      add\n      swap2\n      jump(tag_143)\n    tag_144:\n      dup3\n      add\n      swap2\n      swap1\n      0x00\n      mstore\n      keccak256(0x00, 0x20)\n      swap1\n    tag_145:\n      dup2\n      sload\n      dup2\n      mstore\n      swap1\n      0x01\n      add\n      swap1\n      0x20\n      add\n      dup1\n      dup4\n      gt\n      tag_145\n      jumpi\n      dup3\n      swap1\n      sub\n      0x1f\n      and\n      dup3\n      add\n      swap2\n    tag_143:\n      pop\n      pop\n      pop\n      pop\n      pop\n      swap1\n      pop\n        /* \"@openzeppelin/contracts/token/ERC20/ERC20.sol\":2154:2252  function name() public view virtual override returns (string memory) {... */\n      swap1\n      jump\t// out\n        /* \"@openzeppelin/contracts/token/ERC20/ERC20.sol\":4431:4628  function approve(address spender, uint256 amount) public virtual override returns (bool) {... */\n    tag_47:\n        /* \"@openzeppelin/contracts/token/ERC20/ERC20.sol\":4514:4518  bool */\n      0x00\n        /* \"@openzeppelin/contracts/utils/Context.sol\":719:729  msg.sender */\n      caller\n        /* \"@openzeppelin/contracts/token/ERC20/ERC20.sol\":4568:4600  _approve(owner, spender, amount) */\n      tag_149\n        /* \"@openzeppelin/contracts/utils/Context.sol\":719:729  msg.sender */\n      dup2\n        /* \"@openzeppelin/contracts/token/ERC20/ERC20.sol\":4584:4591  spender */\n      dup6\n        /* \"@openzeppelin/contracts/token/ERC20/ERC20.sol\":4593:4599  amount */\n      dup6\n        /* \"@openzeppelin/contracts/token/ERC20/ERC20.sol\":4568:4576  _approve */\n      tag_150\n        /* \"@openzeppelin/contracts/token/ERC20/ERC20.sol\":4568:4600  _approve(owner, spender, amount) */\n      jump\t// in\n    tag_149:\n        /* \"@openzeppelin/contracts/token/ERC20/ERC20.sol\":4617:4621  true */\n      0x01\n        /* \"@openzeppelin/contracts/token/ERC20/ERC20.sol\":4610:4621  return true */\n      swap2\n      pop\n      pop\n        /* \"@openzeppelin/contracts/token/ERC20/ERC20.sol\":4431:4628  function approve(address spender, uint256 amount) public virtual override returns (bool) {... */\n    tag_146:\n      swap3\n      swap2\n      pop\n      pop\n      jump\t// out\n        /* \"FD-SBT-003.sol\":2497:2576  require(currentAllowance >= amount, \"ERC20: transfer amount exceeds allowance\") */\n    tag_159:\n      mload(0x40)\n      dup1\n      swap2\n      sub\n      swap1\n      revert\n        /* \"FD-SBT-003.sol\":2618:2641  currentAllowance-amount */\n    tag_163:\n        /* \"FD-SBT-003.sol\":2587:2595  _approve */\n      tag_150\n        /* \"FD-SBT-003.sol\":2587:2642  _approve(sender, _msgSender(), currentAllowance-amount) */\n      jump\t// in\n    tag_161:\n      pop\n        /* \"FD-SBT-003.sol\":2660:2664  true */\n      0x01\n      swap5\n        /* \"FD-SBT-003.sol\":2231:2672  function transferFrom(address sender, address recipient, uint256 amount) public virtual override returns (bool) {... */\n      swap4\n      pop\n      pop\n      pop\n      pop\n      jump\t// out\n        /* \"@openzeppelin/contracts/token/ERC20/ERC20.sol\":5871:6105  function increaseAllowance(address spender, uint256 addedValue) public virtual returns (bool) {... */\n    tag_71:\n        /* \"@openzeppelin/contracts/token/ERC20/ERC20.sol\":5959:5963  bool */\n      0x00\n        /* \"@openzeppelin/contracts/utils/Context.sol\":719:729  msg.sender */\n      caller\n        /* \"@openzeppelin/contracts/token/ERC20/ERC20.sol\":6013:6077  _approve(owner, spender, allowance(owner, spender) + addedValue) */\n      tag_149\n        /* \"@openzeppelin/contracts/utils/Context.sol\":719:729  msg.sender */\n      dup2\n        /* \"@openzeppelin/contracts/token/ERC20/ERC20.sol\":6029:6036  spender */\n      dup6\n        /* \"@openzeppelin/contracts/token/ERC20/ERC20.sol\":6066:6076  addedValue */\n      dup6\n        /* \"@openzeppelin/contracts/token/ERC20/ERC20.sol\":6038:6063  allowance(owner, spender) */\n      tag_169\n        /* \"@openzeppelin/contracts/utils/Context.sol\":719:729  msg.sender */\n      dup4\n        /* \"@openzeppelin/contracts/token/ERC20/ERC20.sol\":6029:6036  spender */\n      dup4\n        /* \"@openzeppelin/contracts/token/ERC20/ERC20.sol\":6038:6047  allowance */\n      tag_122\n        /* \"@openzeppelin/contracts/token/ERC20/ERC20.sol\":6038:6063  allowance(owner, spender) */\n      jump\t// in\n    tag_169:\n        /* \"@openzeppelin/contracts/token/ERC20/ERC20.sol\":6038:6076  allowance(owner, spender) + addedValue */\n      tag_163\n      swap2\n      swap1\n      tag_171\n      jump\t// in\n        /* \"FD-SBT-003.sol\":1611:1815  function mint(address account, uint256 amount) external {... */\n    tag_75:\n        /* \"FD-SBT-003.sol\":1687:1693  status */\n      and(0xff, sload(0x07))\n        /* \"FD-SBT-003.sol\":1686:1693  !status */\n      iszero\n        /* \"FD-SBT-003.sol\":1678:1713  require(!status, \"status is false\") */\n      tag_173\n      jumpi\n      mload(0x40)\n      shl(0xe5, 0x461bcd)\n      dup2\n      mstore\n      0x04\n      add\n      tag_159\n      swap1\n      tag_175\n      jump\t// in\n    tag_173:\n        /* \"FD-SBT-003.sol\":1739:1747  fireSoul */\n      and(sub(shl(0xa0, 0x01), 0x01), sload(0x09))\n        /* \"FD-SBT-003.sol\":1725:1735  msg.sender */\n      caller\n        /* \"FD-SBT-003.sol\":1725:1747  msg.sender == fireSoul */\n      eq\n        /* \"FD-SBT-003.sol\":1717:1773  require(msg.sender == fireSoul,\"caller is not fireSoul\") */\n      tag_176\n      jumpi\n      mload(0x40)\n      shl(0xe5, 0x461bcd)\n      dup2\n      mstore\n        /* \"#utility.yul\":5363:5365   */\n      0x20\n        /* \"FD-SBT-003.sol\":1717:1773  require(msg.sender == fireSoul,\"caller is not fireSoul\") */\n      0x04\n      dup3\n      add\n        /* \"#utility.yul\":5345:5366   */\n      mstore\n        /* \"#utility.yul\":5402:5404   */\n      0x16\n        /* \"#utility.yul\":5382:5400   */\n      0x24\n      dup3\n      add\n        /* \"#utility.yul\":5375:5405   */\n      mstore\n      shl(0x52, 0x18d85b1b195c881a5cc81b9bdd08199a5c9954dbdd5b)\n        /* \"#utility.yul\":5421:5439   */\n      0x44\n      dup3\n      add\n        /* \"#utility.yul\":5414:5466   */\n      mstore\n        /* \"#utility.yul\":5483:5501   */\n      0x64\n      add\n        /* \"FD-SBT-003.sol\":1717:1773  require(msg.sender == fireSoul,\"caller is not fireSoul\") */\n      tag_159\n        /* \"#utility.yul\":5161:5507   */\n      jump\n        /* \"FD-SBT-003.sol\":1717:1773  require(msg.sender == fireSoul,\"caller is not fireSoul\") */\n    tag_176:\n        /* \"FD-SBT-003.sol\":1784:1807  _mint( account, amount) */\n      tag_179\n        /* \"FD-SBT-003.sol\":1791:1798  account */\n      dup3\n        /* \"FD-SBT-003.sol\":1800:1806  amount */\n      dup3\n        /* \"FD-SBT-003.sol\":1784:1789  _mint */\n      tag_180\n        /* \"FD-SBT-003.sol\":1784:1807  _mint( account, amount) */\n      jump\t// in\n    tag_179:\n        /* \"FD-SBT-003.sol\":1611:1815  function mint(address account, uint256 amount) external {... */\n      pop\n      pop\n      jump\t// out\n        /* \"@openzeppelin/contracts/access/Ownable.sol\":1831:1932  function renounceOwnership() public virtual onlyOwner {... */\n    tag_87:\n        /* \"@openzeppelin/contracts/access/Ownable.sol\":1094:1107  _checkOwner() */\n      tag_183\n        /* \"@openzeppelin/contracts/access/Ownable.sol\":1094:1105  _checkOwner */\n      tag_184\n        /* \"@openzeppelin/contracts/access/Ownable.sol\":1094:1107  _checkOwner() */\n      jump\t// in\n    tag_183:\n        /* \"@openzeppelin/contracts/access/Ownable.sol\":1895:1925  _transferOwnership(address(0)) */\n      tag_186\n        /* \"@openzeppelin/contracts/access/Ownable.sol\":1922:1923  0 */\n      0x00\n        /* \"@openzeppelin/contracts/access/Ownable.sol\":1895:1913  _transferOwnership */\n      tag_187\n        /* \"@openzeppelin/contracts/access/Ownable.sol\":1895:1925  _transferOwnership(address(0)) */\n      jump\t// in\n    tag_186:\n        /* \"@openzeppelin/contracts/access/Ownable.sol\":1831:1932  function renounceOwnership() public virtual onlyOwner {... */\n      jump\t// out\n        /* \"FD-SBT-003.sol\":2965:4092  function getPriorVotes(address account, uint blockNumber) public view returns (uint96) {... */\n    tag_90:\n        /* \"FD-SBT-003.sol\":3072:3078  status */\n      sload(0x07)\n        /* \"FD-SBT-003.sol\":3044:3050  uint96 */\n      0x00\n      swap1\n        /* \"FD-SBT-003.sol\":3072:3078  status */\n      0xff\n      and\n        /* \"FD-SBT-003.sol\":3071:3078  !status */\n      iszero\n        /* \"FD-SBT-003.sol\":3063:3098  require(!status, \"status is false\") */\n      tag_189\n      jumpi\n      mload(0x40)\n      shl(0xe5, 0x461bcd)\n      dup2\n      mstore\n      0x04\n      add\n      tag_159\n      swap1\n      tag_175\n      jump\t// in\n    tag_189:\n        /* \"FD-SBT-003.sol\":3135:3147  block.number */\n      number\n        /* \"FD-SBT-003.sol\":3120:3131  blockNumber */\n      dup3\n        /* \"FD-SBT-003.sol\":3120:3147  blockNumber <= block.number */\n      gt\n      iszero\n        /* \"FD-SBT-003.sol\":3112:3177  require(blockNumber <= block.number, \"ERC20: not yet determined\") */\n      tag_191\n      jumpi\n      mload(0x40)\n      shl(0xe5, 0x461bcd)\n      dup2\n      mstore\n        /* \"#utility.yul\":5714:5716   */\n      0x20\n        /* \"FD-SBT-003.sol\":3112:3177  require(blockNumber <= block.number, \"ERC20: not yet determined\") */\n      0x04\n      dup3\n      add\n        /* \"#utility.yul\":5696:5717   */\n      mstore\n        /* \"#utility.yul\":5753:5755   */\n      0x19\n        /* \"#utility.yul\":5733:5751   */\n      0x24\n      dup3\n      add\n        /* \"#utility.yul\":5726:5756   */\n      mstore\n        /* \"#utility.yul\":5792:5819   */\n      0x45524332303a206e6f74207965742064657465726d696e656400000000000000\n        /* \"#utility.yul\":5772:5790   */\n      0x44\n      dup3\n      add\n        /* \"#utility.yul\":5765:5820   */\n      mstore\n        /* \"#utility.yul\":5837:5855   */\n      0x64\n      add\n        /* \"FD-SBT-003.sol\":3112:3177  require(blockNumber <= block.number, \"ERC20: not yet determined\") */\n      tag_159\n        /* \"#utility.yul\":5512:5861   */\n      jump\n        /* \"FD-SBT-003.sol\":3112:3177  require(blockNumber <= block.number, \"ERC20: not yet determined\") */\n    tag_191:\n      sub(shl(0xa0, 0x01), 0x01)\n        /* \"FD-SBT-003.sol\":3217:3240  numCheckpoints[account] */\n      dup4\n      and\n        /* \"FD-SBT-003.sol\":3195:3214  uint32 nCheckpoints */\n      0x00\n        /* \"FD-SBT-003.sol\":3217:3240  numCheckpoints[account] */\n      swap1\n      dup2\n      mstore\n        /* \"FD-SBT-003.sol\":3217:3231  numCheckpoints */\n      0x0b\n        /* \"FD-SBT-003.sol\":3217:3240  numCheckpoints[account] */\n      0x20\n      mstore\n      0x40\n      swap1\n      keccak256\n      sload\n      0xffffffff\n      and\n        /* \"FD-SBT-003.sol\":3256:3273  nCheckpoints == 0 */\n      dup1\n      iszero\n      dup1\n        /* \"FD-SBT-003.sol\":3256:3324  nCheckpoints == 0 || checkpoints[account][0].fromBlock > blockNumber */\n      tag_194\n      jumpi\n      pop\n      sub(shl(0xa0, 0x01), 0x01)\n        /* \"FD-SBT-003.sol\":3277:3297  checkpoints[account] */\n      dup5\n      and\n      0x00\n      swap1\n      dup2\n      mstore\n        /* \"FD-SBT-003.sol\":3277:3288  checkpoints */\n      0x0a\n        /* \"FD-SBT-003.sol\":3277:3297  checkpoints[account] */\n      0x20\n      swap1\n      dup2\n      mstore\n      0x40\n      dup1\n      dup4\n      keccak256\n        /* \"FD-SBT-003.sol\":3277:3300  checkpoints[account][0] */\n      dup4\n      dup1\n      mstore\n      swap1\n      swap2\n      mstore\n      swap1\n      keccak256\n        /* \"FD-SBT-003.sol\":3277:3310  checkpoints[account][0].fromBlock */\n      sload\n        /* \"FD-SBT-003.sol\":3277:3300  checkpoints[account][0] */\n      0xffffffff\n        /* \"FD-SBT-003.sol\":3277:3310  checkpoints[account][0].fromBlock */\n      and\n        /* \"FD-SBT-003.sol\":3277:3324  checkpoints[account][0].fromBlock > blockNumber */\n      dup4\n      lt\n        /* \"FD-SBT-003.sol\":3256:3324  nCheckpoints == 0 || checkpoints[account][0].fromBlock > blockNumber */\n    tag_194:\n        /* \"FD-SBT-003.sol\":3252:3363  if (nCheckpoints == 0 || checkpoints[account][0].fromBlock > blockNumber) {... */\n      iszero\n      tag_195\n      jumpi\n        /* \"FD-SBT-003.sol\":3349:3350  0 */\n      0x00\n        /* \"FD-SBT-003.sol\":3342:3350  return 0 */\n      swap2\n      pop\n      pop\n      jump(tag_146)\n        /* \"FD-SBT-003.sol\":3252:3363  if (nCheckpoints == 0 || checkpoints[account][0].fromBlock > blockNumber) {... */\n    tag_195:\n      sub(shl(0xa0, 0x01), 0x01)\n        /* \"FD-SBT-003.sol\":3389:3409  checkpoints[account] */\n      dup5\n      and\n      0x00\n      swap1\n      dup2\n      mstore\n        /* \"FD-SBT-003.sol\":3389:3400  checkpoints */\n      0x0a\n        /* \"FD-SBT-003.sol\":3389:3409  checkpoints[account] */\n      0x20\n      mstore\n      0x40\n      dup2\n      keccak256\n        /* \"FD-SBT-003.sol\":3441:3452  blockNumber */\n      dup5\n      swap2\n        /* \"FD-SBT-003.sol\":3410:3426  nCheckpoints - 1 */\n      tag_196\n        /* \"FD-SBT-003.sol\":3425:3426  1 */\n      0x01\n        /* \"FD-SBT-003.sol\":3410:3422  nCheckpoints */\n      dup6\n        /* \"FD-SBT-003.sol\":3410:3426  nCheckpoints - 1 */\n      tag_197\n      jump\t// in\n    tag_196:\n        /* \"FD-SBT-003.sol\":3389:3427  checkpoints[account][nCheckpoints - 1] */\n      0xffffffff\n      swap1\n      dup2\n      and\n      dup3\n      mstore\n      0x20\n      dup3\n      add\n      swap3\n      swap1\n      swap3\n      mstore\n      0x40\n      add\n      0x00\n      keccak256\n        /* \"FD-SBT-003.sol\":3389:3437  checkpoints[account][nCheckpoints - 1].fromBlock */\n      sload\n      and\n        /* \"FD-SBT-003.sol\":3389:3452  checkpoints[account][nCheckpoints - 1].fromBlock <= blockNumber */\n      gt\n        /* \"FD-SBT-003.sol\":3385:3534  if (checkpoints[account][nCheckpoints - 1].fromBlock <= blockNumber) {... */\n      tag_198\n      jumpi\n      sub(shl(0xa0, 0x01), 0x01)\n        /* \"FD-SBT-003.sol\":3477:3497  checkpoints[account] */\n      dup5\n      and\n      0x00\n      swap1\n      dup2\n      mstore\n        /* \"FD-SBT-003.sol\":3477:3488  checkpoints */\n      0x0a\n        /* \"FD-SBT-003.sol\":3477:3497  checkpoints[account] */\n      0x20\n      mstore\n      0x40\n      dup2\n      keccak256\n      swap1\n        /* \"FD-SBT-003.sol\":3498:3514  nCheckpoints - 1 */\n      tag_199\n        /* \"FD-SBT-003.sol\":3513:3514  1 */\n      0x01\n        /* \"FD-SBT-003.sol\":3498:3510  nCheckpoints */\n      dup5\n        /* \"FD-SBT-003.sol\":3498:3514  nCheckpoints - 1 */\n      tag_197\n      jump\t// in\n    tag_199:\n        /* \"FD-SBT-003.sol\":3477:3515  checkpoints[account][nCheckpoints - 1] */\n      0xffffffff\n      and\n      dup2\n      mstore\n      0x20\n      dup2\n      add\n      swap2\n      swap1\n      swap2\n      mstore\n      0x40\n      add\n      0x00\n      keccak256\n        /* \"FD-SBT-003.sol\":3477:3521  checkpoints[account][nCheckpoints - 1].votes */\n      sload\n      0x0100000000\n      swap1\n      div\n      sub(shl(0x60, 0x01), 0x01)\n      and\n      swap2\n      pop\n        /* \"FD-SBT-003.sol\":3470:3521  return checkpoints[account][nCheckpoints - 1].votes */\n      tag_146\n      swap1\n      pop\n      jump\n        /* \"FD-SBT-003.sol\":3385:3534  if (checkpoints[account][nCheckpoints - 1].fromBlock <= blockNumber) {... */\n    tag_198:\n        /* \"FD-SBT-003.sol\":3551:3563  uint32 lower */\n      0x00\n      dup1\n        /* \"FD-SBT-003.sol\":3594:3610  nCheckpoints - 1 */\n      tag_200\n        /* \"FD-SBT-003.sol\":3609:3610  1 */\n      0x01\n        /* \"FD-SBT-003.sol\":3594:3606  nCheckpoints */\n      dup5\n        /* \"FD-SBT-003.sol\":3594:3610  nCheckpoints - 1 */\n      tag_197\n      jump\t// in\n    tag_200:\n        /* \"FD-SBT-003.sol\":3579:3610  uint32 upper = nCheckpoints - 1 */\n      swap1\n      pop\n        /* \"FD-SBT-003.sol\":3622:4033  while (upper > lower) {... */\n    tag_201:\n        /* \"FD-SBT-003.sol\":3637:3642  lower */\n      dup2\n        /* \"FD-SBT-003.sol\":3629:3642  upper > lower */\n      0xffffffff\n      and\n        /* \"FD-SBT-003.sol\":3629:3634  upper */\n      dup2\n        /* \"FD-SBT-003.sol\":3629:3642  upper > lower */\n      0xffffffff\n      and\n      gt\n        /* \"FD-SBT-003.sol\":3622:4033  while (upper > lower) {... */\n      iszero\n      tag_202\n      jumpi\n        /* \"FD-SBT-003.sol\":3660:3673  uint32 center */\n      0x00\n        /* \"FD-SBT-003.sol\":3702:3703  2 */\n      0x02\n        /* \"FD-SBT-003.sol\":3685:3698  upper - lower */\n      tag_203\n        /* \"FD-SBT-003.sol\":3693:3698  lower */\n      dup5\n        /* \"FD-SBT-003.sol\":3685:3690  upper */\n      dup5\n        /* \"FD-SBT-003.sol\":3685:3698  upper - lower */\n      tag_197\n      jump\t// in\n    tag_203:\n        /* \"FD-SBT-003.sol\":3684:3703  (upper - lower) / 2 */\n      tag_204\n      swap2\n      swap1\n      tag_205\n      jump\t// in\n    tag_204:\n        /* \"FD-SBT-003.sol\":3676:3703  upper - (upper - lower) / 2 */\n      tag_206\n      swap1\n        /* \"FD-SBT-003.sol\":3676:3681  upper */\n      dup4\n        /* \"FD-SBT-003.sol\":3676:3703  upper - (upper - lower) / 2 */\n      tag_197\n      jump\t// in\n    tag_206:\n      sub(shl(0xa0, 0x01), 0x01)\n        /* \"FD-SBT-003.sol\":3743:3763  checkpoints[account] */\n      dup9\n      and\n        /* \"FD-SBT-003.sol\":3720:3740  Checkpoint memory cp */\n      0x00\n        /* \"FD-SBT-003.sol\":3743:3763  checkpoints[account] */\n      swap1\n      dup2\n      mstore\n        /* \"FD-SBT-003.sol\":3743:3754  checkpoints */\n      0x0a\n        /* \"FD-SBT-003.sol\":3743:3763  checkpoints[account] */\n      0x20\n      swap1\n      dup2\n      mstore\n      0x40\n      dup1\n      dup4\n      keccak256\n        /* \"FD-SBT-003.sol\":3743:3771  checkpoints[account][center] */\n      0xffffffff\n      dup6\n      dup2\n      and\n      dup6\n      mstore\n      swap1\n      dup4\n      mstore\n      swap3\n      dup2\n      swap1\n      keccak256\n        /* \"FD-SBT-003.sol\":3720:3771  Checkpoint memory cp = checkpoints[account][center] */\n      dup2\n      mload\n      dup1\n      dup4\n      add\n      swap1\n      swap3\n      mstore\n      sload\n      swap3\n      dup4\n      and\n      dup1\n      dup3\n      mstore\n      0x0100000000\n      swap1\n      swap4\n      div\n      sub(shl(0x60, 0x01), 0x01)\n      and\n      swap2\n      dup2\n      add\n      swap2\n      swap1\n      swap2\n      mstore\n        /* \"FD-SBT-003.sol\":3743:3771  checkpoints[account][center] */\n      swap2\n      swap3\n      pop\n        /* \"FD-SBT-003.sol\":3791:3818  cp.fromBlock == blockNumber */\n      dup8\n      swap1\n      sub\n        /* \"FD-SBT-003.sol\":3787:4022  if (cp.fromBlock == blockNumber) {... */\n      tag_207\n      jumpi\n        /* \"FD-SBT-003.sol\":3847:3855  cp.votes */\n      0x20\n      add\n      mload\n      swap5\n      pop\n        /* \"FD-SBT-003.sol\":3840:3855  return cp.votes */\n      tag_146\n      swap4\n      pop\n      pop\n      pop\n      pop\n      jump\n        /* \"FD-SBT-003.sol\":3787:4022  if (cp.fromBlock == blockNumber) {... */\n    tag_207:\n        /* \"FD-SBT-003.sol\":3882:3894  cp.fromBlock */\n      dup1\n      mload\n        /* \"FD-SBT-003.sol\":3882:3908  cp.fromBlock < blockNumber */\n      0xffffffff\n      and\n      dup8\n      gt\n        /* \"FD-SBT-003.sol\":3878:4022  if (cp.fromBlock < blockNumber) {... */\n      iszero\n      tag_209\n      jumpi\n        /* \"FD-SBT-003.sol\":3938:3944  center */\n      dup2\n        /* \"FD-SBT-003.sol\":3930:3944  lower = center */\n      swap4\n      pop\n        /* \"FD-SBT-003.sol\":3878:4022  if (cp.fromBlock < blockNumber) {... */\n      jump(tag_210)\n    tag_209:\n        /* \"FD-SBT-003.sol\":3995:4005  center - 1 */\n      tag_211\n        /* \"FD-SBT-003.sol\":4004:4005  1 */\n      0x01\n        /* \"FD-SBT-003.sol\":3995:4001  center */\n      dup4\n        /* \"FD-SBT-003.sol\":3995:4005  center - 1 */\n      tag_197\n      jump\t// in\n    tag_211:\n        /* \"FD-SBT-003.sol\":3987:4005  upper = center - 1 */\n      swap3\n      pop\n        /* \"FD-SBT-003.sol\":3878:4022  if (cp.fromBlock < blockNumber) {... */\n    tag_210:\n        /* \"FD-SBT-003.sol\":3644:4033  {... */\n      pop\n      pop\n        /* \"FD-SBT-003.sol\":3622:4033  while (upper > lower) {... */\n      jump(tag_201)\n    tag_202:\n      pop\n      sub(shl(0xa0, 0x01), 0x01)\n        /* \"FD-SBT-003.sol\":4050:4070  checkpoints[account] */\n      dup6\n      and\n      0x00\n      swap1\n      dup2\n      mstore\n        /* \"FD-SBT-003.sol\":4050:4061  checkpoints */\n      0x0a\n        /* \"FD-SBT-003.sol\":4050:4070  checkpoints[account] */\n      0x20\n      swap1\n      dup2\n      mstore\n      0x40\n      dup1\n      dup4\n      keccak256\n        /* \"FD-SBT-003.sol\":4050:4077  checkpoints[account][lower] */\n      0xffffffff\n      swap1\n      swap5\n      and\n      dup4\n      mstore\n      swap3\n      swap1\n      mstore\n      keccak256\n        /* \"FD-SBT-003.sol\":4050:4083  checkpoints[account][lower].votes */\n      sload\n      sub(shl(0x60, 0x01), 0x01)\n      0x0100000000\n      swap1\n      swap2\n      div\n      and\n      swap2\n      pop\n      pop\n        /* \"FD-SBT-003.sol\":2965:4092  function getPriorVotes(address account, uint blockNumber) public view returns (uint96) {... */\n      swap3\n      swap2\n      pop\n      pop\n      jump\t// out\n        /* \"FD-SBT-003.sol\":1506:1603  function setFireSoulAddress(address _fireSoul) public onlyOwner {... */\n    tag_98:\n        /* \"@openzeppelin/contracts/access/Ownable.sol\":1094:1107  _checkOwner() */\n      tag_214\n        /* \"@openzeppelin/contracts/access/Ownable.sol\":1094:1105  _checkOwner */\n      tag_184\n        /* \"@openzeppelin/contracts/access/Ownable.sol\":1094:1107  _checkOwner() */\n      jump\t// in\n    tag_214:\n        /* \"FD-SBT-003.sol\":1575:1583  fireSoul */\n      0x09\n        /* \"FD-SBT-003.sol\":1575:1595  fireSoul = _fireSoul */\n      dup1\n      sload\n      not(sub(shl(0xa0, 0x01), 0x01))\n      and\n      sub(shl(0xa0, 0x01), 0x01)\n      swap3\n      swap1\n      swap3\n      and\n      swap2\n      swap1\n      swap2\n      or\n      swap1\n      sstore\n        /* \"FD-SBT-003.sol\":1506:1603  function setFireSoulAddress(address _fireSoul) public onlyOwner {... */\n      jump\t// out\n        /* \"@openzeppelin/contracts/token/ERC20/ERC20.sol\":2365:2467  function symbol() public view virtual override returns (string memory) {... */\n    tag_100:\n        /* \"@openzeppelin/contracts/token/ERC20/ERC20.sol\":2421:2434  string memory */\n      0x60\n        /* \"@openzeppelin/contracts/token/ERC20/ERC20.sol\":2453:2460  _symbol */\n      0x04\n        /* \"@openzeppelin/contracts/token/ERC20/ERC20.sol\":2446:2460  return _symbol */\n      dup1\n      sload\n      tag_140\n      swap1\n      tag_141\n      jump\t// in\n        /* \"FD-SBT-003.sol\":1821:2011  function burn(address account, uint256 amount) external {... */\n    tag_104:\n        /* \"FD-SBT-003.sol\":1890:1896  status */\n      and(0xff, sload(0x07))\n        /* \"FD-SBT-003.sol\":1889:1896  !status */\n      iszero\n        /* \"FD-SBT-003.sol\":1881:1917  require(!status , \"status is false\") */\n      tag_223\n      jumpi\n      mload(0x40)\n      shl(0xe5, 0x461bcd)\n      dup2\n      mstore\n      0x04\n      add\n      tag_159\n      swap1\n      tag_175\n      jump\t// in\n    tag_223:\n        /* \"FD-SBT-003.sol\":1943:1951  fireSoul */\n      and(sub(shl(0xa0, 0x01), 0x01), sload(0x09))\n        /* \"FD-SBT-003.sol\":1929:1939  msg.sender */\n      caller\n        /* \"FD-SBT-003.sol\":1929:1951  msg.sender == fireSoul */\n      eq\n        /* \"FD-SBT-003.sol\":1921:1977  require(msg.sender == fireSoul,\"caller is not fireSoul\") */\n      tag_225\n      jumpi\n      mload(0x40)\n      shl(0xe5, 0x461bcd)\n      dup2\n      mstore\n        /* \"#utility.yul\":5363:5365   */\n      0x20\n        /* \"FD-SBT-003.sol\":1921:1977  require(msg.sender == fireSoul,\"caller is not fireSoul\") */\n      0x04\n      dup3\n      add\n        /* \"#utility.yul\":5345:5366   */\n      mstore\n        /* \"#utility.yul\":5402:5404   */\n      0x16\n        /* \"#utility.yul\":5382:5400   */\n      0x24\n      dup3\n      add\n        /* \"#utility.yul\":5375:5405   */\n      mstore\n      shl(0x52, 0x18d85b1b195c881a5cc81b9bdd08199a5c9954dbdd5b)\n        /* \"#utility.yul\":5421:5439   */\n      0x44\n      dup3\n      add\n        /* \"#utility.yul\":5414:5466   */\n      mstore\n        /* \"#utility.yul\":5483:5501   */\n      0x64\n      add\n        /* \"FD-SBT-003.sol\":1921:1977  require(msg.sender == fireSoul,\"caller is not fireSoul\") */\n      tag_159\n        /* \"#utility.yul\":5161:5507   */\n      jump\n        /* \"FD-SBT-003.sol\":1921:1977  require(msg.sender == fireSoul,\"caller is not fireSoul\") */\n    tag_225:\n        /* \"FD-SBT-003.sol\":1981:2003  _burn(account, amount) */\n      tag_179\n        /* \"FD-SBT-003.sol\":1987:1994  account */\n      dup3\n        /* \"FD-SBT-003.sol\":1996:2002  amount */\n      dup3\n        /* \"FD-SBT-003.sol\":1981:1986  _burn */\n      tag_228\n        /* \"FD-SBT-003.sol\":1981:2003  _burn(account, amount) */\n      jump\t// in\n        /* \"@openzeppelin/contracts/token/ERC20/ERC20.sol\":6592:7019  function decreaseAllowance(address spender, uint256 subtractedValue) public virtual returns (bool) {... */\n    tag_107:\n        /* \"@openzeppelin/contracts/token/ERC20/ERC20.sol\":6685:6689  bool */\n      0x00\n        /* \"@openzeppelin/contracts/utils/Context.sol\":719:729  msg.sender */\n      caller\n        /* \"@openzeppelin/contracts/token/ERC20/ERC20.sol\":6685:6689  bool */\n      dup2\n        /* \"@openzeppelin/contracts/token/ERC20/ERC20.sol\":6766:6791  allowance(owner, spender) */\n      tag_231\n        /* \"@openzeppelin/contracts/utils/Context.sol\":719:729  msg.sender */\n      dup3\n        /* \"@openzeppelin/contracts/token/ERC20/ERC20.sol\":6783:6790  spender */\n      dup7\n        /* \"@openzeppelin/contracts/token/ERC20/ERC20.sol\":6766:6775  allowance */\n      tag_122\n        /* \"@openzeppelin/contracts/token/ERC20/ERC20.sol\":6766:6791  allowance(owner, spender) */\n      jump\t// in\n    tag_231:\n        /* \"@openzeppelin/contracts/token/ERC20/ERC20.sol\":6739:6791  uint256 currentAllowance = allowance(owner, spender) */\n      swap1\n      pop\n        /* \"@openzeppelin/contracts/token/ERC20/ERC20.sol\":6829:6844  subtractedValue */\n      dup4\n        /* \"@openzeppelin/contracts/token/ERC20/ERC20.sol\":6809:6825  currentAllowance */\n      dup2\n        /* \"@openzeppelin/contracts/token/ERC20/ERC20.sol\":6809:6844  currentAllowance >= subtractedValue */\n      lt\n      iszero\n        /* \"@openzeppelin/contracts/token/ERC20/ERC20.sol\":6801:6886  require(currentAllowance >= subtractedValue, \"ERC20: decreased allowance below zero\") */\n      tag_232\n      jumpi\n      mload(0x40)\n      shl(0xe5, 0x461bcd)\n      dup2\n      mstore\n        /* \"#utility.yul\":6541:6543   */\n      0x20\n        /* \"@openzeppelin/contracts/token/ERC20/ERC20.sol\":6801:6886  require(currentAllowance >= subtractedValue, \"ERC20: decreased allowance below zero\") */\n      0x04\n      dup3\n      add\n        /* \"#utility.yul\":6523:6544   */\n      mstore\n        /* \"#utility.yul\":6580:6582   */\n      0x25\n        /* \"#utility.yul\":6560:6578   */\n      0x24\n      dup3\n      add\n        /* \"#utility.yul\":6553:6583   */\n      mstore\n        /* \"#utility.yul\":6619:6653   */\n      0x45524332303a2064656372656173656420616c6c6f77616e63652062656c6f77\n        /* \"#utility.yul\":6599:6617   */\n      0x44\n      dup3\n      add\n        /* \"#utility.yul\":6592:6654   */\n      mstore\n      shl(0xd8, 0x207a65726f)\n        /* \"#utility.yul\":6670:6688   */\n      0x64\n      dup3\n      add\n        /* \"#utility.yul\":6663:6698   */\n      mstore\n        /* \"#utility.yul\":6715:6734   */\n      0x84\n      add\n        /* \"@openzeppelin/contracts/token/ERC20/ERC20.sol\":6801:6886  require(currentAllowance >= subtractedValue, \"ERC20: decreased allowance below zero\") */\n      tag_159\n        /* \"#utility.yul\":6339:6740   */\n      jump\n        /* \"@openzeppelin/contracts/token/ERC20/ERC20.sol\":6801:6886  require(currentAllowance >= subtractedValue, \"ERC20: decreased allowance below zero\") */\n    tag_232:\n        /* \"@openzeppelin/contracts/token/ERC20/ERC20.sol\":6920:6980  _approve(owner, spender, currentAllowance - subtractedValue) */\n      tag_161\n        /* \"@openzeppelin/contracts/token/ERC20/ERC20.sol\":6929:6934  owner */\n      dup3\n        /* \"@openzeppelin/contracts/token/ERC20/ERC20.sol\":6936:6943  spender */\n      dup7\n        /* \"@openzeppelin/contracts/token/ERC20/ERC20.sol\":6964:6979  subtractedValue */\n      dup7\n        /* \"@openzeppelin/contracts/token/ERC20/ERC20.sol\":6945:6961  currentAllowance */\n      dup5\n        /* \"@openzeppelin/contracts/token/ERC20/ERC20.sol\":6945:6979  currentAllowance - subtractedValue */\n      sub\n        /* \"@openzeppelin/contracts/token/ERC20/ERC20.sol\":6920:6928  _approve */\n      tag_150\n        /* \"@openzeppelin/contracts/token/ERC20/ERC20.sol\":6920:6980  _approve(owner, spender, currentAllowance - subtractedValue) */\n      jump\t// in\n        /* \"FD-SBT-003.sol\":2683:2953  function getCurrentVotes(address account) external view returns (uint96) {... */\n    tag_115:\n        /* \"FD-SBT-003.sol\":2776:2782  status */\n      sload(0x07)\n        /* \"FD-SBT-003.sol\":2748:2754  uint96 */\n      0x00\n      swap1\n        /* \"FD-SBT-003.sol\":2776:2782  status */\n      0xff\n      and\n        /* \"FD-SBT-003.sol\":2775:2782  !status */\n      iszero\n        /* \"FD-SBT-003.sol\":2767:2802  require(!status, \"status is false\") */\n      tag_240\n      jumpi\n      mload(0x40)\n      shl(0xe5, 0x461bcd)\n      dup2\n      mstore\n      0x04\n      add\n      tag_159\n      swap1\n      tag_175\n      jump\t// in\n    tag_240:\n      sub(shl(0xa0, 0x01), 0x01)\n        /* \"FD-SBT-003.sol\":2837:2860  numCheckpoints[account] */\n      dup3\n      and\n        /* \"FD-SBT-003.sol\":2815:2834  uint32 nCheckpoints */\n      0x00\n        /* \"FD-SBT-003.sol\":2837:2860  numCheckpoints[account] */\n      swap1\n      dup2\n      mstore\n        /* \"FD-SBT-003.sol\":2837:2851  numCheckpoints */\n      0x0b\n        /* \"FD-SBT-003.sol\":2837:2860  numCheckpoints[account] */\n      0x20\n      mstore\n      0x40\n      swap1\n      keccak256\n      sload\n      0xffffffff\n      and\n        /* \"FD-SBT-003.sol\":2878:2894  nCheckpoints > 0 */\n      dup1\n        /* \"FD-SBT-003.sol\":2878:2945  nCheckpoints > 0 ? checkpoints[account][nCheckpoints - 1].votes : 0 */\n      tag_242\n      jumpi\n        /* \"FD-SBT-003.sol\":2944:2945  0 */\n      0x00\n        /* \"FD-SBT-003.sol\":2878:2945  nCheckpoints > 0 ? checkpoints[account][nCheckpoints - 1].votes : 0 */\n      jump(tag_243)\n    tag_242:\n      sub(shl(0xa0, 0x01), 0x01)\n        /* \"FD-SBT-003.sol\":2897:2917  checkpoints[account] */\n      dup4\n      and\n      0x00\n      swap1\n      dup2\n      mstore\n        /* \"FD-SBT-003.sol\":2897:2908  checkpoints */\n      0x0a\n        /* \"FD-SBT-003.sol\":2897:2917  checkpoints[account] */\n      0x20\n      mstore\n      0x40\n      dup2\n      keccak256\n      swap1\n        /* \"FD-SBT-003.sol\":2918:2934  nCheckpoints - 1 */\n      tag_244\n        /* \"FD-SBT-003.sol\":2933:2934  1 */\n      0x01\n        /* \"FD-SBT-003.sol\":2918:2930  nCheckpoints */\n      dup5\n        /* \"FD-SBT-003.sol\":2918:2934  nCheckpoints - 1 */\n      tag_197\n      jump\t// in\n    tag_244:\n        /* \"FD-SBT-003.sol\":2897:2935  checkpoints[account][nCheckpoints - 1] */\n      0xffffffff\n      and\n      dup2\n      mstore\n      0x20\n      dup2\n      add\n      swap2\n      swap1\n      swap2\n      mstore\n      0x40\n      add\n      0x00\n      keccak256\n        /* \"FD-SBT-003.sol\":2897:2941  checkpoints[account][nCheckpoints - 1].votes */\n      sload\n      0x0100000000\n      swap1\n      div\n      sub(shl(0x60, 0x01), 0x01)\n      and\n        /* \"FD-SBT-003.sol\":2878:2945  nCheckpoints > 0 ? checkpoints[account][nCheckpoints - 1].votes : 0 */\n    tag_243:\n        /* \"FD-SBT-003.sol\":2871:2945  return nCheckpoints > 0 ? checkpoints[account][nCheckpoints - 1].votes : 0 */\n      swap4\n        /* \"FD-SBT-003.sol\":2683:2953  function getCurrentVotes(address account) external view returns (uint96) {... */\n      swap3\n      pop\n      pop\n      pop\n      jump\t// out\n        /* \"@openzeppelin/contracts/token/ERC20/ERC20.sol\":3974:4123  function allowance(address owner, address spender) public view virtual override returns (uint256) {... */\n    tag_122:\n      sub(shl(0xa0, 0x01), 0x01)\n        /* \"@openzeppelin/contracts/token/ERC20/ERC20.sol\":4089:4107  _allowances[owner] */\n      swap2\n      dup3\n      and\n        /* \"@openzeppelin/contracts/token/ERC20/ERC20.sol\":4063:4070  uint256 */\n      0x00\n        /* \"@openzeppelin/contracts/token/ERC20/ERC20.sol\":4089:4107  _allowances[owner] */\n      swap1\n      dup2\n      mstore\n        /* \"@openzeppelin/contracts/token/ERC20/ERC20.sol\":4089:4100  _allowances */\n      0x01\n        /* \"@openzeppelin/contracts/token/ERC20/ERC20.sol\":4089:4107  _allowances[owner] */\n      0x20\n      swap1\n      dup2\n      mstore\n      0x40\n      dup1\n      dup4\n      keccak256\n        /* \"@openzeppelin/contracts/token/ERC20/ERC20.sol\":4089:4116  _allowances[owner][spender] */\n      swap4\n      swap1\n      swap5\n      and\n      dup3\n      mstore\n      swap2\n      swap1\n      swap2\n      mstore\n      keccak256\n      sload\n      swap1\n        /* \"@openzeppelin/contracts/token/ERC20/ERC20.sol\":3974:4123  function allowance(address owner, address spender) public view virtual override returns (uint256) {... */\n      jump\t// out\n        /* \"@openzeppelin/contracts/access/Ownable.sol\":2081:2279  function transferOwnership(address newOwner) public virtual onlyOwner {... */\n    tag_132:\n        /* \"@openzeppelin/contracts/access/Ownable.sol\":1094:1107  _checkOwner() */\n      tag_248\n        /* \"@openzeppelin/contracts/access/Ownable.sol\":1094:1105  _checkOwner */\n      tag_184\n        /* \"@openzeppelin/contracts/access/Ownable.sol\":1094:1107  _checkOwner() */\n      jump\t// in\n    tag_248:\n      sub(shl(0xa0, 0x01), 0x01)\n        /* \"@openzeppelin/contracts/access/Ownable.sol\":2169:2191  newOwner != address(0) */\n      dup2\n      and\n        /* \"@openzeppelin/contracts/access/Ownable.sol\":2161:2234  require(newOwner != address(0), \"Ownable: new owner is the zero address\") */\n      tag_250\n      jumpi\n      mload(0x40)\n      shl(0xe5, 0x461bcd)\n      dup2\n      mstore\n        /* \"#utility.yul\":6947:6949   */\n      0x20\n        /* \"@openzeppelin/contracts/access/Ownable.sol\":2161:2234  require(newOwner != address(0), \"Ownable: new owner is the zero address\") */\n      0x04\n      dup3\n      add\n        /* \"#utility.yul\":6929:6950   */\n      mstore\n        /* \"#utility.yul\":6986:6988   */\n      0x26\n        /* \"#utility.yul\":6966:6984   */\n      0x24\n      dup3\n      add\n        /* \"#utility.yul\":6959:6989   */\n      mstore\n        /* \"#utility.yul\":7025:7059   */\n      0x4f776e61626c653a206e6577206f776e657220697320746865207a65726f2061\n        /* \"#utility.yul\":7005:7023   */\n      0x44\n      dup3\n      add\n        /* \"#utility.yul\":6998:7060   */\n      mstore\n      shl(0xd0, 0x646472657373)\n        /* \"#utility.yul\":7076:7094   */\n      0x64\n      dup3\n      add\n        /* \"#utility.yul\":7069:7105   */\n      mstore\n        /* \"#utility.yul\":7122:7141   */\n      0x84\n      add\n        /* \"@openzeppelin/contracts/access/Ownable.sol\":2161:2234  require(newOwner != address(0), \"Ownable: new owner is the zero address\") */\n      tag_159\n        /* \"#utility.yul\":6745:7147   */\n      jump\n        /* \"@openzeppelin/contracts/access/Ownable.sol\":2161:2234  require(newOwner != address(0), \"Ownable: new owner is the zero address\") */\n    tag_250:\n        /* \"@openzeppelin/contracts/access/Ownable.sol\":2244:2272  _transferOwnership(newOwner) */\n      tag_253\n        /* \"@openzeppelin/contracts/access/Ownable.sol\":2263:2271  newOwner */\n      dup2\n        /* \"@openzeppelin/contracts/access/Ownable.sol\":2244:2262  _transferOwnership */\n      tag_187\n        /* \"@openzeppelin/contracts/access/Ownable.sol\":2244:2272  _transferOwnership(newOwner) */\n      jump\t// in\n    tag_253:\n        /* \"@openzeppelin/contracts/access/Ownable.sol\":2081:2279  function transferOwnership(address newOwner) public virtual onlyOwner {... */\n      pop\n      jump\t// out\n        /* \"FD-SBT-003.sol\":367:385  string public logo */\n    tag_137:\n      0x06\n      dup1\n      sload\n      tag_254\n      swap1\n      tag_141\n      jump\t// in\n    tag_254:\n      dup1\n      0x1f\n      add\n      0x20\n      dup1\n      swap2\n      div\n      mul\n      0x20\n      add\n      mload(0x40)\n      swap1\n      dup2\n      add\n      0x40\n      mstore\n      dup1\n      swap3\n      swap2\n      swap1\n      dup2\n      dup2\n      mstore\n      0x20\n      add\n      dup3\n      dup1\n      sload\n      tag_255\n      swap1\n      tag_141\n      jump\t// in\n    tag_255:\n      dup1\n      iszero\n      tag_256\n      jumpi\n      dup1\n      0x1f\n      lt\n      tag_257\n      jumpi\n      0x0100\n      dup1\n      dup4\n      sload\n      div\n      mul\n      dup4\n      mstore\n      swap2\n      0x20\n      add\n      swap2\n      jump(tag_256)\n    tag_257:\n      dup3\n      add\n      swap2\n      swap1\n      0x00\n      mstore\n      keccak256(0x00, 0x20)\n      swap1\n    tag_258:\n      dup2\n      sload\n      dup2\n      mstore\n      swap1\n      0x01\n      add\n      swap1\n      0x20\n      add\n      dup1\n      dup4\n      gt\n      tag_258\n      jumpi\n      dup3\n      swap1\n      sub\n      0x1f\n      and\n      dup3\n      add\n      swap2\n    tag_256:\n      pop\n      pop\n      pop\n      pop\n      pop\n      dup2\n      jump\t// out\n        /* \"@openzeppelin/contracts/token/ERC20/ERC20.sol\":10504:10874  function _approve(... */\n    tag_150:\n      sub(shl(0xa0, 0x01), 0x01)\n        /* \"@openzeppelin/contracts/token/ERC20/ERC20.sol\":10635:10654  owner != address(0) */\n      dup4\n      and\n        /* \"@openzeppelin/contracts/token/ERC20/ERC20.sol\":10627:10695  require(owner != address(0), \"ERC20: approve from the zero address\") */\n      tag_261\n      jumpi\n      mload(0x40)\n      shl(0xe5, 0x461bcd)\n      dup2\n      mstore\n        /* \"#utility.yul\":7354:7356   */\n      0x20\n        /* \"@openzeppelin/contracts/token/ERC20/ERC20.sol\":10627:10695  require(owner != address(0), \"ERC20: approve from the zero address\") */\n      0x04\n      dup3\n      add\n        /* \"#utility.yul\":7336:7357   */\n      mstore\n        /* \"#utility.yul\":7393:7395   */\n      0x24\n        /* \"#utility.yul\":7373:7391   */\n      dup1\n      dup3\n      add\n        /* \"#utility.yul\":7366:7396   */\n      mstore\n        /* \"#utility.yul\":7432:7466   */\n      0x45524332303a20617070726f76652066726f6d20746865207a65726f20616464\n        /* \"#utility.yul\":7412:7430   */\n      0x44\n      dup3\n      add\n        /* \"#utility.yul\":7405:7467   */\n      mstore\n      shl(0xe0, 0x72657373)\n        /* \"#utility.yul\":7483:7501   */\n      0x64\n      dup3\n      add\n        /* \"#utility.yul\":7476:7510   */\n      mstore\n        /* \"#utility.yul\":7527:7546   */\n      0x84\n      add\n        /* \"@openzeppelin/contracts/token/ERC20/ERC20.sol\":10627:10695  require(owner != address(0), \"ERC20: approve from the zero address\") */\n      tag_159\n        /* \"#utility.yul\":7152:7552   */\n      jump\n        /* \"@openzeppelin/contracts/token/ERC20/ERC20.sol\":10627:10695  require(owner != address(0), \"ERC20: approve from the zero address\") */\n    tag_261:\n      sub(shl(0xa0, 0x01), 0x01)\n        /* \"@openzeppelin/contracts/token/ERC20/ERC20.sol\":10713:10734  spender != address(0) */\n      dup3\n      and\n        /* \"@openzeppelin/contracts/token/ERC20/ERC20.sol\":10705:10773  require(spender != address(0), \"ERC20: approve to the zero address\") */\n      tag_264\n      jumpi\n      mload(0x40)\n      shl(0xe5, 0x461bcd)\n      dup2\n      mstore\n        /* \"#utility.yul\":7759:7761   */\n      0x20\n        /* \"@openzeppelin/contracts/token/ERC20/ERC20.sol\":10705:10773  require(spender != address(0), \"ERC20: approve to the zero address\") */\n      0x04\n      dup3\n      add\n        /* \"#utility.yul\":7741:7762   */\n      mstore\n        /* \"#utility.yul\":7798:7800   */\n      0x22\n        /* \"#utility.yul\":7778:7796   */\n      0x24\n      dup3\n      add\n        /* \"#utility.yul\":7771:7801   */\n      mstore\n        /* \"#utility.yul\":7837:7871   */\n      0x45524332303a20617070726f766520746f20746865207a65726f206164647265\n        /* \"#utility.yul\":7817:7835   */\n      0x44\n      dup3\n      add\n        /* \"#utility.yul\":7810:7872   */\n      mstore\n      shl(0xf0, 0x7373)\n        /* \"#utility.yul\":7888:7906   */\n      0x64\n      dup3\n      add\n        /* \"#utility.yul\":7881:7913   */\n      mstore\n        /* \"#utility.yul\":7930:7949   */\n      0x84\n      add\n        /* \"@openzeppelin/contracts/token/ERC20/ERC20.sol\":10705:10773  require(spender != address(0), \"ERC20: approve to the zero address\") */\n      tag_159\n        /* \"#utility.yul\":7557:7955   */\n      jump\n        /* \"@openzeppelin/contracts/token/ERC20/ERC20.sol\":10705:10773  require(spender != address(0), \"ERC20: approve to the zero address\") */\n    tag_264:\n      sub(shl(0xa0, 0x01), 0x01)\n        /* \"@openzeppelin/contracts/token/ERC20/ERC20.sol\":10784:10802  _allowances[owner] */\n      dup4\n      dup2\n      and\n      0x00\n      dup2\n      dup2\n      mstore\n        /* \"@openzeppelin/contracts/token/ERC20/ERC20.sol\":10784:10795  _allowances */\n      0x01\n        /* \"@openzeppelin/contracts/token/ERC20/ERC20.sol\":10784:10802  _allowances[owner] */\n      0x20\n      swap1\n      dup2\n      mstore\n      0x40\n      dup1\n      dup4\n      keccak256\n        /* \"@openzeppelin/contracts/token/ERC20/ERC20.sol\":10784:10811  _allowances[owner][spender] */\n      swap5\n      dup8\n      and\n      dup1\n      dup5\n      mstore\n      swap5\n      dup3\n      mstore\n      swap2\n      dup3\n      swap1\n      keccak256\n        /* \"@openzeppelin/contracts/token/ERC20/ERC20.sol\":10784:10820  _allowances[owner][spender] = amount */\n      dup6\n      swap1\n      sstore\n        /* \"@openzeppelin/contracts/token/ERC20/ERC20.sol\":10835:10867  Approval(owner, spender, amount) */\n      swap1\n      mload\n        /* \"#utility.yul\":1550:1575   */\n      dup5\n      dup2\n      mstore\n        /* \"@openzeppelin/contracts/token/ERC20/ERC20.sol\":10835:10867  Approval(owner, spender, amount) */\n      0x8c5be1e5ebec7d5bd14f71427d1e84f3dd0314c0f7b2291e5b200ac8c7c3b925\n      swap2\n        /* \"#utility.yul\":1523:1541   */\n      add\n        /* \"@openzeppelin/contracts/token/ERC20/ERC20.sol\":10835:10867  Approval(owner, spender, amount) */\n    tag_267:\n      mload(0x40)\n      dup1\n      swap2\n      sub\n      swap1\n      log3\n        /* \"@openzeppelin/contracts/token/ERC20/ERC20.sol\":10504:10874  function _approve(... */\n      pop\n      pop\n      pop\n      jump\t// out\n        /* \"@openzeppelin/contracts/token/ERC20/ERC20.sol\":8567:9102  function _mint(address account, uint256 amount) internal virtual {... */\n    tag_180:\n      sub(shl(0xa0, 0x01), 0x01)\n        /* \"@openzeppelin/contracts/token/ERC20/ERC20.sol\":8650:8671  account != address(0) */\n      dup3\n      and\n        /* \"@openzeppelin/contracts/token/ERC20/ERC20.sol\":8642:8707  require(account != address(0), \"ERC20: mint to the zero address\") */\n      tag_278\n      jumpi\n      mload(0x40)\n      shl(0xe5, 0x461bcd)\n      dup2\n      mstore\n        /* \"#utility.yul\":8162:8164   */\n      0x20\n        /* \"@openzeppelin/contracts/token/ERC20/ERC20.sol\":8642:8707  require(account != address(0), \"ERC20: mint to the zero address\") */\n      0x04\n      dup3\n      add\n        /* \"#utility.yul\":8144:8165   */\n      mstore\n        /* \"#utility.yul\":8201:8203   */\n      0x1f\n        /* \"#utility.yul\":8181:8199   */\n      0x24\n      dup3\n      add\n        /* \"#utility.yul\":8174:8204   */\n      mstore\n        /* \"#utility.yul\":8240:8273   */\n      0x45524332303a206d696e7420746f20746865207a65726f206164647265737300\n        /* \"#utility.yul\":8220:8238   */\n      0x44\n      dup3\n      add\n        /* \"#utility.yul\":8213:8274   */\n      mstore\n        /* \"#utility.yul\":8291:8309   */\n      0x64\n      add\n        /* \"@openzeppelin/contracts/token/ERC20/ERC20.sol\":8642:8707  require(account != address(0), \"ERC20: mint to the zero address\") */\n      tag_159\n        /* \"#utility.yul\":7960:8315   */\n      jump\n        /* \"@openzeppelin/contracts/token/ERC20/ERC20.sol\":8642:8707  require(account != address(0), \"ERC20: mint to the zero address\") */\n    tag_278:\n        /* \"@openzeppelin/contracts/token/ERC20/ERC20.sol\":8794:8800  amount */\n      dup1\n        /* \"@openzeppelin/contracts/token/ERC20/ERC20.sol\":8778:8790  _totalSupply */\n      0x02\n      0x00\n        /* \"@openzeppelin/contracts/token/ERC20/ERC20.sol\":8778:8800  _totalSupply += amount */\n      dup3\n      dup3\n      sload\n      tag_283\n      swap2\n      swap1\n      tag_171\n      jump\t// in\n    tag_283:\n      swap1\n      swap2\n      sstore\n      pop\n      pop\n      sub(shl(0xa0, 0x01), 0x01)\n        /* \"@openzeppelin/contracts/token/ERC20/ERC20.sol\":8946:8964  _balances[account] */\n      dup3\n      and\n        /* \"@openzeppelin/contracts/token/ERC20/ERC20.sol\":8946:8955  _balances */\n      0x00\n        /* \"@openzeppelin/contracts/token/ERC20/ERC20.sol\":8946:8964  _balances[account] */\n      dup2\n      dup2\n      mstore\n      0x20\n      dup2\n      dup2\n      mstore\n      0x40\n      dup1\n      dup4\n      keccak256\n        /* \"@openzeppelin/contracts/token/ERC20/ERC20.sol\":8946:8974  _balances[account] += amount */\n      dup1\n      sload\n      dup7\n      add\n      swap1\n      sstore\n        /* \"@openzeppelin/contracts/token/ERC20/ERC20.sol\":8999:9036  Transfer(address(0), account, amount) */\n      mload\n        /* \"#utility.yul\":1550:1575   */\n      dup5\n      dup2\n      mstore\n        /* \"@openzeppelin/contracts/token/ERC20/ERC20.sol\":8999:9036  Transfer(address(0), account, amount) */\n      0xddf252ad1be2c89b69c2b068fc378daa952ba7f163c4a11628f55a4df523b3ef\n      swap2\n        /* \"#utility.yul\":1523:1541   */\n      add\n        /* \"@openzeppelin/contracts/token/ERC20/ERC20.sol\":8999:9036  Transfer(address(0), account, amount) */\n      mload(0x40)\n      dup1\n      swap2\n      sub\n      swap1\n      log3\n        /* \"FD-SBT-003.sol\":1611:1815  function mint(address account, uint256 amount) external {... */\n      pop\n      pop\n      jump\t// out\n        /* \"@openzeppelin/contracts/access/Ownable.sol\":1359:1489  function _checkOwner() internal view virtual {... */\n    tag_184:\n        /* \"@openzeppelin/contracts/access/Ownable.sol\":1273:1279  _owner */\n      and(sub(shl(0xa0, 0x01), 0x01), sload(0x05))\n        /* \"@openzeppelin/contracts/utils/Context.sol\":719:729  msg.sender */\n      caller\n        /* \"@openzeppelin/contracts/access/Ownable.sol\":1422:1445  owner() == _msgSender() */\n      eq\n        /* \"@openzeppelin/contracts/access/Ownable.sol\":1414:1482  require(owner() == _msgSender(), \"Ownable: caller is not the owner\") */\n      tag_186\n      jumpi\n      mload(0x40)\n      shl(0xe5, 0x461bcd)\n      dup2\n      mstore\n        /* \"#utility.yul\":8522:8524   */\n      0x20\n        /* \"@openzeppelin/contracts/access/Ownable.sol\":1414:1482  require(owner() == _msgSender(), \"Ownable: caller is not the owner\") */\n      0x04\n      dup3\n      add\n        /* \"#utility.yul\":8504:8525   */\n      dup2\n      swap1\n      mstore\n        /* \"#utility.yul\":8541:8559   */\n      0x24\n      dup3\n      add\n        /* \"#utility.yul\":8534:8564   */\n      mstore\n        /* \"#utility.yul\":8600:8634   */\n      0x4f776e61626c653a2063616c6c6572206973206e6f7420746865206f776e6572\n        /* \"#utility.yul\":8580:8598   */\n      0x44\n      dup3\n      add\n        /* \"#utility.yul\":8573:8635   */\n      mstore\n        /* \"#utility.yul\":8652:8670   */\n      0x64\n      add\n        /* \"@openzeppelin/contracts/access/Ownable.sol\":1414:1482  require(owner() == _msgSender(), \"Ownable: caller is not the owner\") */\n      tag_159\n        /* \"#utility.yul\":8320:8676   */\n      jump\n        /* \"@openzeppelin/contracts/access/Ownable.sol\":2433:2620  function _transferOwnership(address newOwner) internal virtual {... */\n    tag_187:\n        /* \"@openzeppelin/contracts/access/Ownable.sol\":2525:2531  _owner */\n      0x05\n      dup1\n      sload\n      sub(shl(0xa0, 0x01), 0x01)\n        /* \"@openzeppelin/contracts/access/Ownable.sol\":2541:2558  _owner = newOwner */\n      dup4\n      dup2\n      and\n      not(sub(shl(0xa0, 0x01), 0x01))\n      dup4\n      and\n      dup2\n      or\n      swap1\n      swap4\n      sstore\n        /* \"@openzeppelin/contracts/access/Ownable.sol\":2573:2613  OwnershipTransferred(oldOwner, newOwner) */\n      mload(0x40)\n        /* \"@openzeppelin/contracts/access/Ownable.sol\":2525:2531  _owner */\n      swap2\n      and\n      swap2\n        /* \"@openzeppelin/contracts/access/Ownable.sol\":2541:2558  _owner = newOwner */\n      swap1\n        /* \"@openzeppelin/contracts/access/Ownable.sol\":2525:2531  _owner */\n      dup3\n      swap1\n        /* \"@openzeppelin/contracts/access/Ownable.sol\":2573:2613  OwnershipTransferred(oldOwner, newOwner) */\n      0x8be0079c531659141344cd1fd0a4f28419497f9722a3daafe3b4186f6b6457e0\n      swap1\n        /* \"@openzeppelin/contracts/access/Ownable.sol\":2506:2522  address oldOwner */\n      0x00\n      swap1\n        /* \"@openzeppelin/contracts/access/Ownable.sol\":2573:2613  OwnershipTransferred(oldOwner, newOwner) */\n      log3\n        /* \"@openzeppelin/contracts/access/Ownable.sol\":2496:2620  {... */\n      pop\n        /* \"@openzeppelin/contracts/access/Ownable.sol\":2433:2620  function _transferOwnership(address newOwner) internal virtual {... */\n      pop\n      jump\t// out\n        /* \"@openzeppelin/contracts/token/ERC20/ERC20.sol\":9422:10081  function _burn(address account, uint256 amount) internal virtual {... */\n    tag_228:\n      sub(shl(0xa0, 0x01), 0x01)\n        /* \"@openzeppelin/contracts/token/ERC20/ERC20.sol\":9505:9526  account != address(0) */\n      dup3\n      and\n        /* \"@openzeppelin/contracts/token/ERC20/ERC20.sol\":9497:9564  require(account != address(0), \"ERC20: burn from the zero address\") */\n      tag_295\n      jumpi\n      mload(0x40)\n      shl(0xe5, 0x461bcd)\n      dup2\n      mstore\n        /* \"#utility.yul\":8883:8885   */\n      0x20\n        /* \"@openzeppelin/contracts/token/ERC20/ERC20.sol\":9497:9564  require(account != address(0), \"ERC20: burn from the zero address\") */\n      0x04\n      dup3\n      add\n        /* \"#utility.yul\":8865:8886   */\n      mstore\n        /* \"#utility.yul\":8922:8924   */\n      0x21\n        /* \"#utility.yul\":8902:8920   */\n      0x24\n      dup3\n      add\n        /* \"#utility.yul\":8895:8925   */\n      mstore\n        /* \"#utility.yul\":8961:8995   */\n      0x45524332303a206275726e2066726f6d20746865207a65726f20616464726573\n        /* \"#utility.yul\":8941:8959   */\n      0x44\n      dup3\n      add\n        /* \"#utility.yul\":8934:8996   */\n      mstore\n      shl(0xf8, 0x73)\n        /* \"#utility.yul\":9012:9030   */\n      0x64\n      dup3\n      add\n        /* \"#utility.yul\":9005:9036   */\n      mstore\n        /* \"#utility.yul\":9053:9072   */\n      0x84\n      add\n        /* \"@openzeppelin/contracts/token/ERC20/ERC20.sol\":9497:9564  require(account != address(0), \"ERC20: burn from the zero address\") */\n      tag_159\n        /* \"#utility.yul\":8681:9078   */\n      jump\n        /* \"@openzeppelin/contracts/token/ERC20/ERC20.sol\":9497:9564  require(account != address(0), \"ERC20: burn from the zero address\") */\n    tag_295:\n      sub(shl(0xa0, 0x01), 0x01)\n        /* \"@openzeppelin/contracts/token/ERC20/ERC20.sol\":9660:9678  _balances[account] */\n      dup3\n      and\n        /* \"@openzeppelin/contracts/token/ERC20/ERC20.sol\":9635:9657  uint256 accountBalance */\n      0x00\n        /* \"@openzeppelin/contracts/token/ERC20/ERC20.sol\":9660:9678  _balances[account] */\n      swap1\n      dup2\n      mstore\n      0x20\n      dup2\n      swap1\n      mstore\n      0x40\n      swap1\n      keccak256\n      sload\n        /* \"@openzeppelin/contracts/token/ERC20/ERC20.sol\":9696:9720  accountBalance >= amount */\n      dup2\n      dup2\n      lt\n      iszero\n        /* \"@openzeppelin/contracts/token/ERC20/ERC20.sol\":9688:9759  require(accountBalance >= amount, \"ERC20: burn amount exceeds balance\") */\n      tag_299\n      jumpi\n      mload(0x40)\n      shl(0xe5, 0x461bcd)\n      dup2\n      mstore\n        /* \"#utility.yul\":9285:9287   */\n      0x20\n        /* \"@openzeppelin/contracts/token/ERC20/ERC20.sol\":9688:9759  require(accountBalance >= amount, \"ERC20: burn amount exceeds balance\") */\n      0x04\n      dup3\n      add\n        /* \"#utility.yul\":9267:9288   */\n      mstore\n        /* \"#utility.yul\":9324:9326   */\n      0x22\n        /* \"#utility.yul\":9304:9322   */\n      0x24\n      dup3\n      add\n        /* \"#utility.yul\":9297:9327   */\n      mstore\n        /* \"#utility.yul\":9363:9397   */\n      0x45524332303a206275726e20616d6f756e7420657863656564732062616c616e\n        /* \"#utility.yul\":9343:9361   */\n      0x44\n      dup3\n      add\n        /* \"#utility.yul\":9336:9398   */\n      mstore\n      shl(0xf0, 0x6365)\n        /* \"#utility.yul\":9414:9432   */\n      0x64\n      dup3\n      add\n        /* \"#utility.yul\":9407:9439   */\n      mstore\n        /* \"#utility.yul\":9456:9475   */\n      0x84\n      add\n        /* \"@openzeppelin/contracts/token/ERC20/ERC20.sol\":9688:9759  require(accountBalance >= amount, \"ERC20: burn amount exceeds balance\") */\n      tag_159\n        /* \"#utility.yul\":9083:9481   */\n      jump\n        /* \"@openzeppelin/contracts/token/ERC20/ERC20.sol\":9688:9759  require(accountBalance >= amount, \"ERC20: burn amount exceeds balance\") */\n    tag_299:\n      sub(shl(0xa0, 0x01), 0x01)\n        /* \"@openzeppelin/contracts/token/ERC20/ERC20.sol\":9793:9811  _balances[account] */\n      dup4\n      and\n        /* \"@openzeppelin/contracts/token/ERC20/ERC20.sol\":9793:9802  _balances */\n      0x00\n        /* \"@openzeppelin/contracts/token/ERC20/ERC20.sol\":9793:9811  _balances[account] */\n      dup2\n      dup2\n      mstore\n      0x20\n      dup2\n      dup2\n      mstore\n      0x40\n      dup1\n      dup4\n      keccak256\n        /* \"@openzeppelin/contracts/token/ERC20/ERC20.sol\":9814:9837  accountBalance - amount */\n      dup7\n      dup7\n      sub\n        /* \"@openzeppelin/contracts/token/ERC20/ERC20.sol\":9793:9837  _balances[account] = accountBalance - amount */\n      swap1\n      sstore\n        /* \"@openzeppelin/contracts/token/ERC20/ERC20.sol\":9930:9942  _totalSupply */\n      0x02\n        /* \"@openzeppelin/contracts/token/ERC20/ERC20.sol\":9930:9952  _totalSupply -= amount */\n      dup1\n      sload\n      dup8\n      swap1\n      sub\n      swap1\n      sstore\n        /* \"@openzeppelin/contracts/token/ERC20/ERC20.sol\":9978:10015  Transfer(account, address(0), amount) */\n      mload\n        /* \"#utility.yul\":1550:1575   */\n      dup6\n      dup2\n      mstore\n        /* \"@openzeppelin/contracts/token/ERC20/ERC20.sol\":9793:9802  _balances */\n      swap2\n      swap3\n        /* \"@openzeppelin/contracts/token/ERC20/ERC20.sol\":9793:9811  _balances[account] */\n      swap2\n        /* \"@openzeppelin/contracts/token/ERC20/ERC20.sol\":9978:10015  Transfer(account, address(0), amount) */\n      0xddf252ad1be2c89b69c2b068fc378daa952ba7f163c4a11628f55a4df523b3ef\n      swap2\n        /* \"#utility.yul\":1523:1541   */\n      add\n        /* \"@openzeppelin/contracts/token/ERC20/ERC20.sol\":9978:10015  Transfer(account, address(0), amount) */\n      tag_267\n        /* \"#utility.yul\":1404:1581   */\n      jump\n        /* \"#utility.yul\":14:562   */\n    tag_39:\n        /* \"#utility.yul\":126:130   */\n      0x00\n        /* \"#utility.yul\":155:157   */\n      0x20\n        /* \"#utility.yul\":184:186   */\n      dup1\n        /* \"#utility.yul\":173:182   */\n      dup4\n        /* \"#utility.yul\":166:187   */\n      mstore\n        /* \"#utility.yul\":216:222   */\n      dup4\n        /* \"#utility.yul\":210:223   */\n      mload\n        /* \"#utility.yul\":259:265   */\n      dup1\n        /* \"#utility.yul\":254:256   */\n      dup3\n        /* \"#utility.yul\":243:252   */\n      dup6\n        /* \"#utility.yul\":239:257   */\n      add\n        /* \"#utility.yul\":232:266   */\n      mstore\n        /* \"#utility.yul\":284:285   */\n      0x00\n        /* \"#utility.yul\":294:434   */\n    tag_366:\n        /* \"#utility.yul\":308:314   */\n      dup2\n        /* \"#utility.yul\":305:306   */\n      dup2\n        /* \"#utility.yul\":302:315   */\n      lt\n        /* \"#utility.yul\":294:434   */\n      iszero\n      tag_368\n      jumpi\n        /* \"#utility.yul\":403:417   */\n      dup6\n      dup2\n      add\n        /* \"#utility.yul\":399:422   */\n      dup4\n      add\n        /* \"#utility.yul\":393:423   */\n      mload\n        /* \"#utility.yul\":369:386   */\n      dup6\n      dup3\n      add\n        /* \"#utility.yul\":388:390   */\n      0x40\n        /* \"#utility.yul\":365:391   */\n      add\n        /* \"#utility.yul\":358:424   */\n      mstore\n        /* \"#utility.yul\":323:333   */\n      dup3\n      add\n        /* \"#utility.yul\":294:434   */\n      jump(tag_366)\n    tag_368:\n        /* \"#utility.yul\":298:301   */\n      pop\n        /* \"#utility.yul\":483:484   */\n      0x00\n        /* \"#utility.yul\":478:480   */\n      0x40\n        /* \"#utility.yul\":469:475   */\n      dup3\n        /* \"#utility.yul\":458:467   */\n      dup7\n        /* \"#utility.yul\":454:476   */\n      add\n        /* \"#utility.yul\":450:481   */\n      add\n        /* \"#utility.yul\":443:485   */\n      mstore\n        /* \"#utility.yul\":553:555   */\n      0x40\n        /* \"#utility.yul\":546:548   */\n      0x1f\n        /* \"#utility.yul\":542:549   */\n      not\n        /* \"#utility.yul\":537:539   */\n      0x1f\n        /* \"#utility.yul\":529:535   */\n      dup4\n        /* \"#utility.yul\":525:540   */\n      add\n        /* \"#utility.yul\":521:550   */\n      and\n        /* \"#utility.yul\":510:519   */\n      dup6\n        /* \"#utility.yul\":506:551   */\n      add\n        /* \"#utility.yul\":502:556   */\n      add\n        /* \"#utility.yul\":494:556   */\n      swap3\n      pop\n      pop\n      pop\n        /* \"#utility.yul\":14:562   */\n      swap3\n      swap2\n      pop\n      pop\n      jump\t// out\n        /* \"#utility.yul\":775:948   */\n    tag_362:\n        /* \"#utility.yul\":843:863   */\n      dup1\n      calldataload\n      sub(shl(0xa0, 0x01), 0x01)\n        /* \"#utility.yul\":892:923   */\n      dup2\n      and\n        /* \"#utility.yul\":882:924   */\n      dup2\n      eq\n        /* \"#utility.yul\":872:942   */\n      tag_371\n      jumpi\n        /* \"#utility.yul\":938:939   */\n      0x00\n        /* \"#utility.yul\":935:936   */\n      dup1\n        /* \"#utility.yul\":928:940   */\n      revert\n        /* \"#utility.yul\":872:942   */\n    tag_371:\n        /* \"#utility.yul\":775:948   */\n      swap2\n      swap1\n      pop\n      jump\t// out\n        /* \"#utility.yul\":953:1207   */\n    tag_46:\n        /* \"#utility.yul\":1021:1027   */\n      0x00\n        /* \"#utility.yul\":1029:1035   */\n      dup1\n        /* \"#utility.yul\":1082:1084   */\n      0x40\n        /* \"#utility.yul\":1070:1079   */\n      dup4\n        /* \"#utility.yul\":1061:1068   */\n      dup6\n        /* \"#utility.yul\":1057:1080   */\n      sub\n        /* \"#utility.yul\":1053:1085   */\n      slt\n        /* \"#utility.yul\":1050:1102   */\n      iszero\n      tag_373\n      jumpi\n        /* \"#utility.yul\":1098:1099   */\n      0x00\n        /* \"#utility.yul\":1095:1096   */\n      dup1\n        /* \"#utility.yul\":1088:1100   */\n      revert\n        /* \"#utility.yul\":1050:1102   */\n    tag_373:\n        /* \"#utility.yul\":1121:1150   */\n      tag_374\n        /* \"#utility.yul\":1140:1149   */\n      dup4\n        /* \"#utility.yul\":1121:1150   */\n      tag_362\n      jump\t// in\n    tag_374:\n        /* \"#utility.yul\":1111:1150   */\n      swap5\n        /* \"#utility.yul\":1197:1199   */\n      0x20\n        /* \"#utility.yul\":1182:1200   */\n      swap4\n      swap1\n      swap4\n      add\n        /* \"#utility.yul\":1169:1201   */\n      calldataload\n      swap4\n      pop\n      pop\n      pop\n        /* \"#utility.yul\":953:1207   */\n      jump\t// out\n        /* \"#utility.yul\":1586:1914   */\n    tag_62:\n        /* \"#utility.yul\":1663:1669   */\n      0x00\n        /* \"#utility.yul\":1671:1677   */\n      dup1\n        /* \"#utility.yul\":1679:1685   */\n      0x00\n        /* \"#utility.yul\":1732:1734   */\n      0x60\n        /* \"#utility.yul\":1720:1729   */\n      dup5\n        /* \"#utility.yul\":1711:1718   */\n      dup7\n        /* \"#utility.yul\":1707:1730   */\n      sub\n        /* \"#utility.yul\":1703:1735   */\n      slt\n        /* \"#utility.yul\":1700:1752   */\n      iszero\n      tag_378\n      jumpi\n        /* \"#utility.yul\":1748:1749   */\n      0x00\n        /* \"#utility.yul\":1745:1746   */\n      dup1\n        /* \"#utility.yul\":1738:1750   */\n      revert\n        /* \"#utility.yul\":1700:1752   */\n    tag_378:\n        /* \"#utility.yul\":1771:1800   */\n      tag_379\n        /* \"#utility.yul\":1790:1799   */\n      dup5\n        /* \"#utility.yul\":1771:1800   */\n      tag_362\n      jump\t// in\n    tag_379:\n        /* \"#utility.yul\":1761:1800   */\n      swap3\n      pop\n        /* \"#utility.yul\":1819:1857   */\n      tag_380\n        /* \"#utility.yul\":1853:1855   */\n      0x20\n        /* \"#utility.yul\":1842:1851   */\n      dup6\n        /* \"#utility.yul\":1838:1856   */\n      add\n        /* \"#utility.yul\":1819:1857   */\n      tag_362\n      jump\t// in\n    tag_380:\n        /* \"#utility.yul\":1809:1857   */\n      swap2\n      pop\n        /* \"#utility.yul\":1904:1906   */\n      0x40\n        /* \"#utility.yul\":1893:1902   */\n      dup5\n        /* \"#utility.yul\":1889:1907   */\n      add\n        /* \"#utility.yul\":1876:1908   */\n      calldataload\n        /* \"#utility.yul\":1866:1908   */\n      swap1\n      pop\n        /* \"#utility.yul\":1586:1914   */\n      swap3\n      pop\n      swap3\n      pop\n      swap3\n      jump\t// out\n        /* \"#utility.yul\":2108:2294   */\n    tag_78:\n        /* \"#utility.yul\":2167:2173   */\n      0x00\n        /* \"#utility.yul\":2220:2222   */\n      0x20\n        /* \"#utility.yul\":2208:2217   */\n      dup3\n        /* \"#utility.yul\":2199:2206   */\n      dup5\n        /* \"#utility.yul\":2195:2218   */\n      sub\n        /* \"#utility.yul\":2191:2223   */\n      slt\n        /* \"#utility.yul\":2188:2240   */\n      iszero\n      tag_383\n      jumpi\n        /* \"#utility.yul\":2236:2237   */\n      0x00\n        /* \"#utility.yul\":2233:2234   */\n      dup1\n        /* \"#utility.yul\":2226:2238   */\n      revert\n        /* \"#utility.yul\":2188:2240   */\n    tag_383:\n        /* \"#utility.yul\":2259:2288   */\n      tag_243\n        /* \"#utility.yul\":2278:2287   */\n      dup3\n        /* \"#utility.yul\":2259:2288   */\n      tag_362\n      jump\t// in\n        /* \"#utility.yul\":2709:2969   */\n    tag_121:\n        /* \"#utility.yul\":2777:2783   */\n      0x00\n        /* \"#utility.yul\":2785:2791   */\n      dup1\n        /* \"#utility.yul\":2838:2840   */\n      0x40\n        /* \"#utility.yul\":2826:2835   */\n      dup4\n        /* \"#utility.yul\":2817:2824   */\n      dup6\n        /* \"#utility.yul\":2813:2836   */\n      sub\n        /* \"#utility.yul\":2809:2841   */\n      slt\n        /* \"#utility.yul\":2806:2858   */\n      iszero\n      tag_388\n      jumpi\n        /* \"#utility.yul\":2854:2855   */\n      0x00\n        /* \"#utility.yul\":2851:2852   */\n      dup1\n        /* \"#utility.yul\":2844:2856   */\n      revert\n        /* \"#utility.yul\":2806:2858   */\n    tag_388:\n        /* \"#utility.yul\":2877:2906   */\n      tag_389\n        /* \"#utility.yul\":2896:2905   */\n      dup4\n        /* \"#utility.yul\":2877:2906   */\n      tag_362\n      jump\t// in\n    tag_389:\n        /* \"#utility.yul\":2867:2906   */\n      swap2\n      pop\n        /* \"#utility.yul\":2925:2963   */\n      tag_390\n        /* \"#utility.yul\":2959:2961   */\n      0x20\n        /* \"#utility.yul\":2948:2957   */\n      dup5\n        /* \"#utility.yul\":2944:2962   */\n      add\n        /* \"#utility.yul\":2925:2963   */\n      tag_362\n      jump\t// in\n    tag_390:\n        /* \"#utility.yul\":2915:2963   */\n      swap1\n      pop\n        /* \"#utility.yul\":2709:2969   */\n      swap3\n      pop\n      swap3\n      swap1\n      pop\n      jump\t// out\n        /* \"#utility.yul\":2974:3324   */\n    tag_126:\n        /* \"#utility.yul\":3041:3047   */\n      0x00\n        /* \"#utility.yul\":3049:3055   */\n      dup1\n        /* \"#utility.yul\":3102:3104   */\n      0x40\n        /* \"#utility.yul\":3090:3099   */\n      dup4\n        /* \"#utility.yul\":3081:3088   */\n      dup6\n        /* \"#utility.yul\":3077:3100   */\n      sub\n        /* \"#utility.yul\":3073:3105   */\n      slt\n        /* \"#utility.yul\":3070:3122   */\n      iszero\n      tag_392\n      jumpi\n        /* \"#utility.yul\":3118:3119   */\n      0x00\n        /* \"#utility.yul\":3115:3116   */\n      dup1\n        /* \"#utility.yul\":3108:3120   */\n      revert\n        /* \"#utility.yul\":3070:3122   */\n    tag_392:\n        /* \"#utility.yul\":3141:3170   */\n      tag_393\n        /* \"#utility.yul\":3160:3169   */\n      dup4\n        /* \"#utility.yul\":3141:3170   */\n      tag_362\n      jump\t// in\n    tag_393:\n        /* \"#utility.yul\":3131:3170   */\n      swap2\n      pop\n        /* \"#utility.yul\":3220:3222   */\n      0x20\n        /* \"#utility.yul\":3209:3218   */\n      dup4\n        /* \"#utility.yul\":3205:3223   */\n      add\n        /* \"#utility.yul\":3192:3224   */\n      calldataload\n        /* \"#utility.yul\":3264:3274   */\n      0xffffffff\n        /* \"#utility.yul\":3257:3262   */\n      dup2\n        /* \"#utility.yul\":3253:3275   */\n      and\n        /* \"#utility.yul\":3246:3251   */\n      dup2\n        /* \"#utility.yul\":3243:3276   */\n      eq\n        /* \"#utility.yul\":3233:3294   */\n      tag_394\n      jumpi\n        /* \"#utility.yul\":3290:3291   */\n      0x00\n        /* \"#utility.yul\":3287:3288   */\n      dup1\n        /* \"#utility.yul\":3280:3292   */\n      revert\n        /* \"#utility.yul\":3233:3294   */\n    tag_394:\n        /* \"#utility.yul\":3313:3318   */\n      dup1\n        /* \"#utility.yul\":3303:3318   */\n      swap2\n      pop\n      pop\n        /* \"#utility.yul\":2974:3324   */\n      swap3\n      pop\n      swap3\n      swap1\n      pop\n      jump\t// out\n        /* \"#utility.yul\":3628:4008   */\n    tag_141:\n        /* \"#utility.yul\":3707:3708   */\n      0x01\n        /* \"#utility.yul\":3703:3715   */\n      dup2\n      dup2\n      shr\n      swap1\n        /* \"#utility.yul\":3750:3762   */\n      dup3\n      and\n      dup1\n        /* \"#utility.yul\":3771:3832   */\n      tag_397\n      jumpi\n        /* \"#utility.yul\":3825:3829   */\n      0x7f\n        /* \"#utility.yul\":3817:3823   */\n      dup3\n        /* \"#utility.yul\":3813:3830   */\n      and\n        /* \"#utility.yul\":3803:3830   */\n      swap2\n      pop\n        /* \"#utility.yul\":3771:3832   */\n    tag_397:\n        /* \"#utility.yul\":3878:3880   */\n      0x20\n        /* \"#utility.yul\":3870:3876   */\n      dup3\n        /* \"#utility.yul\":3867:3881   */\n      lt\n        /* \"#utility.yul\":3847:3865   */\n      dup2\n        /* \"#utility.yul\":3844:3882   */\n      sub\n        /* \"#utility.yul\":3841:4002   */\n      tag_398\n      jumpi\n        /* \"#utility.yul\":3924:3934   */\n      0x4e487b71\n        /* \"#utility.yul\":3919:3922   */\n      0xe0\n        /* \"#utility.yul\":3915:3935   */\n      shl\n        /* \"#utility.yul\":3912:3913   */\n      0x00\n        /* \"#utility.yul\":3905:3936   */\n      mstore\n        /* \"#utility.yul\":3959:3963   */\n      0x22\n        /* \"#utility.yul\":3956:3957   */\n      0x04\n        /* \"#utility.yul\":3949:3964   */\n      mstore\n        /* \"#utility.yul\":3987:3991   */\n      0x24\n        /* \"#utility.yul\":3984:3985   */\n      0x00\n        /* \"#utility.yul\":3977:3992   */\n      revert\n        /* \"#utility.yul\":3841:4002   */\n    tag_398:\n      pop\n        /* \"#utility.yul\":3628:4008   */\n      swap2\n      swap1\n      pop\n      jump\t// out\n        /* \"#utility.yul\":4422:4549   */\n    tag_363:\n        /* \"#utility.yul\":4483:4493   */\n      0x4e487b71\n        /* \"#utility.yul\":4478:4481   */\n      0xe0\n        /* \"#utility.yul\":4474:4494   */\n      shl\n        /* \"#utility.yul\":4471:4472   */\n      0x00\n        /* \"#utility.yul\":4464:4495   */\n      mstore\n        /* \"#utility.yul\":4514:4518   */\n      0x11\n        /* \"#utility.yul\":4511:4512   */\n      0x04\n        /* \"#utility.yul\":4504:4519   */\n      mstore\n        /* \"#utility.yul\":4538:4542   */\n      0x24\n        /* \"#utility.yul\":4535:4536   */\n      0x00\n        /* \"#utility.yul\":4528:4543   */\n      revert\n        /* \"#utility.yul\":4687:4812   */\n    tag_171:\n        /* \"#utility.yul\":4752:4761   */\n      dup1\n      dup3\n      add\n        /* \"#utility.yul\":4773:4783   */\n      dup1\n      dup3\n      gt\n        /* \"#utility.yul\":4770:4806   */\n      iszero\n      tag_146\n      jumpi\n        /* \"#utility.yul\":4786:4804   */\n      tag_146\n      tag_363\n      jump\t// in\n        /* \"#utility.yul\":4817:5156   */\n    tag_175:\n        /* \"#utility.yul\":5019:5021   */\n      0x20\n        /* \"#utility.yul\":5001:5022   */\n      dup1\n      dup3\n      mstore\n        /* \"#utility.yul\":5058:5060   */\n      0x0f\n        /* \"#utility.yul\":5038:5056   */\n      swap1\n      dup3\n      add\n        /* \"#utility.yul\":5031:5061   */\n      mstore\n      shl(0x88, 0x7374617475732069732066616c7365)\n        /* \"#utility.yul\":5092:5094   */\n      0x40\n        /* \"#utility.yul\":5077:5095   */\n      dup3\n      add\n        /* \"#utility.yul\":5070:5115   */\n      mstore\n        /* \"#utility.yul\":5147:5149   */\n      0x60\n        /* \"#utility.yul\":5132:5150   */\n      add\n      swap1\n        /* \"#utility.yul\":4817:5156   */\n      jump\t// out\n        /* \"#utility.yul\":5866:6041   */\n    tag_197:\n        /* \"#utility.yul\":5934:5944   */\n      0xffffffff\n        /* \"#utility.yul\":5977:5987   */\n      dup3\n      dup2\n      and\n        /* \"#utility.yul\":5965:5975   */\n      dup3\n      dup3\n      and\n        /* \"#utility.yul\":5961:5988   */\n      sub\n      swap1\n        /* \"#utility.yul\":6000:6012   */\n      dup1\n      dup3\n      gt\n        /* \"#utility.yul\":5997:6035   */\n      iszero\n      tag_412\n      jumpi\n        /* \"#utility.yul\":6015:6033   */\n      tag_412\n      tag_363\n      jump\t// in\n    tag_412:\n        /* \"#utility.yul\":5997:6035   */\n      pop\n        /* \"#utility.yul\":5866:6041   */\n      swap3\n      swap2\n      pop\n      pop\n      jump\t// out\n        /* \"#utility.yul\":6046:6334   */\n    tag_205:\n        /* \"#utility.yul\":6085:6086   */\n      0x00\n        /* \"#utility.yul\":6111:6121   */\n      0xffffffff\n        /* \"#utility.yul\":6148:6150   */\n      dup1\n        /* \"#utility.yul\":6145:6146   */\n      dup5\n        /* \"#utility.yul\":6141:6151   */\n      and\n        /* \"#utility.yul\":6170:6173   */\n      dup1\n        /* \"#utility.yul\":6160:6294   */\n      tag_414\n      jumpi\n        /* \"#utility.yul\":6216:6226   */\n      0x4e487b71\n        /* \"#utility.yul\":6211:6214   */\n      0xe0\n        /* \"#utility.yul\":6207:6227   */\n      shl\n        /* \"#utility.yul\":6204:6205   */\n      0x00\n        /* \"#utility.yul\":6197:6228   */\n      mstore\n        /* \"#utility.yul\":6251:6255   */\n      0x12\n        /* \"#utility.yul\":6248:6249   */\n      0x04\n        /* \"#utility.yul\":6241:6256   */\n      mstore\n        /* \"#utility.yul\":6279:6283   */\n      0x24\n        /* \"#utility.yul\":6276:6277   */\n      0x00\n        /* \"#utility.yul\":6269:6284   */\n      revert\n        /* \"#utility.yul\":6160:6294   */\n    tag_414:\n        /* \"#utility.yul\":6312:6322   */\n      swap3\n      and\n        /* \"#utility.yul\":6308:6328   */\n      swap2\n      swap1\n      swap2\n      div\n      swap3\n        /* \"#utility.yul\":6046:6334   */\n      swap2\n      pop\n      pop\n      jump\t// out\n    stop\n    data_d207dafab44f9f11909c507995336bca10e93ce5c974e02263eee445d7833e2e 6572633a20626c6f636b206e756d62657220657863656564732033322062697473\n\n    auxdata: 0xa2646970667358221220d72007cad7335544db87ff493ee9c5396b21bd41ae26a0f3b73dc62d86cd298b64736f6c63430008110033\n}\n",
				"bytecode": {
					"linkReferences": {},
					"object": "60806040526007805460ff191690553480156200001b57600080fd5b5060405162001b8838038062001b888339810160408190526200003e9162000683565b604080518082018252600880825267464453424430303360c01b60208084018290528451808601909552918452908301529060036200007e8382620007f9565b5060046200008d8282620007f9565b505050620000aa620000a46200017660201b60201c565b6200017a565b6006620000b88282620007f9565b50620000d884620000d284670de0b6b3a7640000620008db565b620001cc565b62000135846200012f620000f585670de0b6b3a7640000620008db565b60408051808201909152601d81527f65726332303a20766f746520616d6f756e7420756e646572666c6f7773000000602082015262000293565b620002d1565b505060078054610100600160a81b0319166101006001600160a01b0393841602179055600880546001600160a01b03191692909116919091179055620009aa565b3390565b600580546001600160a01b038381166001600160a01b0319831681179093556040519116919082907f8be0079c531659141344cd1fd0a4f28419497f9722a3daafe3b4186f6b6457e090600090a35050565b6001600160a01b038216620002285760405162461bcd60e51b815260206004820152601f60248201527f45524332303a206d696e7420746f20746865207a65726f20616464726573730060448201526064015b60405180910390fd5b80600260008282546200023c9190620008f5565b90915550506001600160a01b038216600081815260208181526040808320805486019055518481527fddf252ad1be2c89b69c2b068fc378daa952ba7f163c4a11628f55a4df523b3ef910160405180910390a35050565b6000816c010000000000000000000000008410620002c65760405162461bcd60e51b81526004016200021f91906200090b565b508290505b92915050565b6001600160a01b0382166000908152600b602052604081205463ffffffff169081620002ff5760006200034e565b6001600160a01b0384166000908152600a60205260408120906200032560018562000940565b63ffffffff16815260208101919091526040016000205464010000000090046001600160601b03165b905060006200039a82856040518060400160405280601b81526020017f766f74653a20766f746520616d6f756e74206f766572666c6f77730000000000815250620003b660201b60201c565b9050620003aa8584848462000408565b5050505050565b505050565b600080620003c5848662000967565b9050846001600160601b0316816001600160601b031610158390620003ff5760405162461bcd60e51b81526004016200021f91906200090b565b50949350505050565b60006200042f4360405180606001604052806021815260200162001b6760219139620005ff565b905060008463ffffffff161180156200048c57506001600160a01b0385166000908152600a6020526040812063ffffffff8316916200047060018862000940565b63ffffffff908116825260208201929092526040016000205416145b15620004ff576001600160a01b0385166000908152600a602052604081208391620004b960018862000940565b63ffffffff168152602081019190915260400160002080546001600160601b039290921664010000000002600160201b600160801b0319909216919091179055620005aa565b60408051808201825263ffffffff80841682526001600160601b0380861660208085019182526001600160a01b038b166000908152600a82528681208b8616825290915294909420925183549451909116640100000000026001600160801b0319909416911617919091179055620005798460016200098a565b6001600160a01b0386166000908152600b60205260409020805463ffffffff191663ffffffff929092169190911790555b604080516001600160601b038086168252841660208201526001600160a01b038716917fdec2bacdd2f05b59de34da9b523dff8be42e5e38e818c82fdb0bae774387a724910160405180910390a25050505050565b6000816401000000008410620002c65760405162461bcd60e51b81526004016200021f91906200090b565b80516001600160a01b03811681146200064257600080fd5b919050565b634e487b7160e01b600052604160045260246000fd5b60005b838110156200067a57818101518382015260200162000660565b50506000910152565b600080600080608085870312156200069a57600080fd5b620006a5856200062a565b9350620006b5602086016200062a565b6040860151606087015191945092506001600160401b0380821115620006da57600080fd5b818701915087601f830112620006ef57600080fd5b81518181111562000704576200070462000647565b604051601f8201601f19908116603f011681019083821181831017156200072f576200072f62000647565b816040528281528a60208487010111156200074957600080fd5b6200075c8360208301602088016200065d565b979a9699509497505050505050565b600181811c908216806200078057607f821691505b602082108103620007a157634e487b7160e01b600052602260045260246000fd5b50919050565b601f821115620003b157600081815260208120601f850160051c81016020861015620007d05750805b601f850160051c820191505b81811015620007f157828155600101620007dc565b505050505050565b81516001600160401b0381111562000815576200081562000647565b6200082d816200082684546200076b565b84620007a7565b602080601f8311600181146200086557600084156200084c5750858301515b600019600386901b1c1916600185901b178555620007f1565b600085815260208120601f198616915b82811015620008965788860151825594840194600190910190840162000875565b5085821015620008b55787850151600019600388901b60f8161c191681555b5050505050600190811b01905550565b634e487b7160e01b600052601160045260246000fd5b8082028115828204841417620002cb57620002cb620008c5565b80820180821115620002cb57620002cb620008c5565b60208152600082518060208401526200092c8160408501602087016200065d565b601f01601f19169190910160400192915050565b63ffffffff828116828216039080821115620009605762000960620008c5565b5092915050565b6001600160601b03818116838216019080821115620009605762000960620008c5565b63ffffffff818116838216019080821115620009605762000960620008c5565b6111ad80620009ba6000396000f3fe608060405234801561001057600080fd5b50600436106101a95760003560e01c8063782d6fe1116100f9578063b4b5ea5711610097578063f1127ed811610071578063f1127ed8146103ca578063f2fde38b14610432578063f851a44014610445578063fb7f21eb1461045857600080fd5b8063b4b5ea571461038d578063c0336629146103a0578063dd62ed3e146103b757600080fd5b806395d89b41116100d357806395d89b41146103515780639dc29fac14610359578063a457c2d71461036c578063a9059cbb1461037f57600080fd5b8063782d6fe1146103025780638da5cb5b1461032d5780639090c0f21461033e57600080fd5b806323b872dd1161016657806340c10f191161014057806340c10f19146102815780636fcfff451461029657806370a08231146102d1578063715018a6146102fa57600080fd5b806323b872dd14610251578063313ce5671461025f578063395093511461026e57600080fd5b806306fdde03146101ae57806307546172146101cc578063095ea7b3146101fc57806318160ddd1461021f5780631a5ef71c14610231578063200d2ed214610244575b600080fd5b6101b6610460565b6040516101c39190610f38565b60405180910390f35b6007546101e49061010090046001600160a01b031681565b6040516001600160a01b0390911681526020016101c3565b61020f61020a366004610fa2565b6104f2565b60405190151581526020016101c3565b6002545b6040519081526020016101c3565b6009546101e4906001600160a01b031681565b60075461020f9060ff1681565b61020f6101a9366004610fcc565b604051601281526020016101c3565b61020f61027c366004610fa2565b610525565b61029461028f366004610fa2565b610542565b005b6102bc6102a4366004611008565b600b6020526000908152604090205463ffffffff1681565b60405163ffffffff90911681526020016101c3565b6102236102df366004611008565b6001600160a01b031660009081526020819052604090205490565b6102946105c6565b610315610310366004610fa2565b6105da565b6040516001600160601b0390911681526020016101c3565b6005546001600160a01b03166101e4565b61029461034c366004611008565b610873565b6101b661089d565b610294610367366004610fa2565b6108ac565b61020f61037a366004610fa2565b61092c565b61020f6101a9366004610fa2565b61031561039b366004611008565b6109a7565b6102946007805460ff19811660ff90911615179055565b6102236103c5366004611023565b610a4c565b61040e6103d8366004611056565b600a60209081526000928352604080842090915290825290205463ffffffff81169064010000000090046001600160601b031682565b6040805163ffffffff90931683526001600160601b039091166020830152016101c3565b610294610440366004611008565b610a77565b6008546101e4906001600160a01b031681565b6101b6610af0565b60606003805461046f90611096565b80601f016020809104026020016040519081016040528092919081815260200182805461049b90611096565b80156104e85780601f106104bd576101008083540402835291602001916104e8565b820191906000526020600020905b8154815290600101906020018083116104cb57829003601f168201915b5050505050905090565b600033610500818585610b7e565b60019150505b92915050565b60405180910390fd5b610b7e565b506001949350505050565b6000336105008185856105388383610a4c565b61051591906110e6565b60075460ff16156105655760405162461bcd60e51b815260040161050c906110f9565b6009546001600160a01b031633146105b85760405162461bcd60e51b815260206004820152601660248201527518d85b1b195c881a5cc81b9bdd08199a5c9954dbdd5b60521b604482015260640161050c565b6105c28282610ca3565b5050565b6105ce610d62565b6105d86000610dbc565b565b60075460009060ff16156106005760405162461bcd60e51b815260040161050c906110f9565b438211156106505760405162461bcd60e51b815260206004820152601960248201527f45524332303a206e6f74207965742064657465726d696e656400000000000000604482015260640161050c565b6001600160a01b0383166000908152600b602052604090205463ffffffff168015806106a457506001600160a01b0384166000908152600a6020908152604080832083805290915290205463ffffffff1683105b156106b3576000915050610506565b6001600160a01b0384166000908152600a6020526040812084916106d8600185611122565b63ffffffff9081168252602082019290925260400160002054161161074c576001600160a01b0384166000908152600a602052604081209061071b600184611122565b63ffffffff16815260208101919091526040016000205464010000000090046001600160601b031691506105069050565b60008061075a600184611122565b90505b8163ffffffff168163ffffffff16111561082d576000600261077f8484611122565b6107899190611146565b6107939083611122565b6001600160a01b0388166000908152600a6020908152604080832063ffffffff8581168552908352928190208151808301909252549283168082526401000000009093046001600160601b031691810191909152919250879003610801576020015194506105069350505050565b805163ffffffff1687111561081857819350610826565b610823600183611122565b92505b505061075d565b506001600160a01b0385166000908152600a6020908152604080832063ffffffff909416835292905220546001600160601b036401000000009091041691505092915050565b61087b610d62565b600980546001600160a01b0319166001600160a01b0392909216919091179055565b60606004805461046f90611096565b60075460ff16156108cf5760405162461bcd60e51b815260040161050c906110f9565b6009546001600160a01b031633146109225760405162461bcd60e51b815260206004820152601660248201527518d85b1b195c881a5cc81b9bdd08199a5c9954dbdd5b60521b604482015260640161050c565b6105c28282610e0e565b6000338161093a8286610a4c565b90508381101561099a5760405162461bcd60e51b815260206004820152602560248201527f45524332303a2064656372656173656420616c6c6f77616e63652062656c6f77604482015264207a65726f60d81b606482015260840161050c565b61051a8286868403610b7e565b60075460009060ff16156109cd5760405162461bcd60e51b815260040161050c906110f9565b6001600160a01b0382166000908152600b602052604090205463ffffffff16806109f8576000610a45565b6001600160a01b0383166000908152600a6020526040812090610a1c600184611122565b63ffffffff16815260208101919091526040016000205464010000000090046001600160601b03165b9392505050565b6001600160a01b03918216600090815260016020908152604080832093909416825291909152205490565b610a7f610d62565b6001600160a01b038116610ae45760405162461bcd60e51b815260206004820152602660248201527f4f776e61626c653a206e6577206f776e657220697320746865207a65726f206160448201526564647265737360d01b606482015260840161050c565b610aed81610dbc565b50565b60068054610afd90611096565b80601f0160208091040260200160405190810160405280929190818152602001828054610b2990611096565b8015610b765780601f10610b4b57610100808354040283529160200191610b76565b820191906000526020600020905b815481529060010190602001808311610b5957829003601f168201915b505050505081565b6001600160a01b038316610be05760405162461bcd60e51b8152602060048201526024808201527f45524332303a20617070726f76652066726f6d20746865207a65726f206164646044820152637265737360e01b606482015260840161050c565b6001600160a01b038216610c415760405162461bcd60e51b815260206004820152602260248201527f45524332303a20617070726f766520746f20746865207a65726f206164647265604482015261737360f01b606482015260840161050c565b6001600160a01b0383811660008181526001602090815260408083209487168084529482529182902085905590518481527f8c5be1e5ebec7d5bd14f71427d1e84f3dd0314c0f7b2291e5b200ac8c7c3b92591015b60405180910390a3505050565b6001600160a01b038216610cf95760405162461bcd60e51b815260206004820152601f60248201527f45524332303a206d696e7420746f20746865207a65726f206164647265737300604482015260640161050c565b8060026000828254610d0b91906110e6565b90915550506001600160a01b038216600081815260208181526040808320805486019055518481527fddf252ad1be2c89b69c2b068fc378daa952ba7f163c4a11628f55a4df523b3ef910160405180910390a35050565b6005546001600160a01b031633146105d85760405162461bcd60e51b815260206004820181905260248201527f4f776e61626c653a2063616c6c6572206973206e6f7420746865206f776e6572604482015260640161050c565b600580546001600160a01b038381166001600160a01b0319831681179093556040519116919082907f8be0079c531659141344cd1fd0a4f28419497f9722a3daafe3b4186f6b6457e090600090a35050565b6001600160a01b038216610e6e5760405162461bcd60e51b815260206004820152602160248201527f45524332303a206275726e2066726f6d20746865207a65726f206164647265736044820152607360f81b606482015260840161050c565b6001600160a01b03821660009081526020819052604090205481811015610ee25760405162461bcd60e51b815260206004820152602260248201527f45524332303a206275726e20616d6f756e7420657863656564732062616c616e604482015261636560f01b606482015260840161050c565b6001600160a01b0383166000818152602081815260408083208686039055600280548790039055518581529192917fddf252ad1be2c89b69c2b068fc378daa952ba7f163c4a11628f55a4df523b3ef9101610c96565b600060208083528351808285015260005b81811015610f6557858101830151858201604001528201610f49565b506000604082860101526040601f19601f8301168501019250505092915050565b80356001600160a01b0381168114610f9d57600080fd5b919050565b60008060408385031215610fb557600080fd5b610fbe83610f86565b946020939093013593505050565b600080600060608486031215610fe157600080fd5b610fea84610f86565b9250610ff860208501610f86565b9150604084013590509250925092565b60006020828403121561101a57600080fd5b610a4582610f86565b6000806040838503121561103657600080fd5b61103f83610f86565b915061104d60208401610f86565b90509250929050565b6000806040838503121561106957600080fd5b61107283610f86565b9150602083013563ffffffff8116811461108b57600080fd5b809150509250929050565b600181811c908216806110aa57607f821691505b6020821081036110ca57634e487b7160e01b600052602260045260246000fd5b50919050565b634e487b7160e01b600052601160045260246000fd5b80820180821115610506576105066110d0565b6020808252600f908201526e7374617475732069732066616c736560881b604082015260600190565b63ffffffff82811682821603908082111561113f5761113f6110d0565b5092915050565b600063ffffffff8084168061116b57634e487b7160e01b600052601260045260246000fd5b9216919091049291505056fea2646970667358221220d72007cad7335544db87ff493ee9c5396b21bd41ae26a0f3b73dc62d86cd298b64736f6c634300081100336572633a20626c6f636b206e756d62657220657863656564732033322062697473",
					"opcodes": "PUSH1 0x80 PUSH1 0x40 MSTORE PUSH1 0x7 DUP1 SLOAD PUSH1 0xFF NOT AND SWAP1 SSTORE CALLVALUE DUP1 ISZERO PUSH3 0x1B JUMPI PUSH1 0x0 DUP1 REVERT JUMPDEST POP PUSH1 0x40 MLOAD PUSH3 0x1B88 CODESIZE SUB DUP1 PUSH3 0x1B88 DUP4 CODECOPY DUP2 ADD PUSH1 0x40 DUP2 SWAP1 MSTORE PUSH3 0x3E SWAP2 PUSH3 0x683 JUMP JUMPDEST PUSH1 0x40 DUP1 MLOAD DUP1 DUP3 ADD DUP3 MSTORE PUSH1 0x8 DUP1 DUP3 MSTORE PUSH8 0x4644534244303033 PUSH1 0xC0 SHL PUSH1 0x20 DUP1 DUP5 ADD DUP3 SWAP1 MSTORE DUP5 MLOAD DUP1 DUP7 ADD SWAP1 SWAP6 MSTORE SWAP2 DUP5 MSTORE SWAP1 DUP4 ADD MSTORE SWAP1 PUSH1 0x3 PUSH3 0x7E DUP4 DUP3 PUSH3 0x7F9 JUMP JUMPDEST POP PUSH1 0x4 PUSH3 0x8D DUP3 DUP3 PUSH3 0x7F9 JUMP JUMPDEST POP POP POP PUSH3 0xAA PUSH3 0xA4 PUSH3 0x176 PUSH1 0x20 SHL PUSH1 0x20 SHR JUMP JUMPDEST PUSH3 0x17A JUMP JUMPDEST PUSH1 0x6 PUSH3 0xB8 DUP3 DUP3 PUSH3 0x7F9 JUMP JUMPDEST POP PUSH3 0xD8 DUP5 PUSH3 0xD2 DUP5 PUSH8 0xDE0B6B3A7640000 PUSH3 0x8DB JUMP JUMPDEST PUSH3 0x1CC JUMP JUMPDEST PUSH3 0x135 DUP5 PUSH3 0x12F PUSH3 0xF5 DUP6 PUSH8 0xDE0B6B3A7640000 PUSH3 0x8DB JUMP JUMPDEST PUSH1 0x40 DUP1 MLOAD DUP1 DUP3 ADD SWAP1 SWAP2 MSTORE PUSH1 0x1D DUP2 MSTORE PUSH32 0x65726332303A20766F746520616D6F756E7420756E646572666C6F7773000000 PUSH1 0x20 DUP3 ADD MSTORE PUSH3 0x293 JUMP JUMPDEST PUSH3 0x2D1 JUMP JUMPDEST POP POP PUSH1 0x7 DUP1 SLOAD PUSH2 0x100 PUSH1 0x1 PUSH1 0xA8 SHL SUB NOT AND PUSH2 0x100 PUSH1 0x1 PUSH1 0x1 PUSH1 0xA0 SHL SUB SWAP4 DUP5 AND MUL OR SWAP1 SSTORE PUSH1 0x8 DUP1 SLOAD PUSH1 0x1 PUSH1 0x1 PUSH1 0xA0 SHL SUB NOT AND SWAP3 SWAP1 SWAP2 AND SWAP2 SWAP1 SWAP2 OR SWAP1 SSTORE PUSH3 0x9AA JUMP JUMPDEST CALLER SWAP1 JUMP JUMPDEST PUSH1 0x5 DUP1 SLOAD PUSH1 0x1 PUSH1 0x1 PUSH1 0xA0 SHL SUB DUP4 DUP2 AND PUSH1 0x1 PUSH1 0x1 PUSH1 0xA0 SHL SUB NOT DUP4 AND DUP2 OR SWAP1 SWAP4 SSTORE PUSH1 0x40 MLOAD SWAP2 AND SWAP2 SWAP1 DUP3 SWAP1 PUSH32 0x8BE0079C531659141344CD1FD0A4F28419497F9722A3DAAFE3B4186F6B6457E0 SWAP1 PUSH1 0x0 SWAP1 LOG3 POP POP JUMP JUMPDEST PUSH1 0x1 PUSH1 0x1 PUSH1 0xA0 SHL SUB DUP3 AND PUSH3 0x228 JUMPI PUSH1 0x40 MLOAD PUSH3 0x461BCD PUSH1 0xE5 SHL DUP2 MSTORE PUSH1 0x20 PUSH1 0x4 DUP3 ADD MSTORE PUSH1 0x1F PUSH1 0x24 DUP3 ADD MSTORE PUSH32 0x45524332303A206D696E7420746F20746865207A65726F206164647265737300 PUSH1 0x44 DUP3 ADD MSTORE PUSH1 0x64 ADD JUMPDEST PUSH1 0x40 MLOAD DUP1 SWAP2 SUB SWAP1 REVERT JUMPDEST DUP1 PUSH1 0x2 PUSH1 0x0 DUP3 DUP3 SLOAD PUSH3 0x23C SWAP2 SWAP1 PUSH3 0x8F5 JUMP JUMPDEST SWAP1 SWAP2 SSTORE POP POP PUSH1 0x1 PUSH1 0x1 PUSH1 0xA0 SHL SUB DUP3 AND PUSH1 0x0 DUP2 DUP2 MSTORE PUSH1 0x20 DUP2 DUP2 MSTORE PUSH1 0x40 DUP1 DUP4 KECCAK256 DUP1 SLOAD DUP7 ADD SWAP1 SSTORE MLOAD DUP5 DUP2 MSTORE PUSH32 0xDDF252AD1BE2C89B69C2B068FC378DAA952BA7F163C4A11628F55A4DF523B3EF SWAP2 ADD PUSH1 0x40 MLOAD DUP1 SWAP2 SUB SWAP1 LOG3 POP POP JUMP JUMPDEST PUSH1 0x0 DUP2 PUSH13 0x1000000000000000000000000 DUP5 LT PUSH3 0x2C6 JUMPI PUSH1 0x40 MLOAD PUSH3 0x461BCD PUSH1 0xE5 SHL DUP2 MSTORE PUSH1 0x4 ADD PUSH3 0x21F SWAP2 SWAP1 PUSH3 0x90B JUMP JUMPDEST POP DUP3 SWAP1 POP JUMPDEST SWAP3 SWAP2 POP POP JUMP JUMPDEST PUSH1 0x1 PUSH1 0x1 PUSH1 0xA0 SHL SUB DUP3 AND PUSH1 0x0 SWAP1 DUP2 MSTORE PUSH1 0xB PUSH1 0x20 MSTORE PUSH1 0x40 DUP2 KECCAK256 SLOAD PUSH4 0xFFFFFFFF AND SWAP1 DUP2 PUSH3 0x2FF JUMPI PUSH1 0x0 PUSH3 0x34E JUMP JUMPDEST PUSH1 0x1 PUSH1 0x1 PUSH1 0xA0 SHL SUB DUP5 AND PUSH1 0x0 SWAP1 DUP2 MSTORE PUSH1 0xA PUSH1 0x20 MSTORE PUSH1 0x40 DUP2 KECCAK256 SWAP1 PUSH3 0x325 PUSH1 0x1 DUP6 PUSH3 0x940 JUMP JUMPDEST PUSH4 0xFFFFFFFF AND DUP2 MSTORE PUSH1 0x20 DUP2 ADD SWAP2 SWAP1 SWAP2 MSTORE PUSH1 0x40 ADD PUSH1 0x0 KECCAK256 SLOAD PUSH5 0x100000000 SWAP1 DIV PUSH1 0x1 PUSH1 0x1 PUSH1 0x60 SHL SUB AND JUMPDEST SWAP1 POP PUSH1 0x0 PUSH3 0x39A DUP3 DUP6 PUSH1 0x40 MLOAD DUP1 PUSH1 0x40 ADD PUSH1 0x40 MSTORE DUP1 PUSH1 0x1B DUP2 MSTORE PUSH1 0x20 ADD PUSH32 0x766F74653A20766F746520616D6F756E74206F766572666C6F77730000000000 DUP2 MSTORE POP PUSH3 0x3B6 PUSH1 0x20 SHL PUSH1 0x20 SHR JUMP JUMPDEST SWAP1 POP PUSH3 0x3AA DUP6 DUP5 DUP5 DUP5 PUSH3 0x408 JUMP JUMPDEST POP POP POP POP POP JUMP JUMPDEST POP POP POP JUMP JUMPDEST PUSH1 0x0 DUP1 PUSH3 0x3C5 DUP5 DUP7 PUSH3 0x967 JUMP JUMPDEST SWAP1 POP DUP5 PUSH1 0x1 PUSH1 0x1 PUSH1 0x60 SHL SUB AND DUP2 PUSH1 0x1 PUSH1 0x1 PUSH1 0x60 SHL SUB AND LT ISZERO DUP4 SWAP1 PUSH3 0x3FF JUMPI PUSH1 0x40 MLOAD PUSH3 0x461BCD PUSH1 0xE5 SHL DUP2 MSTORE PUSH1 0x4 ADD PUSH3 0x21F SWAP2 SWAP1 PUSH3 0x90B JUMP JUMPDEST POP SWAP5 SWAP4 POP POP POP POP JUMP JUMPDEST PUSH1 0x0 PUSH3 0x42F NUMBER PUSH1 0x40 MLOAD DUP1 PUSH1 0x60 ADD PUSH1 0x40 MSTORE DUP1 PUSH1 0x21 DUP2 MSTORE PUSH1 0x20 ADD PUSH3 0x1B67 PUSH1 0x21 SWAP2 CODECOPY PUSH3 0x5FF JUMP JUMPDEST SWAP1 POP PUSH1 0x0 DUP5 PUSH4 0xFFFFFFFF AND GT DUP1 ISZERO PUSH3 0x48C JUMPI POP PUSH1 0x1 PUSH1 0x1 PUSH1 0xA0 SHL SUB DUP6 AND PUSH1 0x0 SWAP1 DUP2 MSTORE PUSH1 0xA PUSH1 0x20 MSTORE PUSH1 0x40 DUP2 KECCAK256 PUSH4 0xFFFFFFFF DUP4 AND SWAP2 PUSH3 0x470 PUSH1 0x1 DUP9 PUSH3 0x940 JUMP JUMPDEST PUSH4 0xFFFFFFFF SWAP1 DUP2 AND DUP3 MSTORE PUSH1 0x20 DUP3 ADD SWAP3 SWAP1 SWAP3 MSTORE PUSH1 0x40 ADD PUSH1 0x0 KECCAK256 SLOAD AND EQ JUMPDEST ISZERO PUSH3 0x4FF JUMPI PUSH1 0x1 PUSH1 0x1 PUSH1 0xA0 SHL SUB DUP6 AND PUSH1 0x0 SWAP1 DUP2 MSTORE PUSH1 0xA PUSH1 0x20 MSTORE PUSH1 0x40 DUP2 KECCAK256 DUP4 SWAP2 PUSH3 0x4B9 PUSH1 0x1 DUP9 PUSH3 0x940 JUMP JUMPDEST PUSH4 0xFFFFFFFF AND DUP2 MSTORE PUSH1 0x20 DUP2 ADD SWAP2 SWAP1 SWAP2 MSTORE PUSH1 0x40 ADD PUSH1 0x0 KECCAK256 DUP1 SLOAD PUSH1 0x1 PUSH1 0x1 PUSH1 0x60 SHL SUB SWAP3 SWAP1 SWAP3 AND PUSH5 0x100000000 MUL PUSH1 0x1 PUSH1 0x20 SHL PUSH1 0x1 PUSH1 0x80 SHL SUB NOT SWAP1 SWAP3 AND SWAP2 SWAP1 SWAP2 OR SWAP1 SSTORE PUSH3 0x5AA JUMP JUMPDEST PUSH1 0x40 DUP1 MLOAD DUP1 DUP3 ADD DUP3 MSTORE PUSH4 0xFFFFFFFF DUP1 DUP5 AND DUP3 MSTORE PUSH1 0x1 PUSH1 0x1 PUSH1 0x60 SHL SUB DUP1 DUP7 AND PUSH1 0x20 DUP1 DUP6 ADD SWAP2 DUP3 MSTORE PUSH1 0x1 PUSH1 0x1 PUSH1 0xA0 SHL SUB DUP12 AND PUSH1 0x0 SWAP1 DUP2 MSTORE PUSH1 0xA DUP3 MSTORE DUP7 DUP2 KECCAK256 DUP12 DUP7 AND DUP3 MSTORE SWAP1 SWAP2 MSTORE SWAP5 SWAP1 SWAP5 KECCAK256 SWAP3 MLOAD DUP4 SLOAD SWAP5 MLOAD SWAP1 SWAP2 AND PUSH5 0x100000000 MUL PUSH1 0x1 PUSH1 0x1 PUSH1 0x80 SHL SUB NOT SWAP1 SWAP5 AND SWAP2 AND OR SWAP2 SWAP1 SWAP2 OR SWAP1 SSTORE PUSH3 0x579 DUP5 PUSH1 0x1 PUSH3 0x98A JUMP JUMPDEST PUSH1 0x1 PUSH1 0x1 PUSH1 0xA0 SHL SUB DUP7 AND PUSH1 0x0 SWAP1 DUP2 MSTORE PUSH1 0xB PUSH1 0x20 MSTORE PUSH1 0x40 SWAP1 KECCAK256 DUP1 SLOAD PUSH4 0xFFFFFFFF NOT AND PUSH4 0xFFFFFFFF SWAP3 SWAP1 SWAP3 AND SWAP2 SWAP1 SWAP2 OR SWAP1 SSTORE JUMPDEST PUSH1 0x40 DUP1 MLOAD PUSH1 0x1 PUSH1 0x1 PUSH1 0x60 SHL SUB DUP1 DUP7 AND DUP3 MSTORE DUP5 AND PUSH1 0x20 DUP3 ADD MSTORE PUSH1 0x1 PUSH1 0x1 PUSH1 0xA0 SHL SUB DUP8 AND SWAP2 PUSH32 0xDEC2BACDD2F05B59DE34DA9B523DFF8BE42E5E38E818C82FDB0BAE774387A724 SWAP2 ADD PUSH1 0x40 MLOAD DUP1 SWAP2 SUB SWAP1 LOG2 POP POP POP POP POP JUMP JUMPDEST PUSH1 0x0 DUP2 PUSH5 0x100000000 DUP5 LT PUSH3 0x2C6 JUMPI PUSH1 0x40 MLOAD PUSH3 0x461BCD PUSH1 0xE5 SHL DUP2 MSTORE PUSH1 0x4 ADD PUSH3 0x21F SWAP2 SWAP1 PUSH3 0x90B JUMP JUMPDEST DUP1 MLOAD PUSH1 0x1 PUSH1 0x1 PUSH1 0xA0 SHL SUB DUP2 AND DUP2 EQ PUSH3 0x642 JUMPI PUSH1 0x0 DUP1 REVERT JUMPDEST SWAP2 SWAP1 POP JUMP JUMPDEST PUSH4 0x4E487B71 PUSH1 0xE0 SHL PUSH1 0x0 MSTORE PUSH1 0x41 PUSH1 0x4 MSTORE PUSH1 0x24 PUSH1 0x0 REVERT JUMPDEST PUSH1 0x0 JUMPDEST DUP4 DUP2 LT ISZERO PUSH3 0x67A JUMPI DUP2 DUP2 ADD MLOAD DUP4 DUP3 ADD MSTORE PUSH1 0x20 ADD PUSH3 0x660 JUMP JUMPDEST POP POP PUSH1 0x0 SWAP2 ADD MSTORE JUMP JUMPDEST PUSH1 0x0 DUP1 PUSH1 0x0 DUP1 PUSH1 0x80 DUP6 DUP8 SUB SLT ISZERO PUSH3 0x69A JUMPI PUSH1 0x0 DUP1 REVERT JUMPDEST PUSH3 0x6A5 DUP6 PUSH3 0x62A JUMP JUMPDEST SWAP4 POP PUSH3 0x6B5 PUSH1 0x20 DUP7 ADD PUSH3 0x62A JUMP JUMPDEST PUSH1 0x40 DUP7 ADD MLOAD PUSH1 0x60 DUP8 ADD MLOAD SWAP2 SWAP5 POP SWAP3 POP PUSH1 0x1 PUSH1 0x1 PUSH1 0x40 SHL SUB DUP1 DUP3 GT ISZERO PUSH3 0x6DA JUMPI PUSH1 0x0 DUP1 REVERT JUMPDEST DUP2 DUP8 ADD SWAP2 POP DUP8 PUSH1 0x1F DUP4 ADD SLT PUSH3 0x6EF JUMPI PUSH1 0x0 DUP1 REVERT JUMPDEST DUP2 MLOAD DUP2 DUP2 GT ISZERO PUSH3 0x704 JUMPI PUSH3 0x704 PUSH3 0x647 JUMP JUMPDEST PUSH1 0x40 MLOAD PUSH1 0x1F DUP3 ADD PUSH1 0x1F NOT SWAP1 DUP2 AND PUSH1 0x3F ADD AND DUP2 ADD SWAP1 DUP4 DUP3 GT DUP2 DUP4 LT OR ISZERO PUSH3 0x72F JUMPI PUSH3 0x72F PUSH3 0x647 JUMP JUMPDEST DUP2 PUSH1 0x40 MSTORE DUP3 DUP2 MSTORE DUP11 PUSH1 0x20 DUP5 DUP8 ADD ADD GT ISZERO PUSH3 0x749 JUMPI PUSH1 0x0 DUP1 REVERT JUMPDEST PUSH3 0x75C DUP4 PUSH1 0x20 DUP4 ADD PUSH1 0x20 DUP9 ADD PUSH3 0x65D JUMP JUMPDEST SWAP8 SWAP11 SWAP7 SWAP10 POP SWAP5 SWAP8 POP POP POP POP POP POP JUMP JUMPDEST PUSH1 0x1 DUP2 DUP2 SHR SWAP1 DUP3 AND DUP1 PUSH3 0x780 JUMPI PUSH1 0x7F DUP3 AND SWAP2 POP JUMPDEST PUSH1 0x20 DUP3 LT DUP2 SUB PUSH3 0x7A1 JUMPI PUSH4 0x4E487B71 PUSH1 0xE0 SHL PUSH1 0x0 MSTORE PUSH1 0x22 PUSH1 0x4 MSTORE PUSH1 0x24 PUSH1 0x0 REVERT JUMPDEST POP SWAP2 SWAP1 POP JUMP JUMPDEST PUSH1 0x1F DUP3 GT ISZERO PUSH3 0x3B1 JUMPI PUSH1 0x0 DUP2 DUP2 MSTORE PUSH1 0x20 DUP2 KECCAK256 PUSH1 0x1F DUP6 ADD PUSH1 0x5 SHR DUP2 ADD PUSH1 0x20 DUP7 LT ISZERO PUSH3 0x7D0 JUMPI POP DUP1 JUMPDEST PUSH1 0x1F DUP6 ADD PUSH1 0x5 SHR DUP3 ADD SWAP2 POP JUMPDEST DUP2 DUP2 LT ISZERO PUSH3 0x7F1 JUMPI DUP3 DUP2 SSTORE PUSH1 0x1 ADD PUSH3 0x7DC JUMP JUMPDEST POP POP POP POP POP POP JUMP JUMPDEST DUP2 MLOAD PUSH1 0x1 PUSH1 0x1 PUSH1 0x40 SHL SUB DUP2 GT ISZERO PUSH3 0x815 JUMPI PUSH3 0x815 PUSH3 0x647 JUMP JUMPDEST PUSH3 0x82D DUP2 PUSH3 0x826 DUP5 SLOAD PUSH3 0x76B JUMP JUMPDEST DUP5 PUSH3 0x7A7 JUMP JUMPDEST PUSH1 0x20 DUP1 PUSH1 0x1F DUP4 GT PUSH1 0x1 DUP2 EQ PUSH3 0x865 JUMPI PUSH1 0x0 DUP5 ISZERO PUSH3 0x84C JUMPI POP DUP6 DUP4 ADD MLOAD JUMPDEST PUSH1 0x0 NOT PUSH1 0x3 DUP7 SWAP1 SHL SHR NOT AND PUSH1 0x1 DUP6 SWAP1 SHL OR DUP6 SSTORE PUSH3 0x7F1 JUMP JUMPDEST PUSH1 0x0 DUP6 DUP2 MSTORE PUSH1 0x20 DUP2 KECCAK256 PUSH1 0x1F NOT DUP7 AND SWAP2 JUMPDEST DUP3 DUP2 LT ISZERO PUSH3 0x896 JUMPI DUP9 DUP7 ADD MLOAD DUP3 SSTORE SWAP5 DUP5 ADD SWAP5 PUSH1 0x1 SWAP1 SWAP2 ADD SWAP1 DUP5 ADD PUSH3 0x875 JUMP JUMPDEST POP DUP6 DUP3 LT ISZERO PUSH3 0x8B5 JUMPI DUP8 DUP6 ADD MLOAD PUSH1 0x0 NOT PUSH1 0x3 DUP9 SWAP1 SHL PUSH1 0xF8 AND SHR NOT AND DUP2 SSTORE JUMPDEST POP POP POP POP POP PUSH1 0x1 SWAP1 DUP2 SHL ADD SWAP1 SSTORE POP JUMP JUMPDEST PUSH4 0x4E487B71 PUSH1 0xE0 SHL PUSH1 0x0 MSTORE PUSH1 0x11 PUSH1 0x4 MSTORE PUSH1 0x24 PUSH1 0x0 REVERT JUMPDEST DUP1 DUP3 MUL DUP2 ISZERO DUP3 DUP3 DIV DUP5 EQ OR PUSH3 0x2CB JUMPI PUSH3 0x2CB PUSH3 0x8C5 JUMP JUMPDEST DUP1 DUP3 ADD DUP1 DUP3 GT ISZERO PUSH3 0x2CB JUMPI PUSH3 0x2CB PUSH3 0x8C5 JUMP JUMPDEST PUSH1 0x20 DUP2 MSTORE PUSH1 0x0 DUP3 MLOAD DUP1 PUSH1 0x20 DUP5 ADD MSTORE PUSH3 0x92C DUP2 PUSH1 0x40 DUP6 ADD PUSH1 0x20 DUP8 ADD PUSH3 0x65D JUMP JUMPDEST PUSH1 0x1F ADD PUSH1 0x1F NOT AND SWAP2 SWAP1 SWAP2 ADD PUSH1 0x40 ADD SWAP3 SWAP2 POP POP JUMP JUMPDEST PUSH4 0xFFFFFFFF DUP3 DUP2 AND DUP3 DUP3 AND SUB SWAP1 DUP1 DUP3 GT ISZERO PUSH3 0x960 JUMPI PUSH3 0x960 PUSH3 0x8C5 JUMP JUMPDEST POP SWAP3 SWAP2 POP POP JUMP JUMPDEST PUSH1 0x1 PUSH1 0x1 PUSH1 0x60 SHL SUB DUP2 DUP2 AND DUP4 DUP3 AND ADD SWAP1 DUP1 DUP3 GT ISZERO PUSH3 0x960 JUMPI PUSH3 0x960 PUSH3 0x8C5 JUMP JUMPDEST PUSH4 0xFFFFFFFF DUP2 DUP2 AND DUP4 DUP3 AND ADD SWAP1 DUP1 DUP3 GT ISZERO PUSH3 0x960 JUMPI PUSH3 0x960 PUSH3 0x8C5 JUMP JUMPDEST PUSH2 0x11AD DUP1 PUSH3 0x9BA PUSH1 0x0 CODECOPY PUSH1 0x0 RETURN INVALID PUSH1 0x80 PUSH1 0x40 MSTORE CALLVALUE DUP1 ISZERO PUSH2 0x10 JUMPI PUSH1 0x0 DUP1 REVERT JUMPDEST POP PUSH1 0x4 CALLDATASIZE LT PUSH2 0x1A9 JUMPI PUSH1 0x0 CALLDATALOAD PUSH1 0xE0 SHR DUP1 PUSH4 0x782D6FE1 GT PUSH2 0xF9 JUMPI DUP1 PUSH4 0xB4B5EA57 GT PUSH2 0x97 JUMPI DUP1 PUSH4 0xF1127ED8 GT PUSH2 0x71 JUMPI DUP1 PUSH4 0xF1127ED8 EQ PUSH2 0x3CA JUMPI DUP1 PUSH4 0xF2FDE38B EQ PUSH2 0x432 JUMPI DUP1 PUSH4 0xF851A440 EQ PUSH2 0x445 JUMPI DUP1 PUSH4 0xFB7F21EB EQ PUSH2 0x458 JUMPI PUSH1 0x0 DUP1 REVERT JUMPDEST DUP1 PUSH4 0xB4B5EA57 EQ PUSH2 0x38D JUMPI DUP1 PUSH4 0xC0336629 EQ PUSH2 0x3A0 JUMPI DUP1 PUSH4 0xDD62ED3E EQ PUSH2 0x3B7 JUMPI PUSH1 0x0 DUP1 REVERT JUMPDEST DUP1 PUSH4 0x95D89B41 GT PUSH2 0xD3 JUMPI DUP1 PUSH4 0x95D89B41 EQ PUSH2 0x351 JUMPI DUP1 PUSH4 0x9DC29FAC EQ PUSH2 0x359 JUMPI DUP1 PUSH4 0xA457C2D7 EQ PUSH2 0x36C JUMPI DUP1 PUSH4 0xA9059CBB EQ PUSH2 0x37F JUMPI PUSH1 0x0 DUP1 REVERT JUMPDEST DUP1 PUSH4 0x782D6FE1 EQ PUSH2 0x302 JUMPI DUP1 PUSH4 0x8DA5CB5B EQ PUSH2 0x32D JUMPI DUP1 PUSH4 0x9090C0F2 EQ PUSH2 0x33E JUMPI PUSH1 0x0 DUP1 REVERT JUMPDEST DUP1 PUSH4 0x23B872DD GT PUSH2 0x166 JUMPI DUP1 PUSH4 0x40C10F19 GT PUSH2 0x140 JUMPI DUP1 PUSH4 0x40C10F19 EQ PUSH2 0x281 JUMPI DUP1 PUSH4 0x6FCFFF45 EQ PUSH2 0x296 JUMPI DUP1 PUSH4 0x70A08231 EQ PUSH2 0x2D1 JUMPI DUP1 PUSH4 0x715018A6 EQ PUSH2 0x2FA JUMPI PUSH1 0x0 DUP1 REVERT JUMPDEST DUP1 PUSH4 0x23B872DD EQ PUSH2 0x251 JUMPI DUP1 PUSH4 0x313CE567 EQ PUSH2 0x25F JUMPI DUP1 PUSH4 0x39509351 EQ PUSH2 0x26E JUMPI PUSH1 0x0 DUP1 REVERT JUMPDEST DUP1 PUSH4 0x6FDDE03 EQ PUSH2 0x1AE JUMPI DUP1 PUSH4 0x7546172 EQ PUSH2 0x1CC JUMPI DUP1 PUSH4 0x95EA7B3 EQ PUSH2 0x1FC JUMPI DUP1 PUSH4 0x18160DDD EQ PUSH2 0x21F JUMPI DUP1 PUSH4 0x1A5EF71C EQ PUSH2 0x231 JUMPI DUP1 PUSH4 0x200D2ED2 EQ PUSH2 0x244 JUMPI JUMPDEST PUSH1 0x0 DUP1 REVERT JUMPDEST PUSH2 0x1B6 PUSH2 0x460 JUMP JUMPDEST PUSH1 0x40 MLOAD PUSH2 0x1C3 SWAP2 SWAP1 PUSH2 0xF38 JUMP JUMPDEST PUSH1 0x40 MLOAD DUP1 SWAP2 SUB SWAP1 RETURN JUMPDEST PUSH1 0x7 SLOAD PUSH2 0x1E4 SWAP1 PUSH2 0x100 SWAP1 DIV PUSH1 0x1 PUSH1 0x1 PUSH1 0xA0 SHL SUB AND DUP2 JUMP JUMPDEST PUSH1 0x40 MLOAD PUSH1 0x1 PUSH1 0x1 PUSH1 0xA0 SHL SUB SWAP1 SWAP2 AND DUP2 MSTORE PUSH1 0x20 ADD PUSH2 0x1C3 JUMP JUMPDEST PUSH2 0x20F PUSH2 0x20A CALLDATASIZE PUSH1 0x4 PUSH2 0xFA2 JUMP JUMPDEST PUSH2 0x4F2 JUMP JUMPDEST PUSH1 0x40 MLOAD SWAP1 ISZERO ISZERO DUP2 MSTORE PUSH1 0x20 ADD PUSH2 0x1C3 JUMP JUMPDEST PUSH1 0x2 SLOAD JUMPDEST PUSH1 0x40 MLOAD SWAP1 DUP2 MSTORE PUSH1 0x20 ADD PUSH2 0x1C3 JUMP JUMPDEST PUSH1 0x9 SLOAD PUSH2 0x1E4 SWAP1 PUSH1 0x1 PUSH1 0x1 PUSH1 0xA0 SHL SUB AND DUP2 JUMP JUMPDEST PUSH1 0x7 SLOAD PUSH2 0x20F SWAP1 PUSH1 0xFF AND DUP2 JUMP JUMPDEST PUSH2 0x20F PUSH2 0x1A9 CALLDATASIZE PUSH1 0x4 PUSH2 0xFCC JUMP JUMPDEST PUSH1 0x40 MLOAD PUSH1 0x12 DUP2 MSTORE PUSH1 0x20 ADD PUSH2 0x1C3 JUMP JUMPDEST PUSH2 0x20F PUSH2 0x27C CALLDATASIZE PUSH1 0x4 PUSH2 0xFA2 JUMP JUMPDEST PUSH2 0x525 JUMP JUMPDEST PUSH2 0x294 PUSH2 0x28F CALLDATASIZE PUSH1 0x4 PUSH2 0xFA2 JUMP JUMPDEST PUSH2 0x542 JUMP JUMPDEST STOP JUMPDEST PUSH2 0x2BC PUSH2 0x2A4 CALLDATASIZE PUSH1 0x4 PUSH2 0x1008 JUMP JUMPDEST PUSH1 0xB PUSH1 0x20 MSTORE PUSH1 0x0 SWAP1 DUP2 MSTORE PUSH1 0x40 SWAP1 KECCAK256 SLOAD PUSH4 0xFFFFFFFF AND DUP2 JUMP JUMPDEST PUSH1 0x40 MLOAD PUSH4 0xFFFFFFFF SWAP1 SWAP2 AND DUP2 MSTORE PUSH1 0x20 ADD PUSH2 0x1C3 JUMP JUMPDEST PUSH2 0x223 PUSH2 0x2DF CALLDATASIZE PUSH1 0x4 PUSH2 0x1008 JUMP JUMPDEST PUSH1 0x1 PUSH1 0x1 PUSH1 0xA0 SHL SUB AND PUSH1 0x0 SWAP1 DUP2 MSTORE PUSH1 0x20 DUP2 SWAP1 MSTORE PUSH1 0x40 SWAP1 KECCAK256 SLOAD SWAP1 JUMP JUMPDEST PUSH2 0x294 PUSH2 0x5C6 JUMP JUMPDEST PUSH2 0x315 PUSH2 0x310 CALLDATASIZE PUSH1 0x4 PUSH2 0xFA2 JUMP JUMPDEST PUSH2 0x5DA JUMP JUMPDEST PUSH1 0x40 MLOAD PUSH1 0x1 PUSH1 0x1 PUSH1 0x60 SHL SUB SWAP1 SWAP2 AND DUP2 MSTORE PUSH1 0x20 ADD PUSH2 0x1C3 JUMP JUMPDEST PUSH1 0x5 SLOAD PUSH1 0x1 PUSH1 0x1 PUSH1 0xA0 SHL SUB AND PUSH2 0x1E4 JUMP JUMPDEST PUSH2 0x294 PUSH2 0x34C CALLDATASIZE PUSH1 0x4 PUSH2 0x1008 JUMP JUMPDEST PUSH2 0x873 JUMP JUMPDEST PUSH2 0x1B6 PUSH2 0x89D JUMP JUMPDEST PUSH2 0x294 PUSH2 0x367 CALLDATASIZE PUSH1 0x4 PUSH2 0xFA2 JUMP JUMPDEST PUSH2 0x8AC JUMP JUMPDEST PUSH2 0x20F PUSH2 0x37A CALLDATASIZE PUSH1 0x4 PUSH2 0xFA2 JUMP JUMPDEST PUSH2 0x92C JUMP JUMPDEST PUSH2 0x20F PUSH2 0x1A9 CALLDATASIZE PUSH1 0x4 PUSH2 0xFA2 JUMP JUMPDEST PUSH2 0x315 PUSH2 0x39B CALLDATASIZE PUSH1 0x4 PUSH2 0x1008 JUMP JUMPDEST PUSH2 0x9A7 JUMP JUMPDEST PUSH2 0x294 PUSH1 0x7 DUP1 SLOAD PUSH1 0xFF NOT DUP2 AND PUSH1 0xFF SWAP1 SWAP2 AND ISZERO OR SWAP1 SSTORE JUMP JUMPDEST PUSH2 0x223 PUSH2 0x3C5 CALLDATASIZE PUSH1 0x4 PUSH2 0x1023 JUMP JUMPDEST PUSH2 0xA4C JUMP JUMPDEST PUSH2 0x40E PUSH2 0x3D8 CALLDATASIZE PUSH1 0x4 PUSH2 0x1056 JUMP JUMPDEST PUSH1 0xA PUSH1 0x20 SWAP1 DUP2 MSTORE PUSH1 0x0 SWAP3 DUP4 MSTORE PUSH1 0x40 DUP1 DUP5 KECCAK256 SWAP1 SWAP2 MSTORE SWAP1 DUP3 MSTORE SWAP1 KECCAK256 SLOAD PUSH4 0xFFFFFFFF DUP2 AND SWAP1 PUSH5 0x100000000 SWAP1 DIV PUSH1 0x1 PUSH1 0x1 PUSH1 0x60 SHL SUB AND DUP3 JUMP JUMPDEST PUSH1 0x40 DUP1 MLOAD PUSH4 0xFFFFFFFF SWAP1 SWAP4 AND DUP4 MSTORE PUSH1 0x1 PUSH1 0x1 PUSH1 0x60 SHL SUB SWAP1 SWAP2 AND PUSH1 0x20 DUP4 ADD MSTORE ADD PUSH2 0x1C3 JUMP JUMPDEST PUSH2 0x294 PUSH2 0x440 CALLDATASIZE PUSH1 0x4 PUSH2 0x1008 JUMP JUMPDEST PUSH2 0xA77 JUMP JUMPDEST PUSH1 0x8 SLOAD PUSH2 0x1E4 SWAP1 PUSH1 0x1 PUSH1 0x1 PUSH1 0xA0 SHL SUB AND DUP2 JUMP JUMPDEST PUSH2 0x1B6 PUSH2 0xAF0 JUMP JUMPDEST PUSH1 0x60 PUSH1 0x3 DUP1 SLOAD PUSH2 0x46F SWAP1 PUSH2 0x1096 JUMP JUMPDEST DUP1 PUSH1 0x1F ADD PUSH1 0x20 DUP1 SWAP2 DIV MUL PUSH1 0x20 ADD PUSH1 0x40 MLOAD SWAP1 DUP2 ADD PUSH1 0x40 MSTORE DUP1 SWAP3 SWAP2 SWAP1 DUP2 DUP2 MSTORE PUSH1 0x20 ADD DUP3 DUP1 SLOAD PUSH2 0x49B SWAP1 PUSH2 0x1096 JUMP JUMPDEST DUP1 ISZERO PUSH2 0x4E8 JUMPI DUP1 PUSH1 0x1F LT PUSH2 0x4BD JUMPI PUSH2 0x100 DUP1 DUP4 SLOAD DIV MUL DUP4 MSTORE SWAP2 PUSH1 0x20 ADD SWAP2 PUSH2 0x4E8 JUMP JUMPDEST DUP3 ADD SWAP2 SWAP1 PUSH1 0x0 MSTORE PUSH1 0x20 PUSH1 0x0 KECCAK256 SWAP1 JUMPDEST DUP2 SLOAD DUP2 MSTORE SWAP1 PUSH1 0x1 ADD SWAP1 PUSH1 0x20 ADD DUP1 DUP4 GT PUSH2 0x4CB JUMPI DUP3 SWAP1 SUB PUSH1 0x1F AND DUP3 ADD SWAP2 JUMPDEST POP POP POP POP POP SWAP1 POP SWAP1 JUMP JUMPDEST PUSH1 0x0 CALLER PUSH2 0x500 DUP2 DUP6 DUP6 PUSH2 0xB7E JUMP JUMPDEST PUSH1 0x1 SWAP2 POP POP JUMPDEST SWAP3 SWAP2 POP POP JUMP JUMPDEST PUSH1 0x40 MLOAD DUP1 SWAP2 SUB SWAP1 REVERT JUMPDEST PUSH2 0xB7E JUMP JUMPDEST POP PUSH1 0x1 SWAP5 SWAP4 POP POP POP POP JUMP JUMPDEST PUSH1 0x0 CALLER PUSH2 0x500 DUP2 DUP6 DUP6 PUSH2 0x538 DUP4 DUP4 PUSH2 0xA4C JUMP JUMPDEST PUSH2 0x515 SWAP2 SWAP1 PUSH2 0x10E6 JUMP JUMPDEST PUSH1 0x7 SLOAD PUSH1 0xFF AND ISZERO PUSH2 0x565 JUMPI PUSH1 0x40 MLOAD PUSH3 0x461BCD PUSH1 0xE5 SHL DUP2 MSTORE PUSH1 0x4 ADD PUSH2 0x50C SWAP1 PUSH2 0x10F9 JUMP JUMPDEST PUSH1 0x9 SLOAD PUSH1 0x1 PUSH1 0x1 PUSH1 0xA0 SHL SUB AND CALLER EQ PUSH2 0x5B8 JUMPI PUSH1 0x40 MLOAD PUSH3 0x461BCD PUSH1 0xE5 SHL DUP2 MSTORE PUSH1 0x20 PUSH1 0x4 DUP3 ADD MSTORE PUSH1 0x16 PUSH1 0x24 DUP3 ADD MSTORE PUSH22 0x18D85B1B195C881A5CC81B9BDD08199A5C9954DBDD5B PUSH1 0x52 SHL PUSH1 0x44 DUP3 ADD MSTORE PUSH1 0x64 ADD PUSH2 0x50C JUMP JUMPDEST PUSH2 0x5C2 DUP3 DUP3 PUSH2 0xCA3 JUMP JUMPDEST POP POP JUMP JUMPDEST PUSH2 0x5CE PUSH2 0xD62 JUMP JUMPDEST PUSH2 0x5D8 PUSH1 0x0 PUSH2 0xDBC JUMP JUMPDEST JUMP JUMPDEST PUSH1 0x7 SLOAD PUSH1 0x0 SWAP1 PUSH1 0xFF AND ISZERO PUSH2 0x600 JUMPI PUSH1 0x40 MLOAD PUSH3 0x461BCD PUSH1 0xE5 SHL DUP2 MSTORE PUSH1 0x4 ADD PUSH2 0x50C SWAP1 PUSH2 0x10F9 JUMP JUMPDEST NUMBER DUP3 GT ISZERO PUSH2 0x650 JUMPI PUSH1 0x40 MLOAD PUSH3 0x461BCD PUSH1 0xE5 SHL DUP2 MSTORE PUSH1 0x20 PUSH1 0x4 DUP3 ADD MSTORE PUSH1 0x19 PUSH1 0x24 DUP3 ADD MSTORE PUSH32 0x45524332303A206E6F74207965742064657465726D696E656400000000000000 PUSH1 0x44 DUP3 ADD MSTORE PUSH1 0x64 ADD PUSH2 0x50C JUMP JUMPDEST PUSH1 0x1 PUSH1 0x1 PUSH1 0xA0 SHL SUB DUP4 AND PUSH1 0x0 SWAP1 DUP2 MSTORE PUSH1 0xB PUSH1 0x20 MSTORE PUSH1 0x40 SWAP1 KECCAK256 SLOAD PUSH4 0xFFFFFFFF AND DUP1 ISZERO DUP1 PUSH2 0x6A4 JUMPI POP PUSH1 0x1 PUSH1 0x1 PUSH1 0xA0 SHL SUB DUP5 AND PUSH1 0x0 SWAP1 DUP2 MSTORE PUSH1 0xA PUSH1 0x20 SWAP1 DUP2 MSTORE PUSH1 0x40 DUP1 DUP4 KECCAK256 DUP4 DUP1 MSTORE SWAP1 SWAP2 MSTORE SWAP1 KECCAK256 SLOAD PUSH4 0xFFFFFFFF AND DUP4 LT JUMPDEST ISZERO PUSH2 0x6B3 JUMPI PUSH1 0x0 SWAP2 POP POP PUSH2 0x506 JUMP JUMPDEST PUSH1 0x1 PUSH1 0x1 PUSH1 0xA0 SHL SUB DUP5 AND PUSH1 0x0 SWAP1 DUP2 MSTORE PUSH1 0xA PUSH1 0x20 MSTORE PUSH1 0x40 DUP2 KECCAK256 DUP5 SWAP2 PUSH2 0x6D8 PUSH1 0x1 DUP6 PUSH2 0x1122 JUMP JUMPDEST PUSH4 0xFFFFFFFF SWAP1 DUP2 AND DUP3 MSTORE PUSH1 0x20 DUP3 ADD SWAP3 SWAP1 SWAP3 MSTORE PUSH1 0x40 ADD PUSH1 0x0 KECCAK256 SLOAD AND GT PUSH2 0x74C JUMPI PUSH1 0x1 PUSH1 0x1 PUSH1 0xA0 SHL SUB DUP5 AND PUSH1 0x0 SWAP1 DUP2 MSTORE PUSH1 0xA PUSH1 0x20 MSTORE PUSH1 0x40 DUP2 KECCAK256 SWAP1 PUSH2 0x71B PUSH1 0x1 DUP5 PUSH2 0x1122 JUMP JUMPDEST PUSH4 0xFFFFFFFF AND DUP2 MSTORE PUSH1 0x20 DUP2 ADD SWAP2 SWAP1 SWAP2 MSTORE PUSH1 0x40 ADD PUSH1 0x0 KECCAK256 SLOAD PUSH5 0x100000000 SWAP1 DIV PUSH1 0x1 PUSH1 0x1 PUSH1 0x60 SHL SUB AND SWAP2 POP PUSH2 0x506 SWAP1 POP JUMP JUMPDEST PUSH1 0x0 DUP1 PUSH2 0x75A PUSH1 0x1 DUP5 PUSH2 0x1122 JUMP JUMPDEST SWAP1 POP JUMPDEST DUP2 PUSH4 0xFFFFFFFF AND DUP2 PUSH4 0xFFFFFFFF AND GT ISZERO PUSH2 0x82D JUMPI PUSH1 0x0 PUSH1 0x2 PUSH2 0x77F DUP5 DUP5 PUSH2 0x1122 JUMP JUMPDEST PUSH2 0x789 SWAP2 SWAP1 PUSH2 0x1146 JUMP JUMPDEST PUSH2 0x793 SWAP1 DUP4 PUSH2 0x1122 JUMP JUMPDEST PUSH1 0x1 PUSH1 0x1 PUSH1 0xA0 SHL SUB DUP9 AND PUSH1 0x0 SWAP1 DUP2 MSTORE PUSH1 0xA PUSH1 0x20 SWAP1 DUP2 MSTORE PUSH1 0x40 DUP1 DUP4 KECCAK256 PUSH4 0xFFFFFFFF DUP6 DUP2 AND DUP6 MSTORE SWAP1 DUP4 MSTORE SWAP3 DUP2 SWAP1 KECCAK256 DUP2 MLOAD DUP1 DUP4 ADD SWAP1 SWAP3 MSTORE SLOAD SWAP3 DUP4 AND DUP1 DUP3 MSTORE PUSH5 0x100000000 SWAP1 SWAP4 DIV PUSH1 0x1 PUSH1 0x1 PUSH1 0x60 SHL SUB AND SWAP2 DUP2 ADD SWAP2 SWAP1 SWAP2 MSTORE SWAP2 SWAP3 POP DUP8 SWAP1 SUB PUSH2 0x801 JUMPI PUSH1 0x20 ADD MLOAD SWAP5 POP PUSH2 0x506 SWAP4 POP POP POP POP JUMP JUMPDEST DUP1 MLOAD PUSH4 0xFFFFFFFF AND DUP8 GT ISZERO PUSH2 0x818 JUMPI DUP2 SWAP4 POP PUSH2 0x826 JUMP JUMPDEST PUSH2 0x823 PUSH1 0x1 DUP4 PUSH2 0x1122 JUMP JUMPDEST SWAP3 POP JUMPDEST POP POP PUSH2 0x75D JUMP JUMPDEST POP PUSH1 0x1 PUSH1 0x1 PUSH1 0xA0 SHL SUB DUP6 AND PUSH1 0x0 SWAP1 DUP2 MSTORE PUSH1 0xA PUSH1 0x20 SWAP1 DUP2 MSTORE PUSH1 0x40 DUP1 DUP4 KECCAK256 PUSH4 0xFFFFFFFF SWAP1 SWAP5 AND DUP4 MSTORE SWAP3 SWAP1 MSTORE KECCAK256 SLOAD PUSH1 0x1 PUSH1 0x1 PUSH1 0x60 SHL SUB PUSH5 0x100000000 SWAP1 SWAP2 DIV AND SWAP2 POP POP SWAP3 SWAP2 POP POP JUMP JUMPDEST PUSH2 0x87B PUSH2 0xD62 JUMP JUMPDEST PUSH1 0x9 DUP1 SLOAD PUSH1 0x1 PUSH1 0x1 PUSH1 0xA0 SHL SUB NOT AND PUSH1 0x1 PUSH1 0x1 PUSH1 0xA0 SHL SUB SWAP3 SWAP1 SWAP3 AND SWAP2 SWAP1 SWAP2 OR SWAP1 SSTORE JUMP JUMPDEST PUSH1 0x60 PUSH1 0x4 DUP1 SLOAD PUSH2 0x46F SWAP1 PUSH2 0x1096 JUMP JUMPDEST PUSH1 0x7 SLOAD PUSH1 0xFF AND ISZERO PUSH2 0x8CF JUMPI PUSH1 0x40 MLOAD PUSH3 0x461BCD PUSH1 0xE5 SHL DUP2 MSTORE PUSH1 0x4 ADD PUSH2 0x50C SWAP1 PUSH2 0x10F9 JUMP JUMPDEST PUSH1 0x9 SLOAD PUSH1 0x1 PUSH1 0x1 PUSH1 0xA0 SHL SUB AND CALLER EQ PUSH2 0x922 JUMPI PUSH1 0x40 MLOAD PUSH3 0x461BCD PUSH1 0xE5 SHL DUP2 MSTORE PUSH1 0x20 PUSH1 0x4 DUP3 ADD MSTORE PUSH1 0x16 PUSH1 0x24 DUP3 ADD MSTORE PUSH22 0x18D85B1B195C881A5CC81B9BDD08199A5C9954DBDD5B PUSH1 0x52 SHL PUSH1 0x44 DUP3 ADD MSTORE PUSH1 0x64 ADD PUSH2 0x50C JUMP JUMPDEST PUSH2 0x5C2 DUP3 DUP3 PUSH2 0xE0E JUMP JUMPDEST PUSH1 0x0 CALLER DUP2 PUSH2 0x93A DUP3 DUP7 PUSH2 0xA4C JUMP JUMPDEST SWAP1 POP DUP4 DUP2 LT ISZERO PUSH2 0x99A JUMPI PUSH1 0x40 MLOAD PUSH3 0x461BCD PUSH1 0xE5 SHL DUP2 MSTORE PUSH1 0x20 PUSH1 0x4 DUP3 ADD MSTORE PUSH1 0x25 PUSH1 0x24 DUP3 ADD MSTORE PUSH32 0x45524332303A2064656372656173656420616C6C6F77616E63652062656C6F77 PUSH1 0x44 DUP3 ADD MSTORE PUSH5 0x207A65726F PUSH1 0xD8 SHL PUSH1 0x64 DUP3 ADD MSTORE PUSH1 0x84 ADD PUSH2 0x50C JUMP JUMPDEST PUSH2 0x51A DUP3 DUP7 DUP7 DUP5 SUB PUSH2 0xB7E JUMP JUMPDEST PUSH1 0x7 SLOAD PUSH1 0x0 SWAP1 PUSH1 0xFF AND ISZERO PUSH2 0x9CD JUMPI PUSH1 0x40 MLOAD PUSH3 0x461BCD PUSH1 0xE5 SHL DUP2 MSTORE PUSH1 0x4 ADD PUSH2 0x50C SWAP1 PUSH2 0x10F9 JUMP JUMPDEST PUSH1 0x1 PUSH1 0x1 PUSH1 0xA0 SHL SUB DUP3 AND PUSH1 0x0 SWAP1 DUP2 MSTORE PUSH1 0xB PUSH1 0x20 MSTORE PUSH1 0x40 SWAP1 KECCAK256 SLOAD PUSH4 0xFFFFFFFF AND DUP1 PUSH2 0x9F8 JUMPI PUSH1 0x0 PUSH2 0xA45 JUMP JUMPDEST PUSH1 0x1 PUSH1 0x1 PUSH1 0xA0 SHL SUB DUP4 AND PUSH1 0x0 SWAP1 DUP2 MSTORE PUSH1 0xA PUSH1 0x20 MSTORE PUSH1 0x40 DUP2 KECCAK256 SWAP1 PUSH2 0xA1C PUSH1 0x1 DUP5 PUSH2 0x1122 JUMP JUMPDEST PUSH4 0xFFFFFFFF AND DUP2 MSTORE PUSH1 0x20 DUP2 ADD SWAP2 SWAP1 SWAP2 MSTORE PUSH1 0x40 ADD PUSH1 0x0 KECCAK256 SLOAD PUSH5 0x100000000 SWAP1 DIV PUSH1 0x1 PUSH1 0x1 PUSH1 0x60 SHL SUB AND JUMPDEST SWAP4 SWAP3 POP POP POP JUMP JUMPDEST PUSH1 0x1 PUSH1 0x1 PUSH1 0xA0 SHL SUB SWAP2 DUP3 AND PUSH1 0x0 SWAP1 DUP2 MSTORE PUSH1 0x1 PUSH1 0x20 SWAP1 DUP2 MSTORE PUSH1 0x40 DUP1 DUP4 KECCAK256 SWAP4 SWAP1 SWAP5 AND DUP3 MSTORE SWAP2 SWAP1 SWAP2 MSTORE KECCAK256 SLOAD SWAP1 JUMP JUMPDEST PUSH2 0xA7F PUSH2 0xD62 JUMP JUMPDEST PUSH1 0x1 PUSH1 0x1 PUSH1 0xA0 SHL SUB DUP2 AND PUSH2 0xAE4 JUMPI PUSH1 0x40 MLOAD PUSH3 0x461BCD PUSH1 0xE5 SHL DUP2 MSTORE PUSH1 0x20 PUSH1 0x4 DUP3 ADD MSTORE PUSH1 0x26 PUSH1 0x24 DUP3 ADD MSTORE PUSH32 0x4F776E61626C653A206E6577206F776E657220697320746865207A65726F2061 PUSH1 0x44 DUP3 ADD MSTORE PUSH6 0x646472657373 PUSH1 0xD0 SHL PUSH1 0x64 DUP3 ADD MSTORE PUSH1 0x84 ADD PUSH2 0x50C JUMP JUMPDEST PUSH2 0xAED DUP2 PUSH2 0xDBC JUMP JUMPDEST POP JUMP JUMPDEST PUSH1 0x6 DUP1 SLOAD PUSH2 0xAFD SWAP1 PUSH2 0x1096 JUMP JUMPDEST DUP1 PUSH1 0x1F ADD PUSH1 0x20 DUP1 SWAP2 DIV MUL PUSH1 0x20 ADD PUSH1 0x40 MLOAD SWAP1 DUP2 ADD PUSH1 0x40 MSTORE DUP1 SWAP3 SWAP2 SWAP1 DUP2 DUP2 MSTORE PUSH1 0x20 ADD DUP3 DUP1 SLOAD PUSH2 0xB29 SWAP1 PUSH2 0x1096 JUMP JUMPDEST DUP1 ISZERO PUSH2 0xB76 JUMPI DUP1 PUSH1 0x1F LT PUSH2 0xB4B JUMPI PUSH2 0x100 DUP1 DUP4 SLOAD DIV MUL DUP4 MSTORE SWAP2 PUSH1 0x20 ADD SWAP2 PUSH2 0xB76 JUMP JUMPDEST DUP3 ADD SWAP2 SWAP1 PUSH1 0x0 MSTORE PUSH1 0x20 PUSH1 0x0 KECCAK256 SWAP1 JUMPDEST DUP2 SLOAD DUP2 MSTORE SWAP1 PUSH1 0x1 ADD SWAP1 PUSH1 0x20 ADD DUP1 DUP4 GT PUSH2 0xB59 JUMPI DUP3 SWAP1 SUB PUSH1 0x1F AND DUP3 ADD SWAP2 JUMPDEST POP POP POP POP POP DUP2 JUMP JUMPDEST PUSH1 0x1 PUSH1 0x1 PUSH1 0xA0 SHL SUB DUP4 AND PUSH2 0xBE0 JUMPI PUSH1 0x40 MLOAD PUSH3 0x461BCD PUSH1 0xE5 SHL DUP2 MSTORE PUSH1 0x20 PUSH1 0x4 DUP3 ADD MSTORE PUSH1 0x24 DUP1 DUP3 ADD MSTORE PUSH32 0x45524332303A20617070726F76652066726F6D20746865207A65726F20616464 PUSH1 0x44 DUP3 ADD MSTORE PUSH4 0x72657373 PUSH1 0xE0 SHL PUSH1 0x64 DUP3 ADD MSTORE PUSH1 0x84 ADD PUSH2 0x50C JUMP JUMPDEST PUSH1 0x1 PUSH1 0x1 PUSH1 0xA0 SHL SUB DUP3 AND PUSH2 0xC41 JUMPI PUSH1 0x40 MLOAD PUSH3 0x461BCD PUSH1 0xE5 SHL DUP2 MSTORE PUSH1 0x20 PUSH1 0x4 DUP3 ADD MSTORE PUSH1 0x22 PUSH1 0x24 DUP3 ADD MSTORE PUSH32 0x45524332303A20617070726F766520746F20746865207A65726F206164647265 PUSH1 0x44 DUP3 ADD MSTORE PUSH2 0x7373 PUSH1 0xF0 SHL PUSH1 0x64 DUP3 ADD MSTORE PUSH1 0x84 ADD PUSH2 0x50C JUMP JUMPDEST PUSH1 0x1 PUSH1 0x1 PUSH1 0xA0 SHL SUB DUP4 DUP2 AND PUSH1 0x0 DUP2 DUP2 MSTORE PUSH1 0x1 PUSH1 0x20 SWAP1 DUP2 MSTORE PUSH1 0x40 DUP1 DUP4 KECCAK256 SWAP5 DUP8 AND DUP1 DUP5 MSTORE SWAP5 DUP3 MSTORE SWAP2 DUP3 SWAP1 KECCAK256 DUP6 SWAP1 SSTORE SWAP1 MLOAD DUP5 DUP2 MSTORE PUSH32 0x8C5BE1E5EBEC7D5BD14F71427D1E84F3DD0314C0F7B2291E5B200AC8C7C3B925 SWAP2 ADD JUMPDEST PUSH1 0x40 MLOAD DUP1 SWAP2 SUB SWAP1 LOG3 POP POP POP JUMP JUMPDEST PUSH1 0x1 PUSH1 0x1 PUSH1 0xA0 SHL SUB DUP3 AND PUSH2 0xCF9 JUMPI PUSH1 0x40 MLOAD PUSH3 0x461BCD PUSH1 0xE5 SHL DUP2 MSTORE PUSH1 0x20 PUSH1 0x4 DUP3 ADD MSTORE PUSH1 0x1F PUSH1 0x24 DUP3 ADD MSTORE PUSH32 0x45524332303A206D696E7420746F20746865207A65726F206164647265737300 PUSH1 0x44 DUP3 ADD MSTORE PUSH1 0x64 ADD PUSH2 0x50C JUMP JUMPDEST DUP1 PUSH1 0x2 PUSH1 0x0 DUP3 DUP3 SLOAD PUSH2 0xD0B SWAP2 SWAP1 PUSH2 0x10E6 JUMP JUMPDEST SWAP1 SWAP2 SSTORE POP POP PUSH1 0x1 PUSH1 0x1 PUSH1 0xA0 SHL SUB DUP3 AND PUSH1 0x0 DUP2 DUP2 MSTORE PUSH1 0x20 DUP2 DUP2 MSTORE PUSH1 0x40 DUP1 DUP4 KECCAK256 DUP1 SLOAD DUP7 ADD SWAP1 SSTORE MLOAD DUP5 DUP2 MSTORE PUSH32 0xDDF252AD1BE2C89B69C2B068FC378DAA952BA7F163C4A11628F55A4DF523B3EF SWAP2 ADD PUSH1 0x40 MLOAD DUP1 SWAP2 SUB SWAP1 LOG3 POP POP JUMP JUMPDEST PUSH1 0x5 SLOAD PUSH1 0x1 PUSH1 0x1 PUSH1 0xA0 SHL SUB AND CALLER EQ PUSH2 0x5D8 JUMPI PUSH1 0x40 MLOAD PUSH3 0x461BCD PUSH1 0xE5 SHL DUP2 MSTORE PUSH1 0x20 PUSH1 0x4 DUP3 ADD DUP2 SWAP1 MSTORE PUSH1 0x24 DUP3 ADD MSTORE PUSH32 0x4F776E61626C653A2063616C6C6572206973206E6F7420746865206F776E6572 PUSH1 0x44 DUP3 ADD MSTORE PUSH1 0x64 ADD PUSH2 0x50C JUMP JUMPDEST PUSH1 0x5 DUP1 SLOAD PUSH1 0x1 PUSH1 0x1 PUSH1 0xA0 SHL SUB DUP4 DUP2 AND PUSH1 0x1 PUSH1 0x1 PUSH1 0xA0 SHL SUB NOT DUP4 AND DUP2 OR SWAP1 SWAP4 SSTORE PUSH1 0x40 MLOAD SWAP2 AND SWAP2 SWAP1 DUP3 SWAP1 PUSH32 0x8BE0079C531659141344CD1FD0A4F28419497F9722A3DAAFE3B4186F6B6457E0 SWAP1 PUSH1 0x0 SWAP1 LOG3 POP POP JUMP JUMPDEST PUSH1 0x1 PUSH1 0x1 PUSH1 0xA0 SHL SUB DUP3 AND PUSH2 0xE6E JUMPI PUSH1 0x40 MLOAD PUSH3 0x461BCD PUSH1 0xE5 SHL DUP2 MSTORE PUSH1 0x20 PUSH1 0x4 DUP3 ADD MSTORE PUSH1 0x21 PUSH1 0x24 DUP3 ADD MSTORE PUSH32 0x45524332303A206275726E2066726F6D20746865207A65726F20616464726573 PUSH1 0x44 DUP3 ADD MSTORE PUSH1 0x73 PUSH1 0xF8 SHL PUSH1 0x64 DUP3 ADD MSTORE PUSH1 0x84 ADD PUSH2 0x50C JUMP JUMPDEST PUSH1 0x1 PUSH1 0x1 PUSH1 0xA0 SHL SUB DUP3 AND PUSH1 0x0 SWAP1 DUP2 MSTORE PUSH1 0x20 DUP2 SWAP1 MSTORE PUSH1 0x40 SWAP1 KECCAK256 SLOAD DUP2 DUP2 LT ISZERO PUSH2 0xEE2 JUMPI PUSH1 0x40 MLOAD PUSH3 0x461BCD PUSH1 0xE5 SHL DUP2 MSTORE PUSH1 0x20 PUSH1 0x4 DUP3 ADD MSTORE PUSH1 0x22 PUSH1 0x24 DUP3 ADD MSTORE PUSH32 0x45524332303A206275726E20616D6F756E7420657863656564732062616C616E PUSH1 0x44 DUP3 ADD MSTORE PUSH2 0x6365 PUSH1 0xF0 SHL PUSH1 0x64 DUP3 ADD MSTORE PUSH1 0x84 ADD PUSH2 0x50C JUMP JUMPDEST PUSH1 0x1 PUSH1 0x1 PUSH1 0xA0 SHL SUB DUP4 AND PUSH1 0x0 DUP2 DUP2 MSTORE PUSH1 0x20 DUP2 DUP2 MSTORE PUSH1 0x40 DUP1 DUP4 KECCAK256 DUP7 DUP7 SUB SWAP1 SSTORE PUSH1 0x2 DUP1 SLOAD DUP8 SWAP1 SUB SWAP1 SSTORE MLOAD DUP6 DUP2 MSTORE SWAP2 SWAP3 SWAP2 PUSH32 0xDDF252AD1BE2C89B69C2B068FC378DAA952BA7F163C4A11628F55A4DF523B3EF SWAP2 ADD PUSH2 0xC96 JUMP JUMPDEST PUSH1 0x0 PUSH1 0x20 DUP1 DUP4 MSTORE DUP4 MLOAD DUP1 DUP3 DUP6 ADD MSTORE PUSH1 0x0 JUMPDEST DUP2 DUP2 LT ISZERO PUSH2 0xF65 JUMPI DUP6 DUP2 ADD DUP4 ADD MLOAD DUP6 DUP3 ADD PUSH1 0x40 ADD MSTORE DUP3 ADD PUSH2 0xF49 JUMP JUMPDEST POP PUSH1 0x0 PUSH1 0x40 DUP3 DUP7 ADD ADD MSTORE PUSH1 0x40 PUSH1 0x1F NOT PUSH1 0x1F DUP4 ADD AND DUP6 ADD ADD SWAP3 POP POP POP SWAP3 SWAP2 POP POP JUMP JUMPDEST DUP1 CALLDATALOAD PUSH1 0x1 PUSH1 0x1 PUSH1 0xA0 SHL SUB DUP2 AND DUP2 EQ PUSH2 0xF9D JUMPI PUSH1 0x0 DUP1 REVERT JUMPDEST SWAP2 SWAP1 POP JUMP JUMPDEST PUSH1 0x0 DUP1 PUSH1 0x40 DUP4 DUP6 SUB SLT ISZERO PUSH2 0xFB5 JUMPI PUSH1 0x0 DUP1 REVERT JUMPDEST PUSH2 0xFBE DUP4 PUSH2 0xF86 JUMP JUMPDEST SWAP5 PUSH1 0x20 SWAP4 SWAP1 SWAP4 ADD CALLDATALOAD SWAP4 POP POP POP JUMP JUMPDEST PUSH1 0x0 DUP1 PUSH1 0x0 PUSH1 0x60 DUP5 DUP7 SUB SLT ISZERO PUSH2 0xFE1 JUMPI PUSH1 0x0 DUP1 REVERT JUMPDEST PUSH2 0xFEA DUP5 PUSH2 0xF86 JUMP JUMPDEST SWAP3 POP PUSH2 0xFF8 PUSH1 0x20 DUP6 ADD PUSH2 0xF86 JUMP JUMPDEST SWAP2 POP PUSH1 0x40 DUP5 ADD CALLDATALOAD SWAP1 POP SWAP3 POP SWAP3 POP SWAP3 JUMP JUMPDEST PUSH1 0x0 PUSH1 0x20 DUP3 DUP5 SUB SLT ISZERO PUSH2 0x101A JUMPI PUSH1 0x0 DUP1 REVERT JUMPDEST PUSH2 0xA45 DUP3 PUSH2 0xF86 JUMP JUMPDEST PUSH1 0x0 DUP1 PUSH1 0x40 DUP4 DUP6 SUB SLT ISZERO PUSH2 0x1036 JUMPI PUSH1 0x0 DUP1 REVERT JUMPDEST PUSH2 0x103F DUP4 PUSH2 0xF86 JUMP JUMPDEST SWAP2 POP PUSH2 0x104D PUSH1 0x20 DUP5 ADD PUSH2 0xF86 JUMP JUMPDEST SWAP1 POP SWAP3 POP SWAP3 SWAP1 POP JUMP JUMPDEST PUSH1 0x0 DUP1 PUSH1 0x40 DUP4 DUP6 SUB SLT ISZERO PUSH2 0x1069 JUMPI PUSH1 0x0 DUP1 REVERT JUMPDEST PUSH2 0x1072 DUP4 PUSH2 0xF86 JUMP JUMPDEST SWAP2 POP PUSH1 0x20 DUP4 ADD CALLDATALOAD PUSH4 0xFFFFFFFF DUP2 AND DUP2 EQ PUSH2 0x108B JUMPI PUSH1 0x0 DUP1 REVERT JUMPDEST DUP1 SWAP2 POP POP SWAP3 POP SWAP3 SWAP1 POP JUMP JUMPDEST PUSH1 0x1 DUP2 DUP2 SHR SWAP1 DUP3 AND DUP1 PUSH2 0x10AA JUMPI PUSH1 0x7F DUP3 AND SWAP2 POP JUMPDEST PUSH1 0x20 DUP3 LT DUP2 SUB PUSH2 0x10CA JUMPI PUSH4 0x4E487B71 PUSH1 0xE0 SHL PUSH1 0x0 MSTORE PUSH1 0x22 PUSH1 0x4 MSTORE PUSH1 0x24 PUSH1 0x0 REVERT JUMPDEST POP SWAP2 SWAP1 POP JUMP JUMPDEST PUSH4 0x4E487B71 PUSH1 0xE0 SHL PUSH1 0x0 MSTORE PUSH1 0x11 PUSH1 0x4 MSTORE PUSH1 0x24 PUSH1 0x0 REVERT JUMPDEST DUP1 DUP3 ADD DUP1 DUP3 GT ISZERO PUSH2 0x506 JUMPI PUSH2 0x506 PUSH2 0x10D0 JUMP JUMPDEST PUSH1 0x20 DUP1 DUP3 MSTORE PUSH1 0xF SWAP1 DUP3 ADD MSTORE PUSH15 0x7374617475732069732066616C7365 PUSH1 0x88 SHL PUSH1 0x40 DUP3 ADD MSTORE PUSH1 0x60 ADD SWAP1 JUMP JUMPDEST PUSH4 0xFFFFFFFF DUP3 DUP2 AND DUP3 DUP3 AND SUB SWAP1 DUP1 DUP3 GT ISZERO PUSH2 0x113F JUMPI PUSH2 0x113F PUSH2 0x10D0 JUMP JUMPDEST POP SWAP3 SWAP2 POP POP JUMP JUMPDEST PUSH1 0x0 PUSH4 0xFFFFFFFF DUP1 DUP5 AND DUP1 PUSH2 0x116B JUMPI PUSH4 0x4E487B71 PUSH1 0xE0 SHL PUSH1 0x0 MSTORE PUSH1 0x12 PUSH1 0x4 MSTORE PUSH1 0x24 PUSH1 0x0 REVERT JUMPDEST SWAP3 AND SWAP2 SWAP1 SWAP2 DIV SWAP3 SWAP2 POP POP JUMP INVALID LOG2 PUSH5 0x6970667358 0x22 SLT KECCAK256 0xD7 KECCAK256 SMOD 0xCA 0xD7 CALLER SSTORE DIFFICULTY 0xDB DUP8 SELFDESTRUCT 0x49 RETURNDATACOPY 0xE9 0xC5 CODECOPY PUSH12 0x21BD41AE26A0F3B73DC62D86 0xCD 0x29 DUP12 PUSH5 0x736F6C6343 STOP ADDMOD GT STOP CALLER PUSH6 0x72633A20626C PUSH16 0x636B206E756D62657220657863656564 PUSH20 0x2033322062697473000000000000000000000000 "
				},
				"gasEstimates": {
					"creation": {
						"codeDepositCost": "905000",
						"executionCost": "infinite",
						"totalCost": "infinite"
					},
					"external": {
						"admin()": "2425",
						"allowance(address,address)": "infinite",
						"approve(address,uint256)": "24674",
						"balanceOf(address)": "2629",
						"burn(address,uint256)": "55198",
						"checkpoints(address,uint32)": "2784",
						"decimals()": "245",
						"decreaseAllowance(address,uint256)": "27040",
						"fireSoul()": "2449",
						"getCurrentVotes(address)": "infinite",
						"getPriorVotes(address,uint256)": "infinite",
						"increaseAllowance(address,uint256)": "infinite",
						"logo()": "infinite",
						"mint(address,uint256)": "55116",
						"minter()": "2394",
						"name()": "infinite",
						"numCheckpoints(address)": "2601",
						"owner()": "2399",
						"renounceOwnership()": "infinite",
						"setFireSoulAddress(address)": "26825",
						"setStatus()": "24438",
						"status()": "2444",
						"symbol()": "infinite",
						"totalSupply()": "2371",
						"transfer(address,uint256)": "419",
						"transferFrom(address,address,uint256)": "infinite",
						"transferOwnership(address)": "28402"
					},
					"internal": {
						"_addDelegates(address,uint96)": "infinite",
						"_devDelegates(address,uint96)": "infinite",
						"_transferErc20(address,address,uint256)": "infinite",
						"_writeCheckpoint(address,uint32,uint96,uint96)": "infinite",
						"add96(uint96,uint96,string memory)": "infinite",
						"safe32(uint256,string memory)": "infinite",
						"safe96(uint256,string memory)": "infinite",
						"sub96(uint96,uint96,string memory)": "infinite"
					}
				},
				"methodIdentifiers": {
					"admin()": "f851a440",
					"allowance(address,address)": "dd62ed3e",
					"approve(address,uint256)": "095ea7b3",
					"balanceOf(address)": "70a08231",
					"burn(address,uint256)": "9dc29fac",
					"checkpoints(address,uint32)": "f1127ed8",
					"decimals()": "313ce567",
					"decreaseAllowance(address,uint256)": "a457c2d7",
					"fireSoul()": "1a5ef71c",
					"getCurrentVotes(address)": "b4b5ea57",
					"getPriorVotes(address,uint256)": "782d6fe1",
					"increaseAllowance(address,uint256)": "39509351",
					"logo()": "fb7f21eb",
					"mint(address,uint256)": "40c10f19",
					"minter()": "07546172",
					"name()": "06fdde03",
					"numCheckpoints(address)": "6fcfff45",
					"owner()": "8da5cb5b",
					"renounceOwnership()": "715018a6",
					"setFireSoulAddress(address)": "9090c0f2",
					"setStatus()": "c0336629",
					"status()": "200d2ed2",
					"symbol()": "95d89b41",
					"totalSupply()": "18160ddd",
					"transfer(address,uint256)": "a9059cbb",
					"transferFrom(address,address,uint256)": "23b872dd",
					"transferOwnership(address)": "f2fde38b"
				}
			},
			"storageLayout": {
				"storage": [
					{
						"astId": 128,
						"contract": "FD-SBT-003.sol:FDSBT003",
						"label": "_balances",
						"offset": 0,
						"slot": "0",
						"type": "t_mapping(t_address,t_uint256)"
					},
					{
						"astId": 134,
						"contract": "FD-SBT-003.sol:FDSBT003",
						"label": "_allowances",
						"offset": 0,
						"slot": "1",
						"type": "t_mapping(t_address,t_mapping(t_address,t_uint256))"
					},
					{
						"astId": 136,
						"contract": "FD-SBT-003.sol:FDSBT003",
						"label": "_totalSupply",
						"offset": 0,
						"slot": "2",
						"type": "t_uint256"
					},
					{
						"astId": 138,
						"contract": "FD-SBT-003.sol:FDSBT003",
						"label": "_name",
						"offset": 0,
						"slot": "3",
						"type": "t_string_storage"
					},
					{
						"astId": 140,
						"contract": "FD-SBT-003.sol:FDSBT003",
						"label": "_symbol",
						"offset": 0,
						"slot": "4",
						"type": "t_string_storage"
					},
					{
						"astId": 7,
						"contract": "FD-SBT-003.sol:FDSBT003",
						"label": "_owner",
						"offset": 0,
						"slot": "5",
						"type": "t_address"
					},
					{
						"astId": 1481,
						"contract": "FD-SBT-003.sol:FDSBT003",
						"label": "logo",
						"offset": 0,
						"slot": "6",
						"type": "t_string_storage"
					},
					{
						"astId": 1489,
						"contract": "FD-SBT-003.sol:FDSBT003",
						"label": "status",
						"offset": 0,
						"slot": "7",
						"type": "t_bool"
					},
					{
						"astId": 1491,
						"contract": "FD-SBT-003.sol:FDSBT003",
						"label": "minter",
						"offset": 1,
						"slot": "7",
						"type": "t_address"
					},
					{
						"astId": 1493,
						"contract": "FD-SBT-003.sol:FDSBT003",
						"label": "admin",
						"offset": 0,
						"slot": "8",
						"type": "t_address"
					},
					{
						"astId": 1495,
						"contract": "FD-SBT-003.sol:FDSBT003",
						"label": "fireSoul",
						"offset": 0,
						"slot": "9",
						"type": "t_address"
					},
					{
						"astId": 1502,
						"contract": "FD-SBT-003.sol:FDSBT003",
						"label": "checkpoints",
						"offset": 0,
						"slot": "10",
						"type": "t_mapping(t_address,t_mapping(t_uint32,t_struct(Checkpoint)1486_storage))"
					},
					{
						"astId": 1506,
						"contract": "FD-SBT-003.sol:FDSBT003",
						"label": "numCheckpoints",
						"offset": 0,
						"slot": "11",
						"type": "t_mapping(t_address,t_uint32)"
					}
				],
				"types": {
					"t_address": {
						"encoding": "inplace",
						"label": "address",
						"numberOfBytes": "20"
					},
					"t_bool": {
						"encoding": "inplace",
						"label": "bool",
						"numberOfBytes": "1"
					},
					"t_mapping(t_address,t_mapping(t_address,t_uint256))": {
						"encoding": "mapping",
						"key": "t_address",
						"label": "mapping(address => mapping(address => uint256))",
						"numberOfBytes": "32",
						"value": "t_mapping(t_address,t_uint256)"
					},
					"t_mapping(t_address,t_mapping(t_uint32,t_struct(Checkpoint)1486_storage))": {
						"encoding": "mapping",
						"key": "t_address",
						"label": "mapping(address => mapping(uint32 => struct FDSBT003.Checkpoint))",
						"numberOfBytes": "32",
						"value": "t_mapping(t_uint32,t_struct(Checkpoint)1486_storage)"
					},
					"t_mapping(t_address,t_uint256)": {
						"encoding": "mapping",
						"key": "t_address",
						"label": "mapping(address => uint256)",
						"numberOfBytes": "32",
						"value": "t_uint256"
					},
					"t_mapping(t_address,t_uint32)": {
						"encoding": "mapping",
						"key": "t_address",
						"label": "mapping(address => uint32)",
						"numberOfBytes": "32",
						"value": "t_uint32"
					},
					"t_mapping(t_uint32,t_struct(Checkpoint)1486_storage)": {
						"encoding": "mapping",
						"key": "t_uint32",
						"label": "mapping(uint32 => struct FDSBT003.Checkpoint)",
						"numberOfBytes": "32",
						"value": "t_struct(Checkpoint)1486_storage"
					},
					"t_string_storage": {
						"encoding": "bytes",
						"label": "string",
						"numberOfBytes": "32"
					},
					"t_struct(Checkpoint)1486_storage": {
						"encoding": "inplace",
						"label": "struct FDSBT003.Checkpoint",
						"members": [
							{
								"astId": 1483,
								"contract": "FD-SBT-003.sol:FDSBT003",
								"label": "fromBlock",
								"offset": 0,
								"slot": "0",
								"type": "t_uint32"
							},
							{
								"astId": 1485,
								"contract": "FD-SBT-003.sol:FDSBT003",
								"label": "votes",
								"offset": 4,
								"slot": "0",
								"type": "t_uint96"
							}
						],
						"numberOfBytes": "32"
					},
					"t_uint256": {
						"encoding": "inplace",
						"label": "uint256",
						"numberOfBytes": "32"
					},
					"t_uint32": {
						"encoding": "inplace",
						"label": "uint32",
						"numberOfBytes": "4"
					},
					"t_uint96": {
						"encoding": "inplace",
						"label": "uint96",
						"numberOfBytes": "12"
					}
				}
			},
			"userdoc": {
				"kind": "user",
				"methods": {},
				"version": 1
			}
		}
	}
}